:100000000C9428010C9459010C9459010C94590139
:100010000C9459010C9459010C9459010C945901F8
:100020000C9459010C9459010C9459010C945901E8
:100030000C9459010C9459010C9459010C945901D8
:100040000C9459010C9459010C9459010C945901C8
:100050000C9459010C9459010C9459010C946803A7
:100060000C9459010C94DC030C94B2030C945901C8
:100070000C9459010C9459010C9459010C94590198
:100080000C9459010C9459010C9459010C94590188
:100090000C9459010C9459010C9459010C94590178
:1000A0000C9459010C9459010C9459010C94590168
:1000B0000C9459010C9459010C9459010C94590158
:1000C0000C9459010C9459010C9459010C94590148
:1000D0000C9459010C9459010C9459010C94590138
:1000E0000C9459010C9497010C941E030C94470333
:1000F0000C942F030C94FF020C943D030C94040306
:100100000C9435030C9451030C9455030C9439034F
:100110000C94AB010C9422030C9431020C94250333
:100120000C94F9010C947E020C944B030C941A036A
:100130000C942B030C9495050C9416030C945B0102
:100140000C9443030C94880100000A0B02090C0D67
:100150000E0807030401000000000000000000007A
:10016000000000000000000000000000000000008F
:10017000000000001211100000000000000000004C
:10018000000000000000000000000000000000006F
:100190002200250028002B002E003100340002012F
:1001A0000000050108010B010000210024002700C8
:1001B0002A002D0030003300010100000401070176
:1001C0000A010505050507050808080802020202DC
:1001D0000A0A0808040404040101010101010101E3
:1001E0000303030303030303040707070C0C0C0CAE
:1001F0000C0C0C0C02020202060606060606060697
:100200000B0B0B0B0B0B0B0B010210202008081023
:100210002040102040800201020108040201010276
:10022000040810204080804020100804020180044F
:1002300002018040201008040201080402010102AA
:100240000408102040800102040810204080950519
:1002500011241FBECFEFD1E2DEBFCDBF00E00CBF47
:1002600022E0AEE2B2E001C01D92A53DB207E1F787
:1002700012E0A0E0B2E0E0E1FCE000E00BBF02C071
:1002800007900D92AE32B107D9F711E0C8E2D1E084
:1002900000E006C021970109802FFE010E94FE05A3
:1002A000C732D10780E00807A9F70E9412040C9416
:1002B00006060C940000AF92BF92CF92DF92EF92AD
:1002C000FF920F931F93CF93DF936C017B018B0100
:1002D000040F151FEB015E01AE18BF08C017D10750
:1002E00059F06991D601ED91FC910190F081E02DDA
:1002F000C6011995892B79F7C501DF91CF911F911F
:100300000F91FF90EF90DF90CF90BF90AF90089546
:10031000FC01538D448D252F30E0842F90E0821B0B
:10032000930B541710F0CF96089501970895FC0190
:10033000918D828D981761F0A28DAE0FBF2FB11DE8
:100340005D968C91928D9F5F9F73928F90E0089540
:100350008FEF9FEF0895FC01918D828D981731F0FA
:10036000828DE80FF11D858D90E008958FEF9FEF4E
:1003700008952FB7F8948091340290913502A0919E
:100380003602B09137022FBF809340029093410212
:10039000A0934202B093430288E392E00E94AB0133
:1003A00097FF26C02FB7F8948091340290913502C0
:1003B000A0913602B09137022FBF40914002509178
:1003C00041026091420270914302841B950BA60B7F
:1003D000B70B40913C0250913D0260913E027091FA
:1003E0003F0284179507A607B707B0F28FEF9FEF7C
:1003F0000895FC01918D228D892F90E0805C9F4FA4
:10040000821B91098F739927089588E392E00E94D7
:10041000F90121E0892B09F420E0822F0895FC01E5
:10042000A48DA80FB92FB11DA35ABF4F2C91848D55
:1004300090E001968F739927848FA689B7892C93B2
:10044000A089B1898C91837080648C93938D848D05
:10045000981306C00288F389E02D80818F7D808308
:100460000895EF92FF920F931F93CF93DF93EC01C8
:1004700081E0888F9B8D8C8D98131AC0E889F9894B
:10048000808185FF15C09FB7F894EE89FF8960834E
:10049000E889F98980818370806480839FBF81E0CF
:1004A00090E0DF91CF911F910F91FF90EF90089511
:1004B000F62E0B8D10E00F5F1F4F0F731127E02EEC
:1004C0008C8D8E110CC00FB607FCFACFE889F98924
:1004D000808185FFF5CFCE010E940F02F1CFEB8D19
:1004E000EC0FFD2FF11DE35AFF4FF0829FB7F894F8
:1004F0000B8FEA89FB8980818062CFCFCF93DF9316
:10050000EC01888D8823B9F0AA89BB89E889F9892B
:100510008C9185FD03C0808186FD0DC00FB607FC60
:10052000F7CF8C9185FFF2CF808185FFEDCFCE0193
:100530000E940F02E9CFDF91CF91089580E090E013
:10054000892B29F00E94050281110E94000080E0A1
:1005500090E0892B49F080E090E0892B29F00E94FF
:10056000000081110E94000080E090E0892B49F09A
:1005700080E090E0892B29F00E94000081110E9408
:10058000000080E090E0892B49F080E090E0892B2A
:1005900029F00E94000081110C9400000895282F7A
:1005A00030E0F901E85BFE4F9491F901E85FFD4FFF
:1005B00044912E533E4FF9012491222309F435C072
:1005C000992311F191509231F8F4E92FF0E0882746
:1005D000E351FD4F8F4F0C94FE051E032203FF02D3
:1005E00016031A03040325032B032F0335033903D2
:1005F0003D034303470304034B0351035503809119
:1006000080008F7780938000E22FF0E0EE0FFF1FD5
:10061000E257FE4FA591B4918FB7F894EC91611118
:1006200048C040954E234C938FBF08958091800021
:100630008F7DE8CF80918000877FE4CF84B58F776E
:1006400084BDE2CF84B58F7DFBCF8091B0008F77E2
:100650008093B000D9CF8091B0008F7DF9CF809189
:1006600090008F7780939000CFCF809190008F7D06
:10067000F9CF80919000877FF5CF8091A0008F7790
:100680008093A000C1CF8091A0008F7DF9CF809191
:10069000A000877FF5CF809120018F778093200184
:1006A000B3CF809120018F7DF9CF80912001877F8A
:1006B000F5CF4E2BB8CFFC0101900020E9F7319720
:1006C000AF01481B590BBC0188E392E00C945B011D
:1006D0001F920F920FB60F9211242F933F938F9377
:1006E0009F93AF93BF938091340290913502A09174
:1006F0003602B09137023091330223E0230F2D37B9
:1007000058F50196A11DB11D209333028093340248
:1007100090933502A0933602B093370280912F0256
:1007200090913002A0913102B09132020196A11D48
:10073000B11D80932F0290933002A0933102B093A9
:100740003202BF91AF919F918F913F912F910F9066
:100750000FBE0F901F90189526E8230F0296A11D3B
:10076000B11DD2CF1F920F920FB60F9211240BB66C
:100770000F922F933F934F935F936F937F938F933A
:100780009F93AF93BF93EF93FF9388E392E00E9410
:100790000F02FF91EF91BF91AF919F918F917F9148
:1007A0006F915F914F913F912F910F900BBE0F90E2
:1007B0000FBE0F901F9018951F920F920FB60F92B9
:1007C00011240BB60F922F938F939F93EF93FF9368
:1007D000E0914802F09149028081E0914E02F0914F
:1007E0004F0282FD1DC09081809151028F5F8F73F7
:1007F00020915202821741F0E0915102F0E0E85C52
:10080000FD4F958F80935102FF91EF919F918F91B2
:100810002F910F900BBE0F900FBE0F901F90189549
:100820008081F2CFCF93DF93CDB7DEB7A1970FB61C
:10083000F894DEBF0FBECDBF789484B5826084BDCE
:1008400084B5816084BD85B5826085BD85B58160D4
:1008500085BD80916E00816080936E001092810052
:10086000809181008260809381008091810081600D
:1008700080938100809180008160809380008091CE
:10088000B10084608093B1008091B000816080935A
:10089000B0008091910082608093910080919100DE
:1008A000816080939100809190008160809390009E
:1008B0008091A10082608093A1008091A10081605D
:1008C0008093A1008091A00081608093A00080911E
:1008D00021018260809321018091210181608093B8
:1008E00021018091200181608093200180917A0014
:1008F000846080937A0080917A00826080937A008D
:1009000080917A00816080937A0080917A0080687B
:1009100080937A001092C100E0914802F091490260
:1009200082E08083E0914402F09145021082E091E0
:100930004602F09147028FEC808310925002E091C2
:100940004C02F0914D0286E08083E0914A02F091E2
:100950004B02808180618083E0914A02F0914B02DA
:10096000808188608083E0914A02F0914B0280810F
:1009700080688083E0914A02F0914B0280818F7DF4
:100980008083A2E1B2E08D9190E0FC01E85FFD4F31
:1009900024918E539E4FFC0184918823A1F090E016
:1009A000880F991FFC01E855FE4F45915491FC01B9
:1009B000E257FE4F859194918FB7F894FA01908198
:1009C000922B90838FBFF2E0AB31BF07E1F69AE044
:1009D000892E912CA12CB12C88E392E00E94F90180
:1009E000181619060CF07AC00E94B901FC0197FD97
:1009F0007FC08D32910521F0C0970A9708F071C031
:100A0000C12CD12C760110E0E130F105D9F0ED32A6
:100A1000F10509F46BC0CF01C0970A9798F4AAE0DA
:100A2000B0E0A70196010E94C2056F01FF0FEE081A
:100A3000FF08C60ED71EE81EF91E80E3C81AD108AB
:100A4000E108F10888E392E00E9497010E94B90151
:100A5000FC01C0970A97C0F2E130F105A9F2112319
:100A600041F0F094E094D094C094C11CD11CE11CDE
:100A7000F11CC0922E02CC2089F1A70196013327E8
:100A80004427552719A27E01E1E2EE0EF11CCA01AE
:100A9000B901A50194010E94DC05605DF701629334
:100AA0007F01211531054105510589F7309719F06E
:100AB000CF010E945B038BE192E00E945B03D09028
:100AC0002E02F9E002E112E0FD15B0F48EE192E0B1
:100AD0000E945B038BE192E00E945B030E949E02F6
:100AE0007BCF88E392E00E9497017ECF11E0AACFEE
:100AF000C12CD12C7601BDCF60E0F80181918F012E
:100B00000E94CF02F2E00B311F07B1F782E1E82E1D
:100B100082E0F82E10E0D11609F361E0F70181912F
:100B20007F010E94CF021F5FF6CFE8E3F2E013825D
:100B3000128288EE93E0A0E0B0E084839583A683E0
:100B4000B78384E092E09183808385EC90E0958781
:100B5000848784EC90E09787868780EC90E0918B87
:100B6000808B81EC90E0938B828B82EC90E0958B74
:100B7000848B86EC90E0978B868B118E128E138E71
:100B8000148E08950E94CD05A59F900DB49F900DE1
:100B9000A49F800D911D11240895A29FB001B39FC1
:100BA000C001A39F700D811D1124911DB29F700D76
:100BB000811D1124911D0895A1E21A2EAA1BBB1BB1
:100BC000FD010DC0AA1FBB1FEE1FFF1FA217B30719
:100BD000E407F50720F0A21BB30BE40BF50B661F2F
:100BE000771F881F991F1A9469F7609570958095F3
:100BF00090959B01AC01BD01CF010895EE0FFF1F41
:100C0000881F8BBF0790F691E02D1994F894FFCFC1
:100C10000000000031025B0188017E02F9019701AA
:100C2000AB01030405060708090A0B0D0A00496E0B
:0E0C300076616C6964206E756D6265720000FD
:00000001FF
