:100000000C9428010C9459010C9459010C94590139
:100010000C9459010C9459010C9459010C945901F8
:100020000C9459010C9459010C9459010C945901E8
:100030000C9459010C9459010C9459010C945901D8
:100040000C9459010C94CD050C9459010C94590150
:100050000C9459010C9459010C9459010C94990475
:100060000C9459010C940D050C94E3040C94590163
:100070000C9459010C9459010C9459010C94590198
:100080000C949F050C9459010C9459010C9459013E
:100090000C9459010C9459010C9459010C94590178
:1000A0000C9459010C9459010C9471050C9459014C
:1000B0000C9459010C9459010C9459010C9443056A
:1000C0000C9459010C9459010C9459010C94590148
:1000D0000C9459010C9459010C9459010C94590138
:1000E0000C9459010C94E1010C942F020C945003D0
:1000F0000C9435030C94BE010C9454030C945803D7
:100100000C9481030C94B4020C943A030C94730382
:100110000C945B030C9467020C9487030C946B03A0
:100120000C947D030C946F030C9479030C9491014F
:100130000C944C030C948B030C94CD010C94610330
:100140000C9465030C94FB0500000A0B02090C0DCE
:100150000E0807030401000000000000000000007A
:10016000000000000000000000000000000000008F
:10017000000000001211100000000000000000004C
:10018000000000000000000000000000000000006F
:100190002200250028002B002E003100340002012F
:1001A0000000050108010B010000210024002700C8
:1001B0002A002D0030003300010100000401070176
:1001C0000A010505050507050808080802020202DC
:1001D0000A0A0808040404040101010101010101E3
:1001E0000303030303030303040707070C0C0C0CAE
:1001F0000C0C0C0C02020202060606060606060697
:100200000B0B0B0B0B0B0B0B010210202008081023
:100210002040102040800201020108040201010276
:10022000040810204080804020100804020180044F
:1002300002018040201008040201080402010102AA
:100240000408102040800102040810204080FB05B3
:1002500011241FBECFEFD1E2DEBFCDBF00E00CBF47
:1002600012E0A0E0B2E0E4EFF5E100E00BBF02C075
:1002700007900D92A631B107D9F723E0A6E1B2E0CD
:1002800001C01D92A635B207E1F711E0C8E2D1E046
:1002900000E006C021970109802FFE010E94F00AAC
:1002A000C732D10780E00807A9F70E9458060C94CE
:1002B000F80A0C940000E0915303E03388F5409174
:1002C000540328E830E0241B310947FD3395220F01
:1002D000331F220F331F8217930784F04091550379
:1002E00028E532E0241B310947FD3395220F331FE7
:1002F000220F331F821793070CF49C0122503109FF
:10030000220F331F4FB7F8948E2F90E0FC01EE0FB1
:10031000FF1FE80FF91FEE53FD4F328321834FBFBC
:100320000895AF92BF92CF92DF92EF92FF920F9318
:100330001F93CF93DF936C017B018B01040F151F7B
:10034000EB015E01AE18BF08C017D10759F06991E3
:10035000D601ED91FC910190F081E02DC601199537
:10036000892B79F7C501DF91CF911F910F91FF90F4
:10037000EF90DF90CF90BF90AF900895FC01538D28
:10038000448D252F30E0842F90E0821B930B54176F
:1003900010F0CF96089501970895FC01918D828DFC
:1003A000981761F0A28DAE0FBF2FB11D5D968C9195
:1003B000928D9F5F9F73928F90E008958FEF9FEFD4
:1003C0000895FC01918D828D981731F0828DE80F90
:1003D000F11D858D90E008958FEF9FEF08952FB761
:1003E000F8948091210290912202A0912302B09171
:1003F00024022FBF80932D0290932E02A0932F02F0
:10040000B093300285E292E00E94E10197FF26C09E
:100410002FB7F8948091210290912202A09123029B
:10042000B09124022FBF40912D0250912E02609175
:100430002F0270913002841B950BA60BB70B4091D5
:10044000290250912A0260912B0270912C0284178C
:100450009507A607B707B0F28FEF9FEF0895FC014D
:10046000918D228D892F90E0805C9F4F821B910996
:100470008F739927089585E292E00E942F0221E070
:10048000892B09F420E0822F0895FC01A48DA80F88
:10049000B92FB11DA35ABF4F2C91848D90E00196C6
:1004A0008F739927848FA689B7892C93A089B189E6
:1004B0008C91837080648C93938D848D981306C087
:1004C0000288F389E02D80818F7D80830895EF92EB
:1004D000FF920F931F93CF93DF93EC0181E0888FFE
:1004E0009B8D8C8D98131AC0E889F989808185FFCE
:1004F00015C09FB7F894EE89FF896083E889F98970
:1005000080818370806480839FBF81E090E0DF9171
:10051000CF911F910F91FF90EF900895F62E0B8DC4
:1005200010E00F5F1F4F0F731127E02E8C8D8E117F
:100530000CC00FB607FCFACFE889F989808185FFE6
:10054000F5CFCE010E944502F1CFEB8DEC0FFD2FD0
:10055000F11DE35AFF4FF0829FB7F8940B8FEA89A1
:10056000FB8980818062CFCFCF93DF93EC01888DB0
:100570008823B9F0AA89BB89E889F9898C9185FD1E
:1005800003C0808186FD0DC00FB607FCF7CF8C91AC
:1005900085FFF2CF808185FFEDCFCE010E9445021D
:1005A000E9CFDF91CF91089580E090E0892B29F089
:1005B0000E943B0281110E94000080E090E0892BA4
:1005C00049F080E090E0892B29F00E940000811121
:1005D0000E94000080E090E0892B49F080E090E0EC
:1005E000892B29F00E94000081110E94000080E008
:1005F00090E0892B49F080E090E0892B29F00E945F
:10060000000081110C9400000895282F30E0F901BA
:10061000E85BFE4F9491F901E85FFD4F44912E5342
:100620003E4FF9012491222309F435C0992311F199
:1006300091509231F8F4E92FF0E08827ED5DFC4FFE
:100640008F4F0C94F00A5403580335034C035003A6
:100650003A035B03610365036B036F037303790361
:100660007D033A03810387038B03809180008F779A
:1006700080938000E22FF0E0EE0FFF1FE257FE4F65
:10068000A591B4918FB7F894EC91611148C0409551
:100690004E234C938FBF0895809180008F7DE8CFCB
:1006A00080918000877FE4CF84B58F7784BDE2CFCF
:1006B00084B58F7DFBCF8091B0008F778093B000A1
:1006C000D9CF8091B0008F7DF9CF809190008F7746
:1006D00080939000CFCF809190008F7DF9CF809153
:1006E0009000877FF5CF8091A0008F778093A00046
:1006F000C1CF8091A0008F7DF9CF8091A000877F2E
:10070000F5CF809120018F7780932001B3CF809126
:1007100020018F7DF9CF80912001877FF5CF4E2B6F
:10072000B8CFAF92BF92CF92DF92EF92FF920F932A
:100730001F93CF93DF936B017A01EC01CA5EDD4F0B
:1007400028813CE0389F8001399F100D1124A09032
:100750005203B12C27FF1FC0FB0111821082888138
:100760008F5F888388819801280F311D87FD3A9516
:10077000F6012A153B051CF488818C30C4F1808178
:100780009181049680349C4908F473C0F6018081FD
:100790009181049670C088819801280F311D87FDD2
:1007A0003A952A153B05DCF68881A801480F511DB2
:1007B00087FD5A95FA01EE0FFF1FE40FF51FEE5368
:1007C000FD4F808186FFCBCF8881F801E80FF11DB6
:1007D00087FDFA95CF01EE0FFF1FE80FF91FEE53CB
:1007E000FD4F808160E08F730E940503B8CF808148
:1007F00091812881A801420F511D27FD5A959A0128
:10080000FA01EE0FFF1FE20FF31FEE53FD4F2181A0
:100810003281820F931FF701918380838881980131
:10082000280F311D87FD3A95F901EE0FFF1FE20FEA
:10083000F31FEE53FD4F808186FF22C08881080F91
:10084000111D87FD1A95F801EE0FFF1FE00FF11F34
:10085000EE53FD4F808161E08F73DF91CF911F9147
:100860000F91FF90EF90DF90CF90BF90AF900C94DE
:10087000050380E49CE9F701918380838FEF8883EF
:10088000DF91CF911F910F91FF90EF90DF90CF906C
:10089000BF90AF9008958F929F92AF92BF920F93A7
:1008A0001F93CF93DF93CDB7DEB7A1970FB6F89420
:1008B000DEBF0FBECDBF19A2423008F44AE08E0160
:1008C0000F5D1F4F842E912CB12CA12CA5019401FA
:1008D0000E949E09E62FB901CA01EA3044F5E05DA5
:1008E000D801EE938D01232B242B252B79F790E053
:1008F00080E0109769F0FD0101900020E9F7319741
:10090000AF014A1B5B0BBD0185E292E00E949101A1
:10091000A1960FB6F894DEBF0FBECDBFDF91CF9189
:100920001F910F91BF90AF909F908F900895E95CB9
:10093000D7CF1F920F920FB60F9211242F933F9390
:100940008F939F93AF93BF93809121029091220246
:10095000A0912302B09124023091200223E0230FC2
:100960002D3758F50196A11DB11D209320028093CB
:10097000210290932202A0932302B093240280913B
:100980001C0290911D02A0911E02B0911F020196BF
:10099000A11DB11D80931C0290931D02A0931E0205
:1009A000B0931F02BF91AF919F918F913F912F9173
:1009B0000F900FBE0F901F90189526E8230F0296F8
:1009C000A11DB11DD2CF1F920F920FB60F9211240D
:1009D0000BB60F922F933F934F935F936F937F9339
:1009E0008F939F93AF93BF93EF93FF9385E292E032
:1009F0000E944502FF91EF91BF91AF919F918F911E
:100A00007F916F915F914F913F912F910F900BBE0E
:100A10000F900FBE0F901F9018951F920F920FB658
:100A20000F9211240BB60F922F938F939F93EF93F6
:100A3000FF93E0913502F09136028081E0913B0214
:100A4000F0913C0282FD1DC0908180913E028F5F3B
:100A50008F7320913F02821741F0E0913E02F0E057
:100A6000EB5DFD4F958F80933E02FF91EF919F913B
:100A70008F912F910F900BBE0F900FBE0F901F9074
:100A800018958081F2CF1F920F920FB60F9211240A
:100A90000BB60F922F933F934F935F936F937F9378
:100AA0008F939F93AF93BF93EF93FF9348E251E0EF
:100AB00064E271E090E080E00E949103FF91EF9189
:100AC000BF91AF919F918F917F916F915F914F9166
:100AD0003F912F910F900BBE0F900FBE0F901F9064
:100AE00018951F920F920FB60F9211240BB60F920A
:100AF0002F933F934F935F936F937F938F939F9326
:100B0000AF93BF93EF93FF9348EA50E064EA70E03D
:100B100083E090E00E949103FF91EF91BF91AF912C
:100B20009F918F917F916F915F914F913F912F9105
:100B30000F900BBE0F900FBE0F901F9018951F9235
:100B40000F920FB60F9211240BB60F922F933F9373
:100B50004F935F936F937F938F939F93AF93BF93C5
:100B6000EF93FF9348E950E064E970E082E090E0A1
:100B70000E949103FF91EF91BF91AF919F918F914F
:100B80007F916F915F914F913F912F910F900BBE8D
:100B90000F900FBE0F901F9018951F920F920FB6D7
:100BA0000F9211240BB60F922F933F934F935F93A5
:100BB0006F937F938F939F93AF93BF93EF93FF9325
:100BC00048E850E064E870E081E090E00E94910322
:100BD000FF91EF91BF91AF919F918F917F916F9115
:100BE0005F914F913F912F910F900BBE0F900FBED1
:100BF0000F901F901895109228021092270288EEED
:100C000093E0A0E0B0E08093290290932A02A093A1
:100C10002B02B0932C0284E092E090932602809302
:100C2000250285EC90E0909332028093310284ECAF
:100C300090E0909334028093330280EC90E09093A4
:100C400036028093350281EC90E0909338028093D5
:100C5000370282EC90E090933A028093390286EC5E
:100C600090E090933C0280933B0210923E021092DF
:100C70003F02109240021092410280915203803351
:100C800098F491E0980F909352038093530390E06F
:100C9000FC01EE0FFF1FE80FF91FEE53FD4F88EB2D
:100CA0009BE09283818308958FEF8093530308958F
:100CB000789484B5826084BD84B5816084BD85B537
:100CC000826085BD85B5816085BD80916E00816043
:100CD00080936E00109281008091810082608093E9
:100CE00081008091810081608093810080918000EB
:100CF0008160809380008091B10084608093B10016
:100D00008091B00081608093B000809191008260FA
:100D100080939100809191008160809391008091F7
:100D200090008160809390008091A1008260809308
:100D3000A1008091A10081608093A1008091A0001A
:100D400081608093A00080912101826080932101C5
:100D50008091210181608093210180912001816037
:100D60008093200180917A00846080937A00809142
:100D70007A00826080937A0080917A00816080930B
:100D80007A0080917A00806880937A001092C10086
:100D9000E0913502F091360282E08083E0913102E9
:100DA000F09132021082E0913302F09134028FEC24
:100DB000808310923D02E0913902F0913A0286E080
:100DC0008083E0913702F0913802808180618083D6
:100DD000E0913702F0913802808188608083E09151
:100DE0003702F0913802808180688083E091370279
:100DF000F091380280818F7D80838091530380330E
:100E000008F069C0EAE0F2E02491E4ECF1E08491BA
:100E1000882399F090E0880F991FFC01E855FE4F58
:100E2000A591B491FC01E257FE4F859194918FB743
:100E3000F894EC91E22BEC938FBF80915303282F11
:100E400030E0F901EE0FFF1FE20FF31FEE53FD4FED
:100E50009081907C9260908310925403109255037D
:100E60002CE0622F0E94E40A829FB001112430E03E
:100E700020E0AB01420F531FFA01EE0FFF1FE40FFA
:100E8000F51FEE53FD4F908196FD17C02F5F3F4F2A
:100E90002C30310571F7813009F0D6C010928000F6
:100EA00082E0809381001092850010928400B19AB4
:100EB00080916F00826080936F00E09153038E2FCA
:100EC00090E0FC01EE0FFF1FE80FF91FEE53FD4FFE
:100ED00080818064808385E292E00E942F02181650
:100EE00019060CF0AEC00E94EF01FC0197FDDFC0B7
:100EF0008D32910521F0C0970A9708F0D1C0C12C1E
:100F0000D12C7601C0E0E130F105D9F0ED32F105E8
:100F100009F4CBC0CF01C0970A9798F4AAE0B0E0DB
:100F2000A70196010E9493096F01FF0FEE08FF08C9
:100F3000C60ED71EE81EF91E80E3C81AD108E108C4
:100F4000F10885E292E00E94CD010E94EF01FC01D0
:100F5000C0970A97C0F2E130F105A9F2CC2341F025
:100F6000F094E094D094C094C11CD11CE11CF11CFD
:100F7000B601D0921B02C0921A021C141D040CF080
:100F800060C0809153030D2C000CEE08FF08653BF8
:100F900071050CF490C0D0E0C0E08F3FD1F090E03C
:100FA000FC01EE0FFF1FE80FF91FEE53FD4F81818B
:100FB0009281E3E0880F991FEA95E1F7B0E0A0E0A5
:100FC000F4E0B595A79597958795FA95D1F7EC013B
:100FD0002296645B7109072E000C880B990B0E9406
:100FE0009A0820E030E044EB53E40E943C0A20E001
:100FF00030E04AE754E40E94D5084B015C01BE0191
:10100000DD0F880B990B0E949A089B01AC01C5016A
:10101000B4010E94D0090E94AE0ACB010E945B017C
:101020004AE0C701B6010E944B0442E050E062E191
:1010300072E085E292E00E94910110921B021092F0
:101040001A020E94D40247CF823061F410929000BD
:1010500080939100109295001092940088BB809329
:1010600071002BCF833069F41092A00082E080934E
:10107000A1001092A5001092A40089BB8093720079
:101080001CCF81111ACF1092200182E080932101A0
:1010900010922501109224018ABB809373000DCF1A
:1010A00085E292E00E94CD011ECFC1E04ACFC12C63
:1010B000D12C76015DCF8F3FC1F190E0FC01EE0FA6
:1010C000FF1FE80FF91FEE53FD4F8181928133E03E
:1010D000880F991F3A95E1F7B0E0A0E044E0B5959C
:1010E000A795979587954A95D1F70296BC01990FD8
:1010F000880B990B0E949A084B015C01C701B6014D
:101100000E949A0820E030E044EB53E40E943C0A3D
:1011100020E030E04AE754E40E94D5089B01AC018E
:10112000C501B4010E94CF0976CF90E080E0DECF08
:10113000E89409C097FB3EF4909580957095619571
:101140007F4F8F4F9F4F9923A9F0F92F96E9BB2727
:101150009395F695879577956795B795F111F8CFA3
:10116000FAF4BB0F11F460FF1BC06F5F7F4F8F4F0E
:101170009F4F16C0882311F096E911C0772321F004
:101180009EE8872F762F05C0662371F096E8862F9C
:1011900070E060E02AF09A95660F771F881FDAF7F3
:1011A000880F9695879597F908950E94E8080C9402
:1011B00059090E944B0938F00E94520920F09523EA
:1011C00011F00C9442090C94480911240C948D09D7
:1011D0000E946A0970F3959FC1F3950F50E0551F67
:1011E000629FF001729FBB27F00DB11D639FAA277C
:1011F000F00DB11DAA1F649F6627B00DA11D661FCB
:10120000829F2227B00DA11D621F739FB00DA11DEB
:10121000621F839FA00D611D221F749F3327A00DA5
:10122000611D231F849F600D211D822F762F6A2F41
:1012300011249F5750409AF0F1F088234AF0EE0FA6
:10124000FF1FBB1F661F771F881F91505040A9F7D3
:101250009E3F510580F00C9442090C948D095F3F2C
:10126000E4F3983ED4F3869577956795B795F7950F
:10127000E7959F5FC1F7FE2B880F911D9695879587
:1012800097F9089597F99F6780E870E060E0089506
:101290009FEF80EC089500240A941616170618068E
:1012A0000906089500240A9412161306140605066A
:1012B0000895092E0394000C11F4882352F0BB0FFB
:1012C00040F4BF2B11F460FF04C06F5F7F4F8F4F5E
:1012D0009F4F089557FD9058440F551F59F05F3F99
:1012E00071F04795880F97FB991F61F09F3F79F048
:1012F00087950895121613061406551FF2CF4695CA
:10130000F1DF08C0161617061806991FF1CF86954B
:101310007105610508940895E894BB27662777272F
:10132000CB0197F908950E94C009A59F900DB49F25
:10133000900DA49F800D911D11240895A1E21A2EF5
:10134000AA1BBB1BFD010DC0AA1FBB1FEE1FFF1F69
:10135000A217B307E407F50720F0A21BB30BE40BB9
:10136000F50B661F771F881F991F1A9469F7609500
:101370007095809590959B01AC01BD01CF010895BA
:10138000A29FB001B39FC001A39F700D811D1124C6
:10139000911DB29F700D811D1124911D089550580B
:1013A000BB27AA270E94E7090C9459090E944B0900
:1013B00038F00E94520920F039F49F3F19F426F4C6
:1013C0000C9448090EF4E095E7FB0C944209E92FD0
:1013D0000E946A0958F3BA176207730784079507D2
:1013E00020F079F4A6F50C948C090EF4E0950B2E00
:1013F000BA2FA02D0B01B90190010C01CA01A00167
:101400001124FF27591B99F0593F50F4503E68F1C1
:101410001A16F040A22F232F342F4427585FF3CF02
:10142000469537952795A795F0405395C9F77EF4D3
:101430001F16BA0B620B730B840BBAF09150A1F01C
:10144000FF0FBB1F661F771F881FC2F70EC0BA0FA2
:10145000621F731F841F48F4879577956795B7952A
:10146000F7959E3F08F0B0CF9395880F08F0992725
:10147000EE0F9795879508950E94500A0C9459098C
:101480000E94520958F00E944B0940F029F45F3F36
:1014900029F00C94420951110C948D090C944809BF
:1014A0000E946A0968F39923B1F3552391F3951BC0
:1014B000550BBB27AA2762177307840738F09F5F75
:1014C0005F4F220F331F441FAA1FA9F335D00E2EE2
:1014D0003AF0E0E832D091505040E695001CCAF74F
:1014E0002BD0FE2F29D0660F771F881FBB1F261712
:1014F00037074807AB07B0E809F0BB0B802DBF01E9
:10150000FF2793585F4F3AF09E3F510578F00C94B7
:1015100042090C948D095F3FE4F3983ED4F386951D
:1015200077956795B795F7959F5FC9F7880F911DD8
:101530009695879597F90895E1E0660F771F881FC4
:10154000BB1F621773078407BA0720F0621B730B77
:10155000840BBA0BEE1F88F7E09508950E94B50A38
:101560006894B1110C948D0908950E94720988F055
:101570009F5798F0B92F9927B751B0F0E1F0660F57
:10158000771F881F991F1AF0BA95C9F714C0B13098
:1015900091F00E948C09B1E008950C948C09672F9A
:1015A000782F8827B85F39F0B93FCCF386957795C7
:1015B0006795B395D9F73EF49095809570956195B0
:1015C0007F4F8F4F9F4F0895991B79E004C0991F5B
:1015D000961708F0961B881F7A95C9F7809508958D
:1015E000EE0FFF1F881F8BBF0790F691E02D199417
:0415F000F894FFCF9D
:1015F4000000000067029101BE01B4022F02CD0178
:06160400E1010D0A0000E7
:00000001FF
