:100000000C9441010C9472010C9472010C947201D5
:100010000C9472010C9472010C9472010C94720194
:100020000C9472010C9472010C9472010C94720184
:100030000C9472010C9472010C9472010C94720174
:100040000C9472010C9472010C9472010C94720164
:100050000C9472010C9472010C9472010C9482063F
:100060000C9472010C944C060C9422060C947201B0
:100070000C9472010C9472010C9472010C94720134
:100080000C9472010C9472010C9472010C94720124
:100090000C9472010C9472010C9472010C94720114
:1000A0000C9472010C9472010C9472010C94720104
:1000B0000C9472010C9472010C9472010C947201F4
:1000C0000C9472010C9472010C9472010C947201E4
:1000D0000C9472010C9472010C9472010C947201D4
:1000E0000C9472010C9441040C94CC060C946C0397
:1000F0000C9401040C9495030C9479030C949103D3
:100100000C9499030C9465020C9434020C944504ED
:100110000C9487030C94EF020C945E030C9457022A
:100120000C94D0030C9473030C949F030C949D02C5
:100130000C9468030C948B030C94D2050C948303E9
:100140000C9464030C94A3030C949E030C94070278
:100150000C947D030C9443020C9470030C9446049D
:1001600000002100240027002A002D003000330069
:1001700001010000040107010A010000220025001E
:1001800028002B002E003100340002010000050180
:1001900008010B01000020002300260029002C008C
:1001A0002F003200000100000301060109010505CE
:1001B0000505070508080808020202020A0A0808DD
:1001C000040404040101010101010101030303030B
:1001D00003030303040707070C0C0C0C0C0C0C0C9A
:1001E0000202020206060606060606060B0B0B0BAB
:1001F0000B0B0B0B010210202008081020401020D0
:1002000040800201020108040201010204081020DA
:1002100040808040201008040201800402018040D8
:100220002010080402010804020101020408102041
:100230004080010204081020408000000A0B0209DF
:100240000C0D0E0807030401000000000000000070
:10025000000000000000000000000000000000009E
:10026000000000000000121110000000000000005B
:10027000000000000000000000000000000000007E
:10028000CC0611241FBECFEFD1E2DEBFCDBF00E010
:100290000CBF12E0A0E0B2E0ECE1F5E100E00BBF42
:1002A00002C007900D92AA35B107D9F723E0AAE55D
:1002B000B2E001C01D92A039B207E1F711E0C1E43C
:1002C000D1E000E006C021970109802FFE010E94C5
:1002D000700AC034D10780E00807A9F70E9485079B
:1002E0000C948C0A0C94000096E0899FD001112494
:1002F000AF5DBC4F90967C936E935F9791E0919623
:100300009C939197E0918E03F0918F0390918D03D0
:10031000992339F0309751F0811108C080913D0345
:100320001994309719F05C968C91FACF0895CF927A
:10033000DF92EF92FF920F931F9396E0899FF00157
:100340001124EF5DFC4F11A2278D30A12130310522
:1003500051F178F02230310509F451C023303105D4
:1003600009F452C01F910F91FF90EF90DF90CF9052
:1003700008956623B9F361E070E00E9474012FB71D
:10038000F8948091680290916902A0916A02B091FC
:100390006B022FBF8093790390937A03A0937B0322
:1003A000B0937C03DFCF9FB7F894C0906802D090E1
:1003B0006902E0906A02F0906B029FBF009179039E
:1003C00010917A0320917B0330917C03C01AD10AEB
:1003D000E20AF30A00918B0310918C0330E020E0D5
:1003E0000C151D052E053F0550F462E070E01F91CD
:1003F0000F91FF90EF90DF90CF900C9474016111FA
:10040000B1CF63E070E0F3CF70E060E0F0CFAF9287
:10041000BF92CF92DF92EF92FF920F931F93CF93F1
:10042000DF936C017B018B01040F151FEB015E0153
:10043000AE18BF08C017D10759F06991D601ED91E8
:10044000FC910190F081E02DC6011995892B79F777
:10045000C501DF91CF911F910F91FF90EF90DF9039
:10046000CF90BF90AF900895FC01538D448D252F00
:1004700030E0842F90E0821B930B541710F0CF963E
:10048000089501970895FC01918D828D981761F070
:10049000A28DAE0FBF2FB11D5D968C91928D9F5F87
:1004A0009F73928F90E008958FEF9FEF0895FC0166
:1004B000918D828D981731F0828DE80FF11D858D19
:1004C00090E008958FEF9FEF0895FC01918D228DAC
:1004D000892F90E0805C9F4F821B91098F73992731
:1004E00008958CE692E00E94650221E0892B09F4D0
:1004F00020E0822F0895FC01A48DA80FB92FB11D13
:10050000A35ABF4F2C91848D90E001968F73992749
:10051000848FA689B7892C93A089B1898C91837027
:1005200080648C93938D848D981306C00288F38920
:10053000E02D80818F7D80830895EF92FF920F934D
:100540001F93CF93DF93EC0181E0888F9B8D8C8D7F
:1005500098131AC0E889F989808185FF15C09FB773
:10056000F894EE89FF896083E889F9898081837036
:10057000806480839FBF81E090E0DF91CF911F91E5
:100580000F91FF90EF900895F62E0B8D10E00F5F06
:100590001F4F0F731127E02E8C8D8E110CC00FB6DC
:1005A00007FCFACFE889F989808185FFF5CFCE0174
:1005B0000E947B02F1CFEB8DEC0FFD2FF11DE35A72
:1005C000FF4FF0829FB7F8940B8FEA89FB898081F7
:1005D0008062CFCF682F8CE692E00C949D02CF937F
:1005E000DF93EC01888D8823B9F0AA89BB89E8895B
:1005F000F9898C9185FD03C0808186FD0DC00FB601
:1006000007FCF7CF8C9185FFF2CF808185FFEDCF7E
:10061000CE010E947B02E9CFDF91CF91089580E067
:1006200090E0892B29F00E94710281110E94000044
:1006300080E090E0892B49F080E090E0892B29F060
:100640000E94000081110E94000080E090E0892B50
:1006500049F080E090E0892B29F00E940000811190
:100660000E94000080E090E0892B49F080E090E05B
:10067000892B29F00E94000081110C94000008953C
:100680008150823108F05AC0E82FF0E08827E45BFF
:10069000FC4F8F4F0C94700A6C0370035E0364036D
:1006A00068039E03730379037D03830387038B032E
:1006B000910395039E0399039F03A30380918000F8
:1006C0008F77809380000895809180008F7DF9CF8F
:1006D00080918000877FF5CF84B58F7784BD0895A2
:1006E00084B58F7DFBCF8091B0008F778093B00071
:1006F00008958091B0008F7DF9CF809190008F7721
:10070000809390000895809190008F7DF9CF809123
:100710009000877FF5CF8091A0008F778093A00015
:1007200008958091A0008F7DF9CF8091A000877FF0
:10073000F5CF809120018F778093200108958091DB
:1007400020018F7DF9CF80912001877FF5CFCF9356
:10075000DF93282F30E0F901E65CFD4F8491F90129
:10076000EC50FE4FD491F901E255FE4FC491CC23D9
:10077000A1F081110E944003EC2FF0E0EE0FFF1F6B
:10078000EC56FE4FA591B491EC91ED2381E090E001
:1007900009F480E0DF91CF91089580E090E0FACFF6
:1007A000862F0C94A7031F93CF93DF93282F30E05D
:1007B000F901E65CFD4F8491F901EC50FE4FD491B4
:1007C000F901E255FE4FC491CC23A9F0162F8111F7
:1007D0000E944003EC2FF0E0EE0FFF1FE658FE4FA3
:1007E000A591B4918FB7F894EC91111108C0D095F0
:1007F000DE23DC938FBFDF91CF911F910895DE2B15
:10080000F8CF862F642F0C94D303CF93DF9390E01F
:10081000FC01EC50FE4F249182559E4FFC018491C7
:100820008823C9F090E0880F991FFC01E05AFE4F21
:10083000A591B491FC01E658FE4FC591D491611188
:100840000DC09FB7F8948C91209582238C9388815A
:10085000282328839FBFDF91CF910895623051F400
:100860009FB7F8943C91822F809583238C93E881E5
:100870002E2BEFCF8FB7F894EC912E2B2C938FBFAC
:10088000EACF862F642F0C940504089590E080E051
:100890000895FC0101900020E9F73197AF01481B52
:1008A000590BBC0189E093E00C940702CF93DF93CE
:1008B000EC0160E08E810E94D30361E08E810E9492
:1008C000D30360E08E810E94D3038BE891E001970F
:1008D000F1F7DF91CF910895CF92DF92EF92FF92DF
:1008E0000F931F93CF93DF936C017C0187E0E80E99
:1008F000F11CD0E0C0E0062F10E0B8010C2E02C0C1
:10090000759567950A94E2F76170F70181917F010F
:100910000E94D3032196C430D10579F7C601DF9137
:10092000CF911F910F91FF90EF90DF90CF900C949B
:100930005604CF92DF92EF92FF920F931F93CF93C3
:10094000DF93EC01F62E642F8C810E94D3038D81FE
:100950008F3F19F060E00E94D3030F2D10E08F85C8
:1009600084FF25C06E0187E0C80ED11CF12CE12C5C
:10097000B8010E2C02C0759567950A94E2F7617074
:10098000F60181916F010E94D303FFEFEF1AFF0A76
:1009900088E0E816F10461F7CE01DF91CF911F9155
:1009A0000F91FF90EF90DF90CF900C945604B80118
:1009B00084E0759567958A95E1F7CE010E946C04F5
:1009C0006F2DCE01DF91CF911F910F91FF90EF908E
:1009D000DF90CF900C946C0440E0682F89E093E0A6
:1009E0000C94990481E00E94EC048BE39FE1019751
:1009F000F1F70895CF93DF93813029F09091180398
:100A000098609093180380931C0310921D0380E458
:100A100080931E0380E180931F0380E58093200371
:100A200061E080910D030E94050480910E038F3FC9
:100A300019F061E00E94050461E080910F030E94BB
:100A40000504C9E0D3E09E0129503340809118038A
:100A500084FD0BC084E090E021962817390744F408
:100A600061E08E810E940504EECF88E090E0F4CF33
:100A70008BE39DE00197F1F760E080910D030E9408
:100A8000D30360E080910F030E94D30380910E0393
:100A90008F3F19F060E00E94D3038091180384FD1A
:100AA00034C063E089E093E00E946C04CBE4D6E4B8
:100AB000CE010197F1F763E089E093E00E946C04B6
:100AC0002197F1F763E089E093E00E946C0483E5ED
:100AD00092E00197F1F762E089E093E00E946C04F4
:100AE0008091180380620E94EC0484E080931903D3
:100AF0008CE00E94EC040E94F20482E080931A03CE
:100B000086E0DF91CF910C94EC0480620E94EC04AB
:100B10008BE496E40197F1F78091180380620E94BC
:100B2000EC0483E592E00197F1F78091180380626D
:100B30000E94EC04D5CF643008F063E090911C0370
:100B4000691710F06FEF690FE62FF0E0E75FFC4FD9
:100B50009489890F80680C94EC04CF93C82F60E0CF
:100B600089E00E949B05C53649F48CE392E00E941F
:100B7000490485E690E0CF910C94EA02C83739F435
:100B800082E492E00E94490488E790E0F4CFCF36F7
:100B900039F488E492E00E9449048FE690E0EBCFBC
:100BA000CF91089541E00E94990481E090E008957A
:100BB000AF92BF92CF92DF92EF92FF920F931F936B
:100BC000CF93DF930E94F20460E080E00E949B05D7
:100BD0008EE492E00E9449048FE5C82E82E0D82E70
:100BE000D0E0C0E006E010E0EE24E394F12C23E036
:100BF000A22EB12C6E2D802F0E949B05F6016191D3
:100C00006F0189E093E00E94D2050F5F1F4F21968C
:100C1000C930D10559F4DF91CF911F910F91FF9009
:100C2000EF90DF90CF90BF90AF900895CE01B501C7
:100C30000E945C0A892BF1F68FEFE81AF80A06E0A9
:100C400010E0D8CF1F920F920FB60F9211240BB65F
:100C50000F922F933F934F935F936F937F938F9355
:100C60009F93AF93BF93EF93FF938CE692E00E9424
:100C70007B02FF91EF91BF91AF919F918F917F91F7
:100C80006F915F914F913F912F910F900BBE0F90FD
:100C90000FBE0F901F9018951F920F920FB60F92D4
:100CA00011240BB60F922F938F939F93EF93FF9383
:100CB000E0917C02F0917D028081E0918202F091CE
:100CC000830282FD1DC09081809185028F5F8F73AA
:100CD00020918602821741F0E0918502F0E0E4590C
:100CE000FD4F958F80938502FF91EF919F918F919A
:100CF0002F910F900BBE0F900FBE0F901F90189565
:100D00008081F2CF1F920F920FB60F9211242F9372
:100D10003F938F939F93AF93BF938091680290917D
:100D20006902A0916A02B0916B0230915E0223E0E9
:100D3000230F2D3758F50196A11DB11D20935E029A
:100D40008093680290936902A0936A02B0936B0249
:100D500080915A0290915B02A0915C02B0915D0279
:100D60000196A11DB11D80935A0290935B02A0933E
:100D70005C02B0935D02BF91AF919F918F913F91C3
:100D80002F910F900FBE0F901F90189526E8230FFC
:100D90000296A11DB11DD2CF10926F0210926E0269
:100DA00088EE93E0A0E0B0E080937002909371022F
:100DB000A0937202B093730288E192E090936D0267
:100DC00080936C0285EC90E0909379028093780296
:100DD00084EC90E090937B0280937A0280EC90E028
:100DE00090937D0280937C0281EC90E090937F024F
:100DF00080937E0282EC90E0909381028093800247
:100E000086EC90E090938302809382021092850298
:100E10001092860210928702109288021092230389
:100E200010922703109226031092280386E392E083
:100E30009093220380932103EDE3F3E01082148268
:100E400013821582369683E0E937F807B9F784E014
:100E500092E0909384038093830381E092E09093E7
:100E600086038093850384E08093870383E08093E7
:100E7000880388E092E090938203809381038AE064
:100E800090E090938A038093890384EF91E090939C
:100E90008C0380938B0310928F0310928E03109219
:100EA0007D0310927E0310927F03109280031092B4
:100EB0008D0310920C0310920B038AE292E0909340
:100EC0000A03809309038DE080930D038FEF8093D5
:100ED0000E038CE080930F038BE0809310038AE075
:100EE0008093110389E08093120388E080931303B9
:100EF0001092140310921503109216031092170308
:100F00001092180381E00C94FA04789484B58260FE
:100F100084BD84B5816084BD85B5826085BD85B59D
:100F2000816085BD80916E00816080936E0010921B
:100F30008100809181008260809381008091810096
:100F40008160809381008091800081608093800027
:100F50008091B10084608093B1008091B000816085
:100F60008093B00080919100826080939100809185
:100F700091008160809391008091900081608093C6
:100F800090008091A10082608093A1008091A100D7
:100F900081608093A1008091A00081608093A00077
:100FA00080912101826080932101809121018160E3
:100FB00080932101809120018160809320018091A4
:100FC0007A00846080937A0080917A0082608093B6
:100FD0007A0080917A00816080937A0080917A0013
:100FE000806880937A001092C100E0917C02F091B9
:100FF0007D0282E08083E0917802F0917902108294
:10100000E0917A02F0917B028FEC8083109284024F
:10101000E0918002F091810286E08083E0917E027F
:10102000F0917F02808180618083E0917E02F09167
:101030007F02808188608083E0917E02F0917F0250
:10104000808180688083E0917E02F0917F028081C0
:101050008F7D808384E00E94FA040E94F204EFE511
:10106000F2E08FE5819352E0E836F507D9F70E9468
:10107000D805812C912C540183944DE5442E43E0F6
:10108000542E66246A94762C8CE692E00E946502C7
:10109000892B59F08CE692E00E944302853609F0D4
:1010A00040C0109200020E94AD058091000288238A
:1010B00009F4FAC181E080938D038FB7F8944091D1
:1010C00068025091690260916A0270916B028FBF51
:1010D00080917D0390917E03A0917F03B091800366
:1010E000481B590B6A0B7B0B8091890390918A03F3
:1010F000B0E0A0E084179507A607B70708F0D2C1B3
:10110000C0E080918703C81718F5E0918303F09140
:101110008403EC0FF11D62E080810E940504CF5F23
:10112000F0CF883709F4BDCF8F3609F4BACF91E0FC
:1011300090930002E82F880FFF0BE25DFD4F808146
:101140008F3509F0B7CF5FE650830E94D805ADCF49
:10115000312C80918803381608F05FC0032D10E011
:10116000E0918503F0918603E00FF11F61E080813B
:101170000E940504E0918503F0918603E00FF11FC2
:1011800060E080810E94D303D501C401032C04C018
:10119000880F991FAA1FBB1F0A94D2F76C017C010C
:1011A000E094F094212C809187032816F8F4C22D46
:1011B000D0E0E0918303F0918403EC0FFD1F808168
:1011C0000E94A7032496CC0FDD1FCF5DDC4F892B37
:1011D00041F4888199818C299D299983888323945E
:1011E000E2CF888199818E219F21F7CFE0918503FD
:1011F000F0918603E00FF11F61E080810E94D3032C
:101200008091850390918603080F191F60E0F80113
:1012100080810E94050433949CCF91E2E92E93E0F3
:10122000F92EE7018F8D98A1892B21F41C8E7E8EDB
:101230006D8E19A226964C165D06A1F7D12C8091D1
:101240008703D81608F051C0C12C0D2D10E0000FF7
:10125000111F075D1C4F20918803C21608F043C080
:10126000F801608171810C2C02C0769567950A9413
:10127000E2F7D29E900111242C0D311DE1E2F3E042
:1012800080E0458D568D2417350709F410C18F5F16
:1012900036968A30B1F760FF24C0E1E2F3E090E0D7
:1012A00080E0448D411118C0E0918103F0918203E8
:1012B000E20FF31F408156E0589FF001599FF00D57
:1012C0001124EF5DFC4F448F368F258F10A2178EAF
:1012D00061E00E94970105C0019636968A3091051B
:1012E00001F7C394B8CFD394AACF80E0F70191A1BE
:1012F0009111892FF6E0EF0EF11CEC16FD06B1F707
:101300009FB7F894409168025091690260916A0217
:1013100070916B029FBF40937D0350937E03609357
:101320007F0370938003882309F4BCC010914203AB
:10133000112309F4B7C080914003909141030197B4
:1013400009F0B0C0C0913D03C9300CF4ADC00C2E03
:10135000000CDD0BFE01E25DFD4F80818F3521F435
:1013600058E750830E94D80510920002CE010E94D7
:10137000EA0230915F02509160023F3559F05F35CB
:1013800049F0809161028F3529F0531303C0212F5A
:10139000581711F020E08FE3709162029091630280
:1013A000609164027F3551F09F3541F06F3531F027
:1013B000971304C0961302C0212F892F4091650214
:1013C0004F3571F0F0916602FF3551F0E091670200
:1013D000EF3531F04F1304C04E1302C0212F842F7C
:1013E0003F3551F07F3541F04F3531F0371304C0B0
:1013F000341302C0212F832F5F3561F09F3551F0E8
:10140000E0916602EF3531F0591304C05E1302C05B
:10141000212F852F6F3571F0E0916702EF3551F084
:10142000F0916102FF3531F06F1304C06E1302C0FA
:10143000212F862F3F35E9F19F35C1F0E0916702FA
:10144000EF3531F0931304C09E1302C0212F892F72
:101450004F3551F0E0916102EF3531F09E1304C039
:10146000941302C0212F892F3F35C9F05F35B9F0A1
:10147000309161023F3599F07F3589F09F3579F0E1
:101480006F3569F04F3559F0909166029F3539F00C
:10149000909167029F3519F0211101C085E60E94E5
:1014A000AD0502C010928D030E940F03EDCD617057
:1014B00010CF9F3569F6F3CF97FB072E16F40094F3
:1014C00007D077FD09D00E94780A07FC05D03EF4CA
:1014D000909581959F4F0895709561957F4F0895E0
:1014E000EE0FFF1F881F8BBF0790F691E02D199418
:1014F000AA1BBB1B51E107C0AA1FBB1FA617B7073A
:1015000010F0A61BB70B881F991F5A95A9F7809555
:0C1510009095BC01CD010895F894FFCF28
:10151C00011617191B1D1F2131323334353637385C
:10152C00392A3023000000009D0207023402EF022A
:10153C0065024302570200000000D2050702460470
:10154C0045040000000041040104D003457175619D
:10155C006C005820776F6E004F20776F6E00506CC8
:0A156C006179657220583A200000F2
:00000001FF
