:100000000C9430010C9461010C9461010C94610119
:100010000C9461010C9461010C9461010C946101D8
:100020000C9461010C9461010C9461010C946101C8
:100030000C9461010C9461010C9461010C946101B8
:100040000C9461010C94ED040C9461010C94610119
:100050000C9461010C9461010C9461010C941904DD
:100060000C9461010C9461010C9461010C94610188
:100070000C9461010C9461010C9461010C94610178
:100080000C94BF040C9461010C9461010C94610107
:100090000C9461010C9461010C9461010C94610158
:1000A0000C9461010C9461010C9491040C94610115
:1000B0000C9461010C9461010C9461010C94630433
:1000C0000C9461010C9461010C9461010C94610128
:1000D0000C9461010C9461010C9461010C94610118
:1000E0000C9461010C9469020C942D030C94BC02D5
:1000F0000C947D020C944A020C9477020C945402E6
:100100000C9473020C948B020C945C020C945F02AE
:100110000C9450020C94F9070C9458020C948F0222
:100120000C948A020C94ED020C948F080C948502B6
:100130000C9481020C9465020C946F020000210063
:10014000240027002A002D003000330001010000A8
:10015000040107010A0100002200250028002B00ED
:100160002E003100340002010000050108010B01DE
:10017000000020002300260029002C002F00320060
:100180000001000003010601090105050505070539
:1001900008080808020202020A0A08080404040403
:1001A000010101010101010103030303030303032F
:1001B000040707070C0C0C0C0C0C0C0C02020202BE
:1001C00006060606060606060B0B0B0B0B0B0B0BA7
:1001D0000102102020080810204010204080020159
:1001E000020108040201010204081020408080403E
:1001F000201008040201800402018040201008043D
:1002000002010804020101020408102040800102DA
:1002100004081020408000000A0B02090C0D0E0893
:1002200007030401000000000000000000000000BF
:1002300000000000000000000000000000000000BE
:10024000000012111000000000000000000000007B
:10025000000000000000000000000000F9078F0807
:1002600011241FBECFEFD1E2DEBFCDBF00E00CBF37
:1002700012E0A0E0B2E0E0E4FAE100E00BBF02C06F
:1002800007900D92AA32B107D9F723E0AAE2B2E0B3
:1002900001C01D92A434B207E1F711E0CFE2D1E032
:1002A00000E006C021970109802FFE010E94F00A9C
:1002B000CE32D10780E00807A9F70E941B050C94F5
:1002C0000E0D0C940000E091A702E03388F54091F8
:1002D000A80228E830E0241B310947FD3395220F9E
:1002E000331F220F331F8217930784F04091A90216
:1002F00028E532E0241B310947FD3395220F331FD7
:10030000220F331F821793070CF49C0122503109EE
:10031000220F331F4FB7F8948E2F90E0FC01EE0FA1
:10032000FF1FE80FF91FE655FD4F328321834FBFB2
:10033000089596E0899FD0011124A85CBD4F909646
:100340007C936E935F9791E091969C939197E09147
:10035000A502F091A6029091A402992339F030975A
:1003600051F0811108C0809154021994309719F00E
:100370005C968C91FACF0895CF92DF92EF92FF9224
:100380000F931F9396E0899FF0011124E85CFD4FC5
:1003900011A2278D30A12130310551F178F02230A2
:1003A000310509F451C02330310509F452C01F91C1
:1003B0000F91FF90EF90DF90CF9008956623B9F3EF
:1003C00061E070E00E9499012FB7F89480913402A7
:1003D00090913502A0913602B09137022FBF8093E1
:1003E000900290939102A0939202B0939302DFCF78
:1003F0009FB7F894C0903402D0903502E090360256
:10040000F09037029FBF00919002109191022091CD
:10041000920230919302C01AD10AE20AF30A0091C3
:10042000A2021091A30230E020E00C151D052E055C
:100430003F0550F462E070E01F910F91FF90EF9044
:10044000DF90CF900C9499016111B1CF63E070E01F
:10045000F3CF70E060E0F0CF8150823108F05AC0F5
:10046000E82FF0E08827E85CFD4F8F4F0C94F00AEE
:1004700058025C024A02500254028A025F0265027C
:1004800069026F02730277027D0281028A0285028D
:100490008B028F02809180008F7780938000089577
:1004A000809180008F7DF9CF80918000877FF5CF8C
:1004B00084B58F7784BD089584B58F7DFBCF8091FF
:1004C000B0008F778093B00008958091B0008F7D49
:1004D000F9CF809190008F7780939000089580915C
:1004E00090008F7DF9CF80919000877FF5CF80912C
:1004F000A0008F778093A00008958091A0008F7D49
:10050000F9CF8091A000877FF5CF809120018F7770
:10051000809320010895809120018F7DF9CF8091F3
:100520002001877FF5CFCF93DF93282F30E0F901AB
:10053000EA5EFD4F8491F901E053FE4FD491F90139
:10054000E657FE4FC491CC23A1F081110E942C02EA
:10055000EC2FF0E0EE0FFF1FE059FE4FA591B49194
:10056000EC91ED2381E090E009F480E0DF91CF9100
:10057000089580E090E0FACF862F0C9493021F93A9
:10058000CF93DF93282F30E0F901EA5EFD4F84918D
:10059000F901E053FE4FD491F901E657FE4FC491A3
:1005A000CC23A9F0162F81110E942C02EC2FF0E031
:1005B000EE0FFF1FEA5AFE4FA591B4918FB7F89442
:1005C000EC91111108C0D095DE23DC938FBFDF9131
:1005D000CF911F910895DE2BF8CF862F642F0C94B6
:1005E000BF02CF93DF9390E0FC01E053FE4F2491D4
:1005F00086579E4FFC0184918823C9F090E0880FB4
:10060000991FFC01E45CFE4FA591B491FC01EA5AEC
:10061000FE4FC591D49161110DC09FB7F8948C9194
:10062000209582238C938881282328839FBFDF9184
:10063000CF910895623051F49FB7F8943C91822F86
:10064000809583238C93E8812E2BEFCF8FB7F8947E
:10065000EC912E2B2C938FBFEACF862F642F0C9416
:10066000F102AF92BF92CF92DF92EF92FF920F937F
:100670001F93CF93DF936B017A01EC01C55DDD4FD2
:1006800028813CE0389F8001399F100D1124A090F3
:100690002A02B12C27FF1FC0FB0111821082888122
:1006A0008F5F888388819801280F311D87FD3A95D7
:1006B000F6012A153B051CF488818C30C4F1808139
:1006C0009181049680349C4908F473C0F6018081BE
:1006D0009181049670C088819801280F311D87FD93
:1006E0003A952A153B05DCF68881A801480F511D73
:1006F00087FD5A95FA01EE0FFF1FE40FF51FE6552F
:10070000FD4F808186FFCBCF8881F801E80FF11D76
:1007100087FDFA95CF01EE0FFF1FE80FF91FE65591
:10072000FD4F808160E08F730E94BF02B8CF80814F
:1007300091812881A801420F511D27FD5A959A01E8
:10074000FA01EE0FFF1FE20FF31FE655FD4F218167
:100750003281820F931FF7019183808388819801F2
:10076000280F311D87FD3A95F901EE0FFF1FE20FAB
:10077000F31FE655FD4F808186FF22C08881080F58
:10078000111D87FD1A95F801EE0FFF1FE00FF11FF5
:10079000E655FD4F808161E08F73DF91CF911F910E
:1007A0000F91FF90EF90DF90CF90BF90AF900C949F
:1007B000BF0280E49CE9F701918380838FEF8883F7
:1007C000DF91CF911F910F91FF90EF90DF90CF902D
:1007D000BF90AF900895CF93DF93EC0180913A03DF
:1007E00090913B03009759F020913C0330913D03D9
:1007F0002C173D0720F081E0DF91CF910895BE01D5
:100800006F5F7F4F0E941D0C009789F090933B0310
:1008100080933A03D0933D03C0933C0320913E0361
:1008200030913F03232B39F7FC011082E4CF80E0A5
:10083000E3CF1F920F920FB60F9211242F933F9385
:100840008F939F93AF93BF93809134029091350221
:10085000A0913602B09137023091330223E0230F8A
:100860002D3758F50196A11DB11D209333028093B9
:10087000340290933502A0933602B09337028091F0
:100880002F0290913002A0913102B0913202019674
:10089000A11DB11D80932F0290933002A0933102CD
:1008A000B0933202BF91AF919F918F913F912F9161
:1008B0000F900FBE0F901F90189526E8230F0296F9
:1008C000A11DB11DD2CF1F920F920FB60F9211240E
:1008D0000BB60F922F933F934F935F936F937F933A
:1008E0008F939F93AF93BF93EF93FF9348E251E0B1
:1008F00064E271E090E080E00E943103FF91EF91AB
:10090000BF91AF919F918F917F916F915F914F9127
:100910003F912F910F900BBE0F900FBE0F901F9025
:1009200018951F920F920FB60F9211240BB60F92CB
:100930002F933F934F935F936F937F938F939F93E7
:10094000AF93BF93EF93FF9348EA50E064EA70E0FF
:1009500083E090E00E943103FF91EF91BF91AF914E
:100960009F918F917F916F915F914F913F912F91C7
:100970000F900BBE0F900FBE0F901F9018951F92F7
:100980000F920FB60F9211240BB60F922F933F9335
:100990004F935F936F937F938F939F93AF93BF9387
:1009A000EF93FF9348E950E064E970E082E090E063
:1009B0000E943103FF91EF91BF91AF919F918F9171
:1009C0007F916F915F914F913F912F910F900BBE4F
:1009D0000F900FBE0F901F9018951F920F920FB699
:1009E0000F9211240BB60F922F933F934F935F9367
:1009F0006F937F938F939F93AF93BF93EF93FF93E7
:100A000048E850E064E870E081E090E00E94310343
:100A1000FF91EF91BF91AF919F918F917F916F91D6
:100A20005F914F913F912F910F900BBE0F900FBE92
:100A30000F901F901895CF93DF931F921F92CDB701
:100A4000DEB7789484B5826084BD84B5816084BD4E
:100A500085B5826085BD85B5816085BD80916E005C
:100A6000816080936E00109281008091810082608D
:100A700080938100809181008160809381008091CA
:100A800080008160809380008091B10084608093B9
:100A9000B1008091B00081608093B000809191009E
:100AA0008260809391008091910081608093910099
:100AB000809190008160809390008091A10082607D
:100AC0008093A1008091A10081608093A10080911A
:100AD000A00081608093A0008091210182608093BA
:100AE0002101809121018160809321018091200169
:100AF00081608093200180917A00846080937A00E5
:100B000080917A00826080937A0080917A0081607F
:100B100080937A0080917A00806880937A001092A6
:100B2000C1008091A702803308F052C061E082E0EA
:100B30000E94F1028091A702282F30E0F901EE0F08
:100B4000FF1FE20FF31FE655FD4F9081907C9260EE
:100B500090831092A8021092A9022CE0622F0E94AA
:100B6000E40A829FB001112430E020E0AB01420F83
:100B7000531FFA01EE0FFF1FE40FF51FE655FD4F5F
:100B8000908196FD17C02F5F3F4F2C30310571F7D4
:100B9000813009F05CC01092800082E08093810077
:100BA0001092850010928400B19A80916F0082604B
:100BB00080936F00E091A7028E2F90E0FC01EE0F72
:100BC000FF1FE80FF91FE655FD4F80818064808389
:100BD000412C512C3201439440E0A42E40E0B42E2D
:100BE00051E05093A4028FB7F89440913402509191
:100BF000350260913602709137028FBF8091940266
:100C000090919502A0919602B0919702481B590BC2
:100C10006A0B7B0B8091A0029091A102B0E0A0E052
:100C200084179507A607B70708F047C110E0809121
:100C30009E021817C0F5E0919A02F0919B02E10F15
:100C4000F11D62E080810E94F1021F5FF0CF8230CF
:100C500061F4109290008093910010929500109290
:100C6000940088BB80937100A5CF833069F4109203
:100C7000A00082E08093A1001092A5001092A40031
:100C800089BB8093720096CF811194CF109220017E
:100C900082E08093210110922501109224018ABBE9
:100CA0008093730087CF312C80919F02381608F013
:100CB00061C0E32CF12CE0919C02F0919D02EE0DBD
:100CC000FF1D61E080810E94F102E0919C02F091A1
:100CD0009D02EE0DFF1D60E080810E94BF02D301E6
:100CE000C201032C04C0880F991FAA1FBB1F0A94BE
:100CF000D2F74C016C01C094D094212C80919E02BB
:100D0000281608F5022D10E0E0919A02F0919B025E
:100D1000E00FF11F80810E9493020C5F1F4F000FB4
:100D2000111FF801E85CFD4F892B41F4808191810E
:100D300088299929918380832394E0CF80819181B0
:100D40008C219D21F7CFE0919C02F0919D02EE0D48
:100D5000FF1D61E080810E94BF0280919C02909102
:100D60009D02E80EF91E60E0F70180810E94F10209
:100D700033949ACF08E312E07801F701878D90A1B0
:100D8000892B31F4148E8FEF9FEF968F858F11A2F0
:100D900096E0E90EF11CE4E7F2E0EE15FF0569F7D5
:100DA000D12C80919E02D81608F053C0C12C8D2CF6
:100DB000912C880C991CC401805C9D4F4C012091A2
:100DC0009F02C21608F043C0F401608171810C2CAF
:100DD00002C0769567950A94E2F7D29E900111249D
:100DE0002C0D311DE8E3F2E080E0458D568D24178F
:100DF000350709F4FCC08F5F36968A30B1F760FF83
:100E000024C0E8E3F2E090E080E0448D411118C096
:100E1000E0919802F0919902E20FF31F408156E0B1
:100E2000589FF001599FF00D1124E85CFD4F448F4D
:100E3000368F258F10A2178E61E00E94BC0105C07D
:100E4000019636968A30910501F7C394B8CFD394B2
:100E5000A8CF80E0F80191A19111892F0A5F1F4F5F
:100E60000E151F05B9F79FB7F894409134025091C1
:100E7000350260913602709137029FBF4093940211
:100E80005093950260939602709397028823A9F07D
:100E900080915902882389F08091570290915802DD
:100EA000019759F48091540281110AC0A114B10430
:100EB00009F496CE0E94000093CE1092A402F6CFC1
:100EC0008A3209F06DC080913A0390913B030097FC
:100ED00009F444C00E949808653B7105810591059D
:100EE0000CF43FC0645B7109810991090E94D60826
:100EF00020E030E044EB53E40E943C0A20E030E084
:100F00004AE754E40E9411099B01AC0160E070E8DB
:100F10008BEB94E40E94CF090E94AE0ACB010E94A1
:100F2000630190E080E00E94EB0320913A0330914E
:100F30003B0381112BC02115310519F0C9010E9415
:100F4000940B10923B0310923A0310923F031092BD
:100F50003E0310923D0310923C03A8CF60E070E086
:100F6000CB010E94D60820E030E044EB53E40E941D
:100F70003C0A20E030E04AE754E40E94110920E0F6
:100F800030E84BEB54E40E94D009C6CF10923F03E7
:100F900010923E0368E272E0C9010E94070D86CFFD
:100FA00090ED980F9A3008F081CF89831A820091D2
:100FB0003E0310913F030F5F1F4FC8010E94EB03D8
:100FC000882309F473CF20913A0330913B03809139
:100FD0003E0390913F03BE016F5F7F4F820F931FCF
:100FE0000E94070D10933F0300933E035FCF617093
:100FF00024CF10923A0210923E0210923D021092BB
:101000003F0282E292E09093390280933802E4E555
:10101000F2E01082148213821582369682E0E03963
:10102000F807B9F784E092E090939B0280939A02CC
:1010300080E092E090939D0280939C0284E08093F4
:101040009E0280939F0288E092E0909399028093A1
:1010500098028AE090E09093A1028093A00284EF2E
:1010600091E09093A3028093A2021092A6021092A4
:10107000A50210929402109295021092960210927C
:1010800097021092A40280912A028033D8F591E051
:10109000980F90932A028093A70290E0FC01EE0F34
:1010A000FF1FE80FF91FE655FD4F88EB9BE0928389
:1010B000818310923B0310923A0310923D031092E9
:1010C0003C0310923F0310923E0390E080E00E94A8
:1010D000EB0320913A0330913B03811117C0211596
:1010E000310519F0C9010E94940B10923B03109234
:1010F0003A0310923F0310923E0310923D03109268
:101100003C0308958FEF8093A702D3CF10923F0343
:1011100010923E0368E272E0C9010C94070D8091C1
:101120003A0390913B03009711F00C94940B0895AF
:101130001F93FC0199278827BC01E8941191103274
:10114000E9F3193010F01E30C8F31B3251F01D3294
:1011500049F4689406C00E94BF08610F711D811D8B
:10116000911D119110531A30B0F33EF49095809573
:10117000709561957F4F8F4F9F4F1F910895592F05
:10118000482F372F262F660F771F881F991F660F4E
:10119000771F881F991F620F731F841F951F660F8B
:1011A000771F881F991F0895E89409C097FB3EF4A4
:1011B00090958095709561957F4F8F4F9F4F9923A4
:1011C000A9F0F92F96E9BB279395F6958795779522
:1011D0006795B795F111F8CFFAF4BB0F11F460FFE2
:1011E0001BC06F5F7F4F8F4F9F4F16C0882311F03A
:1011F00096E911C0772321F09EE8872F762F05C04E
:10120000662371F096E8862F70E060E02AF09A95E8
:10121000660F771F881FDAF7880F9695879597F9DD
:1012200008950E9424090C9495090E94870938F0BA
:101230000E948E0920F0952311F00C947E090C94E5
:10124000840911240C94C9090E94A60970F3959F82
:10125000C1F3950F50E0551F629FF001729FBB27AD
:10126000F00DB11D639FAA27F00DB11DAA1F649F49
:101270006627B00DA11D661F829F2227B00DA11DFC
:10128000621F739FB00DA11D621F839FA00D611D82
:10129000221F749F3327A00D611D231F849F600DA3
:1012A000211D822F762F6A2F11249F5750409AF0CC
:1012B000F1F088234AF0EE0FFF1FBB1F661F771F58
:1012C000881F91505040A9F79E3F510580F00C9423
:1012D0007E090C94C9095F3FE4F3983ED4F38695E8
:1012E00077956795B795F795E7959F5FC1F7FE2BC3
:1012F000880F911D9695879597F9089597F99F679F
:1013000080E870E060E008959FEF80EC089500248D
:101310000A941616170618060906089500240A945A
:1013200012161306140605060895092E0394000CE0
:1013300011F4882352F0BB0F40F4BF2B11F460FF6F
:1013400004C06F5F7F4F8F4F9F4F089557FD905898
:10135000440F551F59F05F3F71F04795880F97FB79
:10136000991F61F09F3F79F0879508951216130633
:101370001406551FF2CF4695F1DF08C01616170662
:101380001806991FF1CF8695710561050894089597
:10139000E894BB2766277727CB0197F90895505823
:1013A000BB27AA270E94E7090C9495090E94870988
:1013B00038F00E948E0920F039F49F3F19F426F48A
:1013C0000C9484090EF4E095E7FB0C947E09E92F58
:1013D0000E94A60958F3BA17620773078407950796
:1013E00020F079F4A6F50C94C8090EF4E0950B2EC4
:1013F000BA2FA02D0B01B90190010C01CA01A00167
:101400001124FF27591B99F0593F50F4503E68F1C1
:101410001A16F040A22F232F342F4427585FF3CF02
:10142000469537952795A795F0405395C9F77EF4D3
:101430001F16BA0B620B730B840BBAF09150A1F01C
:10144000FF0FBB1F661F771F881FC2F70EC0BA0FA2
:10145000621F731F841F48F4879577956795B7952A
:10146000F7959E3F08F0B0CF9395880F08F0992725
:10147000EE0F9795879508950E94500A0C94950950
:101480000E948E0958F00E94870940F029F45F3FBE
:1014900029F00C947E0951110C94C9090C9484090B
:1014A0000E94A60968F39923B1F3552391F3951B84
:1014B000550BBB27AA2762177307840738F09F5F75
:1014C0005F4F220F331F441FAA1FA9F335D00E2EE2
:1014D0003AF0E0E832D091505040E695001CCAF74F
:1014E0002BD0FE2F29D0660F771F881FBB1F261712
:1014F00037074807AB07B0E809F0BB0B802DBF01E9
:10150000FF2793585F4F3AF09E3F510578F00C94B7
:101510007E090C94C9095F3FE4F3983ED4F38695A5
:1015200077956795B795F7959F5FC9F7880F911DD8
:101530009695879597F90895E1E0660F771F881FC4
:10154000BB1F621773078407BA0720F0621B730B77
:10155000840BBA0BEE1F88F7E09508950E94B50A38
:101560006894B1110C94C90908950E94AE0988F0DD
:101570009F5798F0B92F9927B751B0F0E1F0660F57
:10158000771F881F991F1AF0BA95C9F714C0B13098
:1015900091F00E94C809B1E008950C94C809672F22
:1015A000782F8827B85F39F0B93FCCF386957795C7
:1015B0006795B395D9F73EF49095809570956195B0
:1015C0007F4F8F4F9F4F0895991B79E004C0991F5B
:1015D000961708F0961B881F7A95C9F7809508958D
:1015E000EE0FFF1F881F8BBF0790F691E02D199417
:1015F0000F931F93CF93DF938230910510F482E015
:1016000090E0E0914203F091430330E020E0B0E04D
:10161000A0E0309799F42115310509F44AC0281B40
:10162000390B24303105D8F58A819B81611571050C
:1016300089F1FB0193838283FE0111C040815181B6
:101640000281138148175907E0F04817590799F4A8
:10165000109761F012960C93129713961C93329682
:10166000CF01DF91CF911F910F9108950093420315
:1016700010934303F4CF2115310551F0421753075E
:1016800038F0A901DB019A01BD01DF01F801C1CFEA
:10169000EF01F9CF9093430380934203CDCFFE0136
:1016A000E20FF31F819391932250310939832883EC
:1016B000D7CF2091400330914103232B41F4209157
:1016C0001A0230911B023093410320934003209172
:1016D0001802309119022115310541F42DB73EB79A
:1016E00040911C0250911D02241B350BE0914003D8
:1016F000F0914103E217F307A0F42E1B3F0B2817CC
:10170000390778F0AC014E5F5F4F2417350748F07A
:101710004E0F5F1F50934103409340038193919379
:101720009FCFF0E0E0E09CCFCF93DF930097E9F00C
:10173000FC01329713821282A0914203B0914303BD
:10174000ED0130E020E01097A1F420813181820F7B
:10175000931F20914003309141032817390709F066
:1017600061C0F0934103E0934003DF91CF9108956E
:10177000EA01CE17DF07E8F54A815B819E0141153A
:101780005105B1F7E901FB83EA8349915991C40FEF
:10179000D51FEC17FD0761F4808191810296840FBB
:1017A000951FE90199838883828193819B838A8332
:1017B000F0E0E0E012968D919C9113970097B9F5B7
:1017C0002D913C911197CD010296820F931F20918C
:1017D0004003309141032817390739F6309751F506
:1017E0001092430310924203B0934103A09340032D
:1017F000BCCFD383C28340815181840F951FC8170A
:10180000D90761F44E5F5F4F88819981480F591F56
:10181000518340838A819B81938382832115310583
:1018200009F0B0CFF0934303E09342039ECFFD0154
:10183000DC01C0CF13821282D7CF4F925F926F929A
:101840007F928F929F92AF92BF92CF92DF92EF9250
:10185000FF920F931F93CF93DF938C01009799F41E
:10186000CB01DF91CF911F910F91FF90EF90DF900F
:10187000CF90BF90AF909F908F907F906F905F9030
:101880004F900C94F80AFC01E60FF71F9C012250C0
:101890003109E217F30708F4AEC0D901CD91DC910C
:1018A0001197C617D70720F1C530D10578F0CE01C2
:1018B00004978617970750F0C61BD70B2297C19342
:1018C000D1936D937C93CF010E94940BC801DF915B
:1018D000CF911F910F91FF90EF90DF90CF90BF902D
:1018E000AF909F908F907F906F905F904F900895F2
:1018F0005B01AC1ABD0A4C018C0E9D1EA0914203E7
:10190000B0914303512C412CF12CE12C109731F56F
:1019100080914003909141038815990509F05CC0BE
:101920004616570608F058C0809118029091190287
:10193000009741F48DB79EB740911C0250911D0253
:10194000841B950BE817F90708F055C0F093410385
:10195000E0934003F90171836083B8CF8D919C912E
:10196000119712966C90129713967C901397A81566
:10197000B90559F56C0142E0C40ED11CCA14DB0450
:1019800020F1AC014A195B09DA011296159780F033
:101990006282738251834083D9016D937C93E114F9
:1019A000F10471F0D7011396FC93EE9312978ECF4A
:1019B00022968C0F9D1FF90191838083F301EFCF55
:1019C000F0934303E093420381CF4816590608F48D
:1019D0002C017D01D3019ACFCB010E94F80A7C0132
:1019E000009749F0AE01B8010E94FE0CC8010E94A8
:1019F000940B87016BCF10E000E068CFFB01DC01A6
:101A000002C001900D9241505040D8F70895FB015B
:101A1000DC0101900D920020E1F7089511E0CFE282
:101A2000D1E000E006C0802FFE010E94F00A21965E
:101A3000011DC033D10780E00807A9F7F894FFCF54
:101A400017191B1D1F2123253738392A3435362A0B
:101A50003132332A6F302A2A00004403800000000C
:0A1A600000002D03ED02BC0200009F
:00000001FF
