:100000000C942D010C945E010C945E010C945E0125
:100010000C945E010C945E010C945E010C945E01E4
:100020000C945E010C945E010C945E010C945E01D4
:100030000C945E010C945E010C945E010C945E01C4
:100040000C945E010C945E010C945E010C945E01B4
:100050000C945E010C945E010C945E010C94F80209
:100060000C945E010C945E010C945E010C945E0194
:100070000C945E010C945E010C945E010C945E0184
:100080000C945E010C945E010C945E010C945E0174
:100090000C945E010C945E010C945E010C945E0164
:1000A0000C945E010C945E010C945E010C945E0154
:1000B0000C945E010C945E010C945E010C945E0144
:1000C0000C945E010C945E010C945E010C945E0134
:1000D0000C945E010C945E010C945E010C945E0124
:1000E0000C945E010C9411020C941F020C942602D5
:1000F0000C943E020C941B020C943A020C942B05B7
:100100000C9417020C942C020C9452020C94F402DE
:100110000C94B4020C9423020C9456020C945102D9
:100120000C9444020C944C020C9430020C94830204
:100130000C9448020C943602000021002400270091
:100140002A002D00300033000101000004010701E6
:100150000A0100002200250028002B002E0031009B
:10016000340002010000050108010B01000020001D
:100170002300260029002C002F003200000100007F
:10018000030106010901050505050705080808081A
:10019000020202020A0A080804040404010101011F
:1001A000010101010303030303030303040707071A
:1001B0000C0C0C0C0C0C0C0C0202020206060606BF
:1001C000060606060B0B0B0B0B0B0B0B010210208C
:1001D000200808102040102040800201020108047D
:1001E0000201010204081020408080402010080411
:1001F000020180040201804020100804020108046A
:1002000002010102040810204080010204081020AD
:10021000408000000A0B02090C0D0E0807030401C0
:1002200000000000000000000000000000000000CE
:10023000000000000000000000000000000012119B
:10024000100000000000000000000000000000009E
:1002500000000000000000002B0511241FBECFEF9E
:10026000D1E2DEBFCDBF00E00CBF12E0A0E0B2E003
:10027000E2E0FBE000E00BBF02C007900D92A63267
:10028000B107D9F722E0A6E2B2E001C01D92AE3973
:10029000B207E1F711E0CDE2D1E000E006C021971E
:1002A0000109802FFE010E947705CC32D10780E042
:1002B0000807A9F70E9442030C947F050C940000E4
:1002C00096E0899FD0011124A15DBD4F90967C934B
:1002D0006E935F9791E091969C939197E0919C0229
:1002E000F0919D0290919B02992339F0309751F043
:1002F000811108C080914B021994309719F05C96D7
:100300008C91FACF0895CF92DF92EF92FF920F93E4
:100310001F9396E0899FF0011124E15DFD4F11A22A
:10032000278D30A12130310551F178F0223031058F
:1003300009F451C02330310509F452C01F910F91C7
:10034000FF90EF90DF90CF9008956623B9F361E0BE
:1003500070E00E9460012FB7F89480912B02909179
:100360002C02A0912D02B0912E022FBF8093870204
:1003700090938802A0938902B0938A02DFCF9FB73F
:10038000F894C0902B02D0902C02E0902D02F090B7
:100390002E029FBF0091870210918802209189024E
:1003A00030918A02C01AD10AE20AF30A0091990236
:1003B00010919A0230E020E00C151D052E053F0536
:1003C00050F462E070E01F910F91FF90EF90DF908A
:1003D000CF900C9460016111B1CF63E070E0F3CF76
:1003E00070E060E0F0CF8150823108F05AC0E82F11
:1003F000F0E08827E150FE4F8F4F0C9477051F02E5
:100400002302110217021B02510226022C023002A3
:1004100036023A023E024402480251024C025202A3
:100420005602809180008F7780938000089580919C
:1004300080008F7DF9CF80918000877FF5CF84B5D4
:100440008F7784BD089584B58F7DFBCF8091B000F8
:100450008F778093B00008958091B0008F7DF9CFA1
:10046000809190008F778093900008958091900004
:100470008F7DF9CF80919000877FF5CF8091A0008C
:100480008F778093A00008958091A0008F7DF9CF91
:100490008091A000877FF5CF809120018F77809396
:1004A00020010895809120018F7DF9CF8091200156
:1004B000877FF5CFCF93DF93282F30E0F901EE5EF1
:1004C000FD4F8491F901E453FE4FD491F901EA57AD
:1004D000FE4FC491CC23A1F081110E94F301EC2FB7
:1004E000F0E0EE0FFF1FE459FE4FA591B491EC919F
:1004F000ED2381E090E009F480E0DF91CF91089551
:1005000080E090E0FACF862F0C945A021F93CF938D
:10051000DF93282F30E0F901EE5EFD4F8491F90161
:10052000E453FE4FD491F901EA57FE4FC491CC2316
:10053000A9F0162F81110E94F301EC2FF0E0EE0FCD
:10054000FF1FEE5AFE4FA591B4918FB7F894EC912E
:10055000111108C0D095DE23DC938FBFDF91CF91BE
:100560001F910895DE2BF8CF862F642F0C948602FE
:10057000CF93DF9390E0FC01E453FE4F24918A5720
:100580009E4FFC0184918823C9F090E0880F991F49
:10059000FC01E85CFE4FA591B491FC01EE5AFE4FC0
:1005A000C591D49161110DC09FB7F8948C9120959D
:1005B00082238C938881282328839FBFDF91CF914A
:1005C0000895623051F49FB7F8943C91822F809542
:1005D00083238C93E8812E2BEFCF8FB7F894EC9187
:1005E0002E2B2C938FBFEACF862F642F0C94B8024A
:1005F0001F920F920FB60F9211242F933F938F9358
:100600009F93AF93BF9380912B0290912C02A09166
:100610002D02B0912E0230912A0223E0230F2D37B4
:1006200058F50196A11DB11D20932A0280932B023B
:1006300090932C02A0932D02B0932E02809126025B
:1006400090912702A0912802B09129020196A11D44
:10065000B11D8093260290932702A0932802B093A5
:100660002902BF91AF919F918F913F912F910F9050
:100670000FBE0F901F90189526E8230F0296A11D1C
:10068000B11DD2CF789484B5826084BD84B5816079
:1006900084BD85B5826085BD85B5816085BD80914D
:1006A0006E00816080936E001092810080918100C5
:1006B00082608093810080918100816080938100BD
:1006C000809180008160809380008091B10084607F
:1006D0008093B1008091B00081608093B0008091E0
:1006E000910082608093910080919100816080935D
:1006F0009100809190008160809390008091A10092
:1007000082608093A1008091A10081608093A1000C
:100710008091A00081608093A0008091210182607F
:10072000809321018091210181608093210180913A
:10073000200181608093200180917A008460809301
:100740007A0080917A00826080937A0080917A00AA
:10075000816080937A0080917A00806880937A002B
:100760001092C100CDE1D2E061E089910E94B8020F
:1007700022E0C632D207C1F7812C912C5401839418
:100780004BE6442E42E0542E31E030939B028FB76B
:10079000F89440912B0250912C0260912D0270919F
:1007A0002E028FBF80918B0290918C02A0918D02BE
:1007B000B0918E02481B590B6A0B7B0B80919702FC
:1007C00090919802B0E0A0E084179507A607B707BC
:1007D00008F01FC110E080919502181760F4E091B5
:1007E0009102F0919202E10FF11D62E080810E947E
:1007F000B8021F5FF0CF312C80919602381608F0B6
:1008000064C0032D10E0E0919302F0919402E00F98
:10081000F11F61E080810E94B802E0919302F091A3
:100820009402E00FF11F60E080810E948602D501F2
:10083000C401032C04C0880F991FAA1FBB1F0A9470
:10084000D2F76C017C01E094F094212C8091950208
:10085000281620F5622C712CE0919102F091920201
:10086000E60DF71D80810E945A02F3013496892B10
:1008700061F4EE0FFF1FE15DFD4F808191818C29B6
:100880009D29918380832394E1CFEE0FFF1FE15DCB
:10089000FD4F808191818E219F21F3CFE0919302C2
:1008A000F0919402E00FF11F61E080810E948602C6
:1008B0008091930290919402080F191F60E0F80153
:1008C00080810E94B802339497CF0FE212E0780142
:1008D000F701878D90A1892B31F4148E2FEF3FEF14
:1008E000368F258F11A236E0E30EF11C4E145F0403
:1008F00079F7D12C80919502D81608F053C0C12CFD
:100900006D2C712C660C771CC301895C9D4F3C01DA
:1009100020919602C21608F043C0F30160817181F4
:100920000C2C02C0769567950A94E2F7D29E90014E
:1009300011242C0D311DEFE2F2E080E0458D568D43
:100940002417350709F485C08F5F36968A30B1F7D2
:1009500060FF24C0EFE2F2E090E080E0448D4111BE
:1009600018C0E0918F02F0919002E20FF31F4081D6
:1009700056E0589FF001599FF00D1124E15DFD4FA5
:10098000448F368F258F10A2178E61E00E9483015D
:1009900005C0019636968A30910501F7C394B8CF09
:1009A000D394A8CF80E0F80191A19111892F0A5F1B
:1009B0001F4FE016F106B9F79FB7F89440912B024C
:1009C00050912C0260912D0270912E029FBF409396
:1009D0008B0250938C0260938D0270938E02882359
:1009E000C1F0809150028823A1F080914E02909135
:1009F0004F02019771F4E0904B020DE112E0E1101B
:100A00000BC020E030E0232B09F4BECE0E94000092
:100A1000BBCE10929B02F5CF60E0F80181918F016F
:100A20000E948602C017D107B9F7F12C0E2DEE0CEB
:100A3000110B005311098F2D90E0801791070CF7CF
:100A4000835E9D4F61E0FC0180810E948602F394E9
:100A5000F2CF61709BCF109231021092350210924A
:100A600034021092360287E192E090933002809334
:100A70002F02EBE4F2E01082148213821582369684
:100A800082E0E738F807B9F783E092E090939202AA
:100A90008093910280E092E090939402809393027D
:100AA00084E08093950283E08093960287E092E051
:100AB0009093900280938F028AE090E09093980246
:100AC0008093970284EF91E090939A028093990229
:100AD00010929D0210929C0210928B0210928C0236
:100AE00010928D0210928E0210929B020895EE0FCA
:100AF000FF1F881F8BBF0790F691E02D1994F89483
:020B0000FFCF25
:100B0200161718191A1B1C31323334353637383957
:100B12002A302300000000F402B402830203040519
:060B2200060708090A0B9A
:00000001FF
