:100000000C945A010C948B010C948B010C948B0171
:100010000C948B010C948B010C948B010C948B0130
:100020000C948B010C948B010C948B010C948B0120
:100030000C948B010C948B010C948B010C948B0110
:100040000C948B010C94A6080C948B010C948B01DE
:100050000C948B010C948B010C948B010C94D207A3
:100060000C948B010C948B010C948B010C948B01E0
:100070000C948B010C948B010C948B010C948B01D0
:100080000C9478080C948B010C948B010C948B01CC
:100090000C948B010C948B010C948B010C948B01B0
:1000A0000C948B010C948B010C944A080C948B01DA
:1000B0000C948B010C948B010C948B010C941C08F8
:1000C0000C948B010C948B010C948B010C948B0180
:1000D0000C948B010C948B010C948B010C948B0170
:1000E0000C948B010C94CD030C94A1020C94460447
:1000F0000C9484030C9432040C9456020C94E10387
:100100000C94B3020C94D4020C94D8020C94AB025D
:100110000C94BC020C9450040C945A040C94730577
:100120000C94320C0C94CE020C94E6020C94D7037F
:100130000C9419040C94CA020C94C6020C94DC02B0
:100140000C9405040C9413030C94FB030C944403CB
:100150000C94E2020C94E1020C9428040C94C0026A
:100160000C94EB030C94A7020C94F50C0C943C0437
:100170000C94C0030C9438070C94F3030C94C8033C
:100180000C940F040C94AF020C9474050C94B602FA
:1001900000002100240027002A002D003000330039
:1001A00001010000040107010A01000022002500EE
:1001B00028002B002E003100340002010000050150
:1001C00008010B01000020002300260029002C005C
:1001D0002F0032000001000003010601090105059E
:1001E0000505070508080808020202020A0A0808AD
:1001F00004040404010101010101010103030303DB
:1002000003030303040707070C0C0C0C0C0C0C0C69
:100210000202020206060606060606060B0B0B0B7A
:100220000B0B0B0B0102102020080810204010209F
:1002300040800201020108040201010204081020AA
:1002400040808040201008040201800402018040A8
:100250002010080402010804020101020408102011
:100260004080010204081020408000000A0B0209AF
:100270000C0D0E0807030401000000000000000040
:10028000000000000000000000000000000000006E
:10029000000000000000121110000000000000002B
:1002A000000000000000000000000000000000004E
:1002B000320CF50C11241FBECFEFD1E2DEBFCDBF53
:1002C00000E00CBF12E0A0E0B2E0E0E5F3E200E005
:1002D0000BBF02C007900D92A434B107D9F723E0F9
:1002E000A4E4B2E001C01D92AA37B207E1F711E021
:1002F000C9E5D1E000E006C021970109802FFE0189
:100300000E94780FC835D10780E00807A9F70E943E
:10031000D4080C9496110C940000E091C502E033CF
:1003200088F54091C60228E830E0241B310947FDDA
:100330003395220F331F220F331F8217930784F048
:100340004091C70228E532E0241B310947FD33956F
:10035000220F331F220F331F821793070CF49C01C7
:1003600022503109220F331F4FB7F8948E2F90E09F
:10037000FC01EE0FFF1FE80FF91FE853FD4F32831A
:1003800021834FBF089596E0899FD0011124AA5A76
:10039000BD4F90967C936E935F9791E091969C935E
:1003A0009197E091C302F091C4029091C202992307
:1003B00039F0309751F0811108C080917202199480
:1003C000309719F05C968C91FACF0895CF92DF9216
:1003D000EF92FF920F931F9396E0899FF0011124F3
:1003E000EA5AFD4F11A2278D30A12130310551F17C
:1003F00078F02230310509F451C02330310509F479
:1004000052C01F910F91FF90EF90DF90CF90089511
:100410006623B9F361E070E00E94C3012FB7F8943E
:100420008091520290915302A0915402B0915502D2
:100430002FBF8093AE029093AF02A093B002B0930F
:10044000B102DFCF9FB7F894C0905202D090530210
:10045000E0905402F09055029FBF0091AE021091BF
:10046000AF022091B0023091B102C01AD10AE20A63
:10047000F30A0091C0021091C10230E020E00C1597
:100480001D052E053F0550F462E070E01F910F91AD
:10049000FF90EF90DF90CF900C94C3016111B1CF2A
:1004A00063E070E0F3CF70E060E0F0CFAF92BF9216
:1004B000CF92DF92EF92FF920F931F93CF93DF9330
:1004C0006C017B018B01040F151FEB015E01AE185F
:1004D000BF08C017D10759F06991D601ED91FC9181
:1004E0000190F081E02DC6011995892B79F7C5019E
:1004F000DF91CF911F910F91FF90EF90DF90CF9000
:10050000BF90AF9008958150823108F05AC0E82F13
:10051000F0E08827E157FD4F8F4F0C94780FAF0222
:10052000B302A102A702AB02E102B602BC02C00202
:10053000C602CA02CE02D402D802E102DC02E20202
:10054000E602809180008F778093800008958091EB
:1005500080008F7DF9CF80918000877FF5CF84B5B3
:100560008F7784BD089584B58F7DFBCF8091B000D7
:100570008F778093B00008958091B0008F7DF9CF80
:10058000809190008F7780939000089580919000E3
:100590008F7DF9CF80919000877FF5CF8091A0006B
:1005A0008F778093A00008958091A0008F7DF9CF70
:1005B0008091A000877FF5CF809120018F77809375
:1005C00020010895809120018F7DF9CF8091200135
:1005D000877FF5CFCF93DF93282F30E0F901E659DD
:1005E000FD4F8491F901EC5DFD4FD491F901E25288
:1005F000FE4FC491CC23A1F081110E948302EC2F05
:10060000F0E0EE0FFF1FEC53FE4FA591B491EC917B
:10061000ED2381E090E009F480E0DF91CF9108952F
:1006200080E090E0FACF862F0C94EA021F93CF93DC
:10063000DF93282F30E0F901E659FD4F8491F9014D
:10064000EC5DFD4FD491F901E252FE4FC491CC23F1
:10065000A9F0162F81110E948302EC2FF0E0EE0F1B
:10066000FF1FE655FE4FA591B4918FB7F894EC911A
:10067000111108C0D095DE23DC938FBFDF91CF919D
:100680001F910895DE2BF8CF862F642F0C9416034C
:10069000CF93DF9390E0FC01EC5DFD4F24918252FB
:1006A0009E4FFC0184918823C9F090E0880F991F28
:1006B000FC01E057FE4FA591B491FC01E655FE4FB9
:1006C000C591D49161110DC09FB7F8948C9120957C
:1006D00082238C938881282328839FBFDF91CF9129
:1006E0000895623051F49FB7F8943C91822F809521
:1006F00083238C93E8812E2BEFCF8FB7F894EC9166
:100700002E2B2C938FBFEACF862F642F0C94480397
:100710001F93CF93DF93182FEB0161E00E944803F2
:10072000209739F460E0812FDF91CF911F910C94D5
:100730001603CF3FD10511F461E0F5CFE12FF0E0D2
:10074000E659FD4FE491E150E23108F0B3C0F0E02A
:100750008827E255FC4F8F4F0C94780FC003C803D5
:10076000CD03D703E1035A04EB03F303FB030504B2
:100770000F041904280432045A043C0446045004AB
:1007800084B5806884BDC7BDDF91CF911F91089566
:1007900084B5806284BDC8BDF7CF80918000806839
:1007A00080938000D0938900C0938800EDCF809122
:1007B0008000806280938000D0938B00C0938A0079
:1007C000E3CF80918000886080938000D0938D007B
:1007D000C0938C00D9CF8091B00080688093B00026
:1007E000C093B300D1CF8091B00080628093B000FD
:1007F000C093B400C9CF809190008068809390002E
:10080000D0939900C0939800BFCF809190008062F0
:1008100080939000D0939B00C0939A00B5CF8091B5
:100820009000886080939000D0939D00C0939C00BE
:10083000ABCF8091A00080688093A0008091A00041
:100840008F7B8093A000D093A900C093A8009CCF79
:100850008091A00080628093A000D093AB00C093F1
:10086000AA0092CF8091A00088608093A000D093CE
:10087000AD00C093AC0088CF809120018068809348
:100880002001D0932901C09328017ECF80912001BF
:10089000806280932001D0932B01C0932A0174CFF2
:1008A00080912001886080932001D0932D01C09316
:1008B0002C016ACFC038D1050CF03ECF33CF3FB703
:1008C000F89480914A0290914B02A0914C02B09111
:1008D0004D0226B5A89B05C02F3F19F00196A11D1A
:1008E000B11D3FBFBA2FA92F982F8827BC01CD017A
:1008F000620F711D811D911D42E0660F771F881FD9
:10090000991F4A95D1F708958F929F92AF92BF9207
:10091000CF92DF92EF92FF920E945F044B015C0145
:100920008AEFC82ED12CE12CF12C0E945F046819AB
:1009300079098A099B09683E734081059105A8F3EE
:1009400021E0C21AD108E108F10888EE880E83E0A0
:10095000981EA11CB11CC114D104E104F10429F7B3
:10096000FF90EF90DF90CF90BF90AF909F908F90CF
:100970000895AF92BF92CF92DF92EF92FF920F93C2
:100980001F93CF93DF936B017A01EC01CB5BDD4FBB
:1009900028813CE0389F8001399F100D1124A090E0
:1009A0004402B12C27FF1FC0FB01118210828881F5
:1009B0008F5F888388819801280F311D87FD3A95C4
:1009C000F6012A153B051CF488818C30C4F1808126
:1009D0009181049680349C4908F473C0F6018081AB
:1009E0009181049670C088819801280F311D87FD80
:1009F0003A952A153B05DCF68881A801480F511D60
:100A000087FD5A95FA01EE0FFF1FE40FF51FE8531B
:100A1000FD4F808186FFCBCF8881F801E80FF11D63
:100A200087FDFA95CF01EE0FFF1FE80FF91FE8537E
:100A3000FD4F808160E08F730E941603B8CF8081E4
:100A400091812881A801420F511D27FD5A959A01D5
:100A5000FA01EE0FFF1FE20FF31FE853FD4F218154
:100A60003281820F931FF7019183808388819801DF
:100A7000280F311D87FD3A95F901EE0FFF1FE20F98
:100A8000F31FE853FD4F808186FF22C08881080F45
:100A9000111D87FD1A95F801EE0FFF1FE00FF11FE2
:100AA000E853FD4F808161E08F73DF91CF911F91FB
:100AB0000F91FF90EF90DF90CF90BF90AF900C948C
:100AC000160380E49CE9F701918380838FEF88838C
:100AD000DF91CF911F910F91FF90EF90DF90CF901A
:100AE000BF90AF900895089590E080E00895CF936F
:100AF000DF93EC018091700390917103009759F09E
:100B000020917203309173032C173D0720F081E090
:100B1000DF91CF910895BE016F5F7F4F0E94A510B6
:100B2000009789F09093710380937003D0937303BF
:100B3000C09372032091740330917503232B39F70E
:100B4000FC011082E4CF80E0E3CF8F929F92AF92BE
:100B5000BF920F931F93CF93DF93CDB7DEB7A197CB
:100B60000FB6F894DEBF0FBECDBF19A2423008F415
:100B70004AE08E010F5D1F4F842E912CB12CA12CC9
:100B8000A50194010E94350EE62FB901CA01EA3091
:100B900044F5E05DD801EE938D01232B242B252B0A
:100BA00079F790E080E0109769F0FD010190002056
:100BB000E9F73197AF014A1B5B0BBD0188E593E074
:100BC0000E945602A1960FB6F894DEBF0FBECDBFAD
:100BD000DF91CF911F910F91BF90AF909F908F9019
:100BE0000895E95CD7CFCF93DF93EC0160E08E816D
:100BF0000E94160361E08E810E94160360E08E81E0
:100C00000E9416038BE891E00197F1F7DF91CF91F5
:100C10000895CF92DF92EF92FF920F931F93CF939D
:100C2000DF936C017C0187E0E80EF11CD0E0C0E0AE
:100C3000062F10E0B8010C2E02C0759567950A9436
:100C4000E2F76170F70181917F010E9416032196FE
:100C5000C430D10579F7C601DF91CF911F910F9173
:100C6000FF90EF90DF90CF900C94F305CF92DF923E
:100C7000EF92FF920F931F93CF93DF93EC01F62E29
:100C8000642F8C810E9416038D818F3F19F060E0E4
:100C90000E9416030F2D10E08F8584FF25C06E0182
:100CA00087E0C80ED11CF12CE12CB8010E2C02C03B
:100CB000759567950A94E2F76170F60181916F016D
:100CC0000E941603FFEFEF1AFF0A88E0E816F1040E
:100CD00061F7CE01DF91CF911F910F91FF90EF90BF
:100CE000DF90CF900C94F305B80184E0759567957B
:100CF0008A95E1F7CE010E9409066F2DCE01DF91A2
:100D0000CF911F910F91FF90EF90DF90CF900C94B7
:100D1000090640E0682F88E593E00C94360681E0F0
:100D20000E9489068BE39FE10197F1F70895CF9325
:100D3000DF93823029F49091670398609093670362
:100D400080936B0310926C0380E480936D0380E1C9
:100D500080936E0380E580936F0361E080915C0374
:100D60000E94480380915D038F3F19F061E00E946B
:100D7000480361E080915E030E944803C8E5D3E028
:100D80009E01285533408091670384FD0BC084E0A9
:100D900090E021962817390744F461E08E810E9483
:100DA0004803EECF88E090E0F4CF8BE39DE001971D
:100DB000F1F760E080915C030E94160360E080918F
:100DC0005E030E94160380915D038F3F19F060E07F
:100DD0000E9416038091670384FD34C063E088E5B8
:100DE00093E00E940906CBE4D6E4CE010197F1F727
:100DF00063E088E593E00E9409062197F1F763E03C
:100E000088E593E00E94090683E592E00197F1F7F7
:100E100062E088E593E00E940906809167038062A2
:100E20000E94890684E0809368038CE00E94890612
:100E30000E948F0682E08093690386E0DF91CF9164
:100E40000C94890680620E9489068BE496E40197DF
:100E5000F1F78091670380620E94890683E592E042
:100E60000197F1F78091670380620E948906D5CFD0
:100E700041E00E94360681E090E00895CF92DF9233
:100E8000EF92FF926C01990FEE08FF08F7FE16C073
:100E900041E06DE288E593E00E94360666277727F9
:100EA000CB016C197D098E099F094AE00E94A505B6
:100EB0000196FF90EF90DF90CF9008954AE0C70130
:100EC000B601FF90EF90DF90CF900C94A5050E94A3
:100ED0008F06E1E080916B038111E0E0E195F0E0A5
:100EE000E85AFC4F848980680E94890646E050E0F9
:100EF00064E372E088E593E00E94560280914E021E
:100F000090914F020E943E07E0916B03E230B0F4F3
:100F1000E150F0E0E85AFC4F848980680E9489061D
:100F200048E050E06BE372E088E593E00E945602EF
:100F300080915002909151020C943E07E1E0E9CF7C
:100F400090E080E00E94770520917003309171035A
:100F5000811113C02115310519F0C9010E941C101F
:100F60001092710310927003109275031092740323
:100F700010927303109272030895109275031092E9
:100F800074036AE372E0C9010C948F1180917003BD
:100F900090917103009711F00C94FE0C60E070E0EA
:100FA000CB0108951F920F920FB60F9211242F9329
:100FB0003F938F939F93AF93BF93809152029091F1
:100FC0005302A0915402B09155023091490223E09E
:100FD000230F2D3758F50196A11DB11D209349020D
:100FE0008093520290935302A0935402B0935502FF
:100FF00080914A0290914B02A0914C02B0914D0217
:101000000196A11DB11D80934A0290934B02A093BB
:101010004C02B0934D02BF91AF919F918F913F9140
:101020002F910F900FBE0F901F90189526E8230F59
:101030000296A11DB11DD2CF1F920F920FB60F9233
:1010400011240BB60F922F933F934F935F936F939F
:101050007F938F939F93AF93BF93EF93FF9348E258
:1010600051E064E271E090E080E00E94B904FF91F9
:10107000EF91BF91AF919F918F917F916F915F9110
:101080004F913F912F910F900BBE0F900FBE0F907D
:101090001F9018951F920F920FB60F9211240BB646
:1010A0000F922F933F934F935F936F937F938F9301
:1010B0009F93AF93BF93EF93FF9348EA50E064EAA6
:1010C00070E083E090E00E94B904FF91EF91BF913E
:1010D000AF919F918F917F916F915F914F913F91D0
:1010E0002F910F900BBE0F900FBE0F901F90189571
:1010F0001F920F920FB60F9211240BB60F922F93DF
:101100003F934F935F936F937F938F939F93AF938F
:10111000BF93EF93FF9348E950E064E970E082E009
:1011200090E00E94B904FF91EF91BF91AF919F9120
:101130008F917F916F915F914F913F912F910F9080
:101140000BBE0F900FBE0F901F9018951F920F921D
:101150000FB60F9211240BB60F922F933F934F931C
:101160005F936F937F938F939F93AF93BF93EF930F
:10117000FF9348E850E064E870E081E090E00E946E
:10118000B904FF91EF91BF91AF919F918F917F91A2
:101190006F915F914F913F912F910F900BBE0F90E8
:1011A0000FBE0F901F901895CF93DF931F921F9241
:1011B000CDB7DEB7789484B5826084BD84B5816094
:1011C00084BD85B5826085BD85B5816085BD809112
:1011D0006E00816080936E0010928100809181008A
:1011E0008260809381008091810081608093810082
:1011F000809180008160809380008091B100846044
:101200008093B1008091B00081608093B0008091A4
:101210009100826080939100809191008160809321
:101220009100809190008160809390008091A10056
:1012300082608093A1008091A10081608093A100D1
:101240008091A00081608093A00080912101826044
:1012500080932101809121018160809321018091FF
:10126000200181608093200180917A0084608093C6
:101270007A0080917A00826080937A0080917A006F
:10128000816080937A0080917A00806880937A00F0
:101290001092C1008091C502803308F052C061E015
:1012A00087E00E9448038091C502282F30E0F901B1
:1012B000EE0FFF1FE20FF31FE853FD4F9081907C6C
:1012C000976090831092C6021092C7022CE0622FA2
:1012D0000E946C0F829FB001112430E020E0AB012E
:1012E000420F531FFA01EE0FFF1FE40FF51FE853E3
:1012F000FD4F908196FD17C02F5F3F4F2C30310579
:1013000071F7813009F067C01092800082E080930D
:1013100081001092850010928400B19A80916F0034
:10132000826080936F00E091C5028E2F90E0FC01F7
:10133000EE0FFF1FE80FF91FE853FD4F8081806417
:10134000808361E085E00E94480382E00E94970666
:101350000E948F060E946707412C512C3201439452
:1013600040E0A42E40E0B42E51E05093C2028FB76B
:10137000F89440915202509153026091540270913E
:1013800055028FBF8091B2029091B302A091B40236
:10139000B091B502481B590B6A0B7B0B8091BE02C2
:1013A0009091BF02B0E0A0E084179507A607B707A9
:1013B00008F0EEC110E08091BC021817C0F5E09172
:1013C000B802F091B902E10FF11D62E080810E9444
:1013D00048031F5FF0CF823061F410929000809339
:1013E0009100109295001092940088BB8093710038
:1013F0009ACF833069F41092A00082E08093A1001C
:101400001092A5001092A40089BB809372008BCF2C
:10141000811189CF1092200182E0809321011092E6
:101420002501109224018ABB809373007CCF312C5C
:101430008091BD02381608F061C0E32CF12CE091D8
:10144000BA02F091BB02EE0DFF1D61E080810E94A7
:101450004803E091BA02F091BB02EE0DFF1D60E07F
:1014600080810E941603D301C201032C04C0880F9F
:10147000991FAA1FBB1F0A94D2F74C016C01C0949C
:10148000D094212C8091BC02281608F5022D10E082
:10149000E091B802F091B902E00FF11F80810E9443
:1014A000EA020C5F1F4F000F111FF801EA5AFD4FAF
:1014B000892B41F4808191818829992991838083A6
:1014C0002394E0CF808191818C219D21F7CFE09101
:1014D000BA02F091BB02EE0DFF1D61E080810E9417
:1014E00016038091BA029091BB02E80EF91E60E0EB
:1014F000F70180810E94480333949ACF06E512E0F9
:101500007801F701878D90A1892B31F4148E8FEF2C
:101510009FEF968F858F11A296E0E90EF11CE2E90C
:10152000EE16E2E0FE0669F7912C8091BC02981657
:1015300008F053C0812CC92CD12CCC0CDD1CC60169
:10154000825A9D4F6C012091BD02821608F043C063
:10155000F60160817181082C02C0769567950A9426
:10156000E2F7929E90011124280D311DE6E5F2E08C
:1015700080E0458D568D2417350709F471C18F5FC2
:1015800036968A30B1F760FF24C0E6E5F2E090E0DD
:1015900080E0448D411118C0E091B602F091B7028D
:1015A000E20FF31F408156E0589FF001599FF00D64
:1015B0001124EA5AFD4F448F368F258F10A2178EC3
:1015C00061E00E94E60105C0019636968A309105D9
:1015D00001F78394B8CF9394A8CF80E0F80191A14C
:1015E0009111892F0A5F1F4FE016F106B9F79FB7D7
:1015F000F8944091520250915302609154027091BC
:1016000055029FBF4093B2025093B3026093B4025D
:101610007093B502882309F4BBC0809177028823B8
:1016200009F4B6C08091750290917602019709F095
:10163000AFC0809172028111AEC083E00E94EA02C5
:10164000892BB9F480914E0290914F028E3C910506
:1016500074F4C29690934F0280934E020E946707E3
:1016600060914E0270914F0285E00E9488030E94B3
:10167000840484E00E94EA02892BB9F480914E022E
:1016800090914F028233910574F0C29790934F026C
:1016900080934E020E94670760914E0270914F0244
:1016A00085E00E9488030E94840480E10E94EA028F
:1016B000892B89F5809150029091510289329105D0
:1016C00044F5059690935102809350020E9467075B
:1016D0006091500270915102072E000C880B990BFB
:1016E0000E943C0D20E030E044EB53E40E94C40E25
:1016F00020E030E04AE754E40E94770D20E030E833
:101700004BEB54E40E94580E0E94360FCB010E940E
:101710008D010E94840481E10E94EA02892B89F5EF
:1017200080915002909151028530910544F10597C6
:1017300090935102809350020E946707609150027B
:1017400070915102072E000C880B990B0E943C0DE2
:1017500020E030E044EB53E40E94C40E20E030E08F
:101760004AE754E40E94770D20E030E84BEB54E464
:101770000E94580E0E94360FCB010E948D010E94DC
:101780008404A114B10409F4EFCD0E940000ECCD53
:101790001092C20252CF8B3261F50E94C6076E32A0
:1017A0007105810591050CF048CF0E943C0D20E0A9
:1017B00030E044EB53E40E94C40E20E030E04AE7FE
:1017C00054E40E94770D20E030E84BEB54E40E9493
:1017D000580E0E94360FCB010E948D010E94C60751
:1017E00070935102609350020E9467070E94A00705
:1017F00024CF8A3299F40E94C6076F3F7105810594
:10180000910511F00CF019CF85E00E9488030E9429
:10181000C60770934F0260934E02E6CF89831A8207
:1018200000917403109175030F5F1F4FC8010E9450
:101830007705882309F401CF20917003309171035B
:101840008091740390917503BE016F5F7F4F820F8B
:10185000931F0E948F111093750300937403EDCEB4
:101860006170AFCE1092580210925C0210925B022F
:1018700010925D028EE292E090935702809356029E
:10188000E2E7F2E01082148213821582369682E03B
:10189000EE3AF807B9F784E092E09093B9028093AA
:1018A000B80280E092E09093BB028093BA0284E099
:1018B0008093BC028093BD0288E092E09093B702CF
:1018C0008093B6028AE090E09093BF028093BE02BC
:1018D00084EF91E09093C1028093C0021092C40201
:1018E0001092C3021092B2021092B3021092B4028C
:1018F0001092B5021092C20280914402803308F027
:1019000067C091E0980F909344028093C50290E0E5
:10191000FC01EE0FFF1FE80FF91FE853FD4F88EBA6
:101920009BE09283818310925B0310925A0382E2C0
:1019300092E090935903809358038DE080935C0369
:101940008FEF80935D038CE080935E0388E080934B
:101950005F0389E0809360038AE0809361038BE0FA
:1019600080936203109263031092640310926503E4
:10197000109266031092670381E00E94970610920E
:1019800071031092700310927303109272031092FD
:1019900075031092740390E080E00E947705209117
:1019A000700330917103811117C02115310519F0B1
:1019B000C9010E941C1010927103109270031092C2
:1019C00075031092740310927303109272030895BA
:1019D0008FEF8093C502A7CF109275031092740306
:1019E0006AE372E0C9010C948F11809170039091A9
:1019F0007103009711F00C941C1008951F93FC01C3
:101A000099278827BC01E89411911032E9F3193025
:101A100010F01E30C8F31B3251F01D3249F46894A7
:101A200006C00E94250D610F711D811D911D119130
:101A300010531A30B0F33EF49095809570956195EF
:101A40007F4F8F4F9F4F1F910895592F482F372F4A
:101A5000262F660F771F881F991F660F771F881F15
:101A6000991F620F731F841F951F660F771F881FB2
:101A7000991F0895E89409C097FB3EF490958095CE
:101A8000709561957F4F8F4F9F4F9923A9F0F92F44
:101A900096E9BB279395F695879577956795B795C2
:101AA000F111F8CFFAF4BB0F11F460FF1BC06F5FA8
:101AB0007F4F8F4F9F4F16C0882311F096E911C0BA
:101AC000772321F09EE8872F762F05C0662371F0DB
:101AD00096E8862F70E060E02AF09A95660F771FEF
:101AE000881FDAF7880F9695879597F908950E94D1
:101AF0008A0D0C94FB0D0E94ED0D38F00E94F40D40
:101B000020F0952311F00C94E40D0C94EA0D1124AF
:101B10000C942F0E0E940C0E70F3959FC1F3950F3D
:101B200050E0551F629FF001729FBB27F00DB11D61
:101B3000639FAA27F00DB11DAA1F649F6627B00DF1
:101B4000A11D661F829F2227B00DA11D621F739FDA
:101B5000B00DA11D621F839FA00D611D221F749FE8
:101B60003327A00D611D231F849F600D211D822F2F
:101B7000762F6A2F11249F5750409AF0F1F0882356
:101B80004AF0EE0FFF1FBB1F661F771F881F915083
:101B90005040A9F79E3F510580F00C94E40D0C9441
:101BA0002F0E5F3FE4F3983ED4F3869577956795C3
:101BB000B795F795E7959F5FC1F7FE2B880F911DAD
:101BC0009695879597F9089597F99F6780E870E053
:101BD00060E008959FEF80EC089500240A941616A3
:101BE000170618060906089500240A94121613060B
:101BF000140605060895092E0394000C11F4882399
:101C000052F0BB0F40F4BF2B11F460FF04C06F5FB4
:101C10007F4F8F4F9F4F089557FD9058440F551F8A
:101C200059F05F3F71F04795880F97FB991F61F05E
:101C30009F3F79F087950895121613061406551FD5
:101C4000F2CF4695F1DF08C0161617061806991F41
:101C5000F1CF86957105610508940895E894BB2736
:101C600066277727CB0197F90895A1E21A2EAA1BC0
:101C7000BB1BFD010DC0AA1FBB1FEE1FFF1FA2173C
:101C8000B307E407F50720F0A21BB30BE40BF50B39
:101C9000661F771F881F991F1A9469F760957095C2
:101CA000809590959B01AC01BD01CF0108955058DE
:101CB000BB27AA270E946F0E0C94FB0D0E94ED0D0E
:101CC00038F00E94F40D20F039F49F3F19F426F407
:101CD0000C94EA0D0EF4E095E7FB0C94E40DE92F6B
:101CE0000E940C0E58F3BA17620773078407950712
:101CF00020F079F4A6F50C942E0E0EF4E0950B2E40
:101D0000BA2FA02D0B01B90190010C01CA01A0014D
:101D10001124FF27591B99F0593F50F4503E68F1A8
:101D20001A16F040A22F232F342F4427585FF3CFE9
:101D3000469537952795A795F0405395C9F77EF4BA
:101D40001F16BA0B620B730B840BBAF09150A1F003
:101D5000FF0FBB1F661F771F881FC2F70EC0BA0F89
:101D6000621F731F841F48F4879577956795B79511
:101D7000F7959E3F08F0B0CF9395880F08F099270C
:101D8000EE0F9795879508950E94D80E0C94FB0D41
:101D90000E94F40D58F00E94ED0D40F029F45F3FD1
:101DA00029F00C94E40D51110C942F0E0C94EA0DB3
:101DB0000E940C0E68F39923B1F3552391F3951B00
:101DC000550BBB27AA2762177307840738F09F5F5C
:101DD0005F4F220F331F441FAA1FA9F335D00E2EC9
:101DE0003AF0E0E832D091505040E695001CCAF736
:101DF0002BD0FE2F29D0660F771F881FBB1F2617F9
:101E000037074807AB07B0E809F0BB0B802DBF01CF
:101E1000FF2793585F4F3AF09E3F510578F00C949E
:101E2000E40D0C942F0E5F3FE4F3983ED4F38695B7
:101E300077956795B795F7959F5FC9F7880F911DBF
:101E40009695879597F90895E1E0660F771F881FAB
:101E5000BB1F621773078407BA0720F0621B730B5E
:101E6000840BBA0BEE1F88F7E09508950E943D0F92
:101E70006894B1110C942F0E08950E94140E88F0EE
:101E80009F5798F0B92F9927B751B0F0E1F0660F3E
:101E9000771F881F991F1AF0BA95C9F714C0B1307F
:101EA00091F00E942E0EB1E008950C942E0E672F33
:101EB000782F8827B85F39F0B93FCCF386957795AE
:101EC0006795B395D9F73EF4909580957095619597
:101ED0007F4F8F4F9F4F0895991B79E004C0991F42
:101EE000961708F0961B881F7A95C9F78095089574
:101EF000EE0FFF1F881F8BBF0790F691E02D1994FE
:101F00000F931F93CF93DF938230910510F482E0FB
:101F100090E0E0917803F091790330E020E0B0E0C8
:101F2000A0E0309799F42115310509F44AC0281B27
:101F3000390B24303105D8F58A819B8161157105F3
:101F400089F1FB0193838283FE0111C0408151819D
:101F50000281138148175907E0F04817590799F48F
:101F6000109761F012960C93129713961C93329669
:101F7000CF01DF91CF911F910F91089500937803C6
:101F800010937903F4CF2115310551F0421753070F
:101F900038F0A901DB019A01BD01DF01F801C1CFD1
:101FA000EF01F9CF9093790380937803CDCFFE01B1
:101FB000E20FF31F819391932250310939832883D3
:101FC000D7CF2091760330917703232B41F42091D2
:101FD0001A0230911B0230937703209376032091ED
:101FE0001802309119022115310541F42DB73EB781
:101FF00040911C0250911D02241B350BE091760389
:10200000F0917703E217F307A0F42E1B3F0B28177C
:10201000390778F0AC014E5F5F4F2417350748F061
:102020004E0F5F1F509377034093760381939193F4
:102030009FCFF0E0E0E09CCFCF93DF930097E9F0F3
:10204000FC01329713821282A0917803B091790338
:10205000ED0130E020E01097A1F420813181820F62
:10206000931F20917603309177032817390709F0E1
:1020700061C0F0937703E0937603DF91CF910895E9
:10208000EA01CE17DF07E8F54A815B819E01411521
:102090005105B1F7E901FB83EA8349915991C40FD6
:1020A000D51FEC17FD0761F4808191810296840FA2
:1020B000951FE90199838883828193819B838A8319
:1020C000F0E0E0E012968D919C9113970097B9F59E
:1020D0002D913C911197CD010296820F931F209173
:1020E0007603309177032817390739F6309751F581
:1020F0001092790310927803B0937703A09376033C
:10210000BCCFD383C28340815181840F951FC817F0
:10211000D90761F44E5F5F4F88819981480F591F3D
:10212000518340838A819B8193838283211531056A
:1021300009F0B0CFF0937903E09378039ECFFD01CF
:10214000DC01C0CF13821282D7CF4F925F926F9281
:102150007F928F929F92AF92BF92CF92DF92EF9237
:10216000FF920F931F93CF93DF938C01009799F405
:10217000CB01DF91CF911F910F91FF90EF90DF90F6
:10218000CF90BF90AF909F908F907F906F905F9017
:102190004F900C94800FFC01E60FF71F9C0122501A
:1021A0003109E217F30708F4AEC0D901CD91DC91F3
:1021B0001197C617D70720F1C530D10578F0CE01A9
:1021C00004978617970750F0C61BD70B2297C19329
:1021D000D1936D937C93CF010E941C10C801DF91B5
:1021E000CF911F910F91FF90EF90DF90CF90BF9014
:1021F000AF909F908F907F906F905F904F900895D9
:102200005B01AC1ABD0A4C018C0E9D1EA091780397
:10221000B0917903512C412CF12CE12C109731F520
:1022200080917603909177038815990509F05CC039
:102230004616570608F058C080911802909119026E
:10224000009741F48DB79EB740911C0250911D023A
:10225000841B950BE817F90708F055C0F093770336
:10226000E0937603F90171836083B8CF8D919C91DF
:10227000119712966C90129713967C901397A8154D
:10228000B90559F56C0142E0C40ED11CCA14DB0437
:1022900020F1AC014A195B09DA011296159780F01A
:1022A0006282738251834083D9016D937C93E114E0
:1022B000F10471F0D7011396FC93EE9312978ECF31
:1022C00022968C0F9D1FF90191838083F301EFCF3C
:1022D000F0937903E093780381CF4816590608F408
:1022E0002C017D01D3019ACFCB010E94800F7C018C
:1022F000009749F0AE01B8010E948611C8010E9402
:102300001C1087016BCF10E000E068CFFB01DC01FF
:1023100002C001900D9241505040D8F70895FB0142
:10232000DC0101900D920020E1F7089511E0C9E56C
:10233000D1E000E006C0802FFE010E94780F2196B8
:10234000011DCA35D10780E00807A9F7F894FFCF2F
:1023500017191B1D1F2123253738392B3435362DEE
:102360003132332D23302A2A00007A038000000006
:10237000000038075602740573050000000084034E
:102380004403130353706565643A00496E636C69D6
:042390006E653A003C
:00000001FF
