:100000000C942E010C945F010C945F010C945F0121
:100010000C945F010C945F010C945F010C945F01E0
:100020000C945F010C945F010C945F010C945F01D0
:100030000C945F010C945F010C945F010C945F01C0
:100040000C945F010C945F010C945F010C945F01B0
:100050000C945F010C945F010C945F010C941005EB
:100060000C945F010C94DA040C94B0040C945F01BE
:100070000C945F010C945F010C945F010C945F0180
:100080000C945F010C945F010C945F010C945F0170
:100090000C945F010C945F010C945F010C945F0160
:1000A0000C945F010C945F010C945F010C945F0150
:1000B0000C945F010C945F010C945F010C945F0140
:1000C0000C945F010C945F010C945F010C945F0130
:1000D0000C945F010C945F010C945F010C945F0120
:1000E0000C945F010C943A030C94AA040C948001C4
:1000F0000C940A030C94FF020C94E4020C941A036F
:100100000C9407030C94D0010C94BC010C942803AC
:100110000C94AD010C9422030C9416020C94DE0195
:100120000C9463020C9403030C9436030C94660342
:100130000C945A050C9430030C94FB020C94650348
:100140000C941E030C942C030C94E9020C941003E1
:100150000C94140300000A0B02090C0D0E0807038F
:10016000040100000000000000000000000000008A
:10017000000000000000000000000000000000007F
:10018000121110000000000000000000000000003C
:100190000000000000000000000000002200250018
:1001A00028002B002E003100340002010000050160
:1001B00008010B0100002100240027002A002D0067
:1001C0003000330001010000040107010A010505A8
:1001D0000505070508080808020202020A0A0808BD
:1001E00004040404010101010101010103030303EB
:1001F00003030303040707070C0C0C0C0C0C0C0C7A
:100200000202020206060606060606060B0B0B0B8A
:100210000B0B0B0B010210202008081020401020AF
:1002200040800201020108040201010204081020BA
:1002300040808040201008040201800402018040B8
:100240002010080402010804020101020408102021
:10025000408001020408102040805A0511241FBE6E
:10026000CFEFD1E2DEBFCDBF00E00CBF12E0A0E0D7
:10027000B2E0EEEAFDE000E00BBF02C007900D9295
:10028000AE31B107D9F722E0AEE1B2E001C01D9274
:10029000A23EB207E1F711E0CEE2D1E000E006C0F5
:1002A00021970109802FFE010E94CD06CD32D10792
:1002B00080E00807A9F70E94A4050C94D5060C94C9
:1002C000000090E0FC01EC5EFD4F249182539E4FB4
:1002D000FC018491882399F090E0880F991FFC011C
:1002E000EC54FE4FA591B491FC01E656FE4F85916A
:1002F00094918FB7F894EC91E22BEC938FBF089513
:10030000AF92BF92CF92DF92EF92FF920F931F9323
:10031000CF93DF936C017B018B01040F151FEB0161
:100320005E01AE18BF08C017D10759F06991D60118
:10033000ED91FC910190F081E02DC6011995892B7A
:1003400079F7C501DF91CF911F910F91FF90EF9049
:10035000DF90CF90BF90AF900895FC01538D448DF6
:10036000252F30E0842F90E0821B930B541710F060
:10037000CF96089501970895FC01918D828D98176D
:1003800061F0A28DAE0FBF2FB11D5D968C91928D45
:100390009F5F9F73928F90E008958FEF9FEF089576
:1003A000FC01918D828D981731F0828DE80FF11D3F
:1003B000858D90E008958FEF9FEF0895FC01918D5A
:1003C000228D892F90E0805C9F4F821B91098F7353
:1003D000992708958DE292E00E94DE0121E0892BA9
:1003E00009F420E0822F0895FC01A48DA80FB92FF5
:1003F000B11DA35ABF4F2C91848D90E001968F734D
:100400009927848FA689B7892C93A089B1898C916B
:10041000837080648C93938D848D981306C00288BA
:10042000F389E02D80818F7D80830895EF92FF9284
:100430000F931F93CF93DF93EC0181E0888F9B8D07
:100440008C8D98131AC0E889F989808185FF15C0C1
:100450009FB7F894EE89FF896083E889F9898081E4
:100460008370806480839FBF81E090E0DF91CF91B3
:100470001F910F91FF90EF900895F62E0B8D10E0D5
:100480000F5F1F4F0F731127E02E8C8D8E110CC044
:100490000FB607FCFACFE889F989808185FFF5CF8F
:1004A000CE010E94F401F1CFEB8DEC0FFD2FF11D79
:1004B000E35AFF4FF0829FB7F8940B8FEA89FB89CC
:1004C00080818062CFCFCF93DF93EC01888D88232A
:1004D000B9F0AA89BB89E889F9898C9185FD03C0A7
:1004E000808186FD0DC00FB607FCF7CF8C9185FF8C
:1004F000F2CF808185FFEDCFCE010E94F401E9CFDC
:10050000DF91CF91089580E090E0892B29F00E943F
:10051000EA0181110E94000080E090E0892B49F0FF
:1005200080E090E0892B29F00E94000081110E9458
:10053000000080E090E0892B49F080E090E0892B7A
:1005400029F00E94000081110E94000080E090E0EC
:10055000892B49F080E090E0892B29F00E9400006F
:1005600081110C9400000895282F30E0F901EC5A15
:10057000FE4F9491F901EC5EFD4F449122533E4FA2
:10058000F9012491222309F435C0992311F19150E6
:100590009231F8F4E92FF0E08827EE52FD4F8F4FAB
:1005A0000C94CD0603030703E402FB02FF02E902F9
:1005B0000A03100314031A031E03220328032C0347
:1005C000E902300336033A03809180008F778093ED
:1005D0008000E22FF0E0EE0FFF1FE656FE4FA591E0
:1005E000B4918FB7F894EC91611148C040954E23B7
:1005F0004C938FBF0895809180008F7DE8CF8091CC
:100600008000877FE4CF84B58F7784BDE2CF84B547
:100610008F7DFBCF8091B0008F778093B000D9CFD2
:100620008091B0008F7DF9CF809190008F7780937B
:100630009000CFCF809190008F7DF9CF8091900076
:10064000877FF5CF8091A0008F778093A000C1CFE6
:100650008091A0008F7DF9CF8091A000877FF5CF9A
:10066000809120018F7780932001B3CF809120016A
:100670008F7DF9CF80912001877FF5CF4E2BB8CFAA
:100680003FB7F8948091230290912402A091250213
:10069000B091260226B5A89B05C02F3F19F0019600
:1006A000A11DB11D3FBFBA2FA92F982F8827BC01CC
:1006B000CD01620F711D811D911D42E0660F771FF4
:1006C000881F991F4A95D1F70895089590E080E01A
:1006D0000895CF93DF93EC0160E08E810E94B40215
:1006E00061E08E810E94B40260E08E810E94B402BB
:1006F0008BE891E00197F1F7DF91CF910895CF92C8
:10070000DF92EF92FF920F931F93CF93DF936C01D1
:100710007C0187E0E80EF11CD0E0C0E0062F10E07D
:10072000B8010C2E02C0759567950A94E2F76170C6
:10073000F70181917F010E94B4022196C430D10556
:1007400079F7C601DF91CF911F910F91FF90EF9044
:10075000DF90CF900C946903CF92DF92EF92FF92DB
:100760000F931F93CF93DF93EC01F62E642F8C81B0
:100770000E94B4028D818F3F19F060E00E94B402A4
:100780000F2D10E08F8584FF25C06E0187E0C80E15
:10079000D11CF12CE12CB8010E2C02C07595679587
:1007A0000A94E2F76170F60181916F010E94B40230
:1007B000FFEFEF1AFF0A88E0E816F10461F7CE01B7
:1007C000DF91CF911F910F91FF90EF90DF90CF902D
:1007D0000C946903B80184E0759567958A95E1F7F3
:1007E000CE010E947F036F2DCE01DF91CF911F912B
:1007F0000F91FF90EF90DF90CF900C947F0340E03B
:10080000682F8AEC92E00C94AC0381E00E94FF0315
:100810008BE39FE10197F1F70895CF93DF93823047
:1008200029F49091D90298609093D9028093DD02C7
:100830001092DE0280E48093DF0280E18093E00288
:1008400080E58093E1028091CE020E946101809157
:10085000CF028F3F11F00E9461018091D0020E946F
:100860006101CAECD2E09E012A5C32408091D9023B
:1008700084FD0AC084E090E02196281739073CF4F3
:100880008E810E946101EFCF88E090E0F5CF8BE38D
:100890009DE00197F1F760E08091CE020E94B402E2
:1008A00060E08091D0020E94B4028091CF028F3F1D
:1008B00019F060E00E94B4028091D90284FD34C036
:1008C00063E08AEC92E00E947F03CBE4D6E4CE01A1
:1008D0000197F1F763E08AEC92E00E947F03219791
:1008E000F1F763E08AEC92E00E947F0383E592E0F7
:1008F0000197F1F762E08AEC92E00E947F03809119
:10090000D90280620E94FF0384E08093DA028CE0C7
:100910000E94FF030E94050482E08093DB0286E0D0
:10092000DF91CF910C94FF0380620E94FF038BE460
:1009300096E40197F1F78091D90280620E94FF034B
:1009400083E592E00197F1F78091D90280620E94DD
:10095000FF03D5CF41E00E94AC0381E090E0089511
:100960001F920F920FB60F9211240BB60F922F9376
:100970003F934F935F936F937F938F939F93AF9327
:10098000BF93EF93FF938DE292E00E94F401FF91F9
:10099000EF91BF91AF919F918F917F916F915F91F7
:1009A0004F913F912F910F900BBE0F900FBE0F9064
:1009B0001F9018951F920F920FB60F9211240BB62D
:1009C0000F922F938F939F93EF93FF93E0913D02AC
:1009D000F0913E028081E0914302F091440282FD59
:1009E0001DC09081809146028F5F8F7320914702D6
:1009F000821741F0E0914602F0E0E35DFD4F958FF4
:100A000080934602FF91EF919F918F912F910F90CC
:100A10000BBE0F900FBE0F901F9018958081F2CFE4
:100A20001F920F920FB60F9211242F933F938F9323
:100A30009F93AF93BF9380911F0290912002A0914A
:100A40002102B091220230911E0223E0230F2D37A4
:100A500058F50196A11DB11D20931E0280931F021F
:100A600090932002A0932102B0932202809123024E
:100A700090912402A0912502B09126020196A11D19
:100A8000B11D8093230290932402A0932502B0937A
:100A90002602BF91AF919F918F913F912F910F901F
:100AA0000FBE0F901F90189526E8230F0296A11DE8
:100AB000B11DD2CFEDE2F2E01382128288EE93E014
:100AC000A0E0B0E084839583A683B78384E092E0BE
:100AD0009183808385EC90E09587848784EC90E017
:100AE0009787868780EC90E0918B808B81EC90E0FB
:100AF000938B828B82EC90E0958B848B86EC90E0DC
:100B0000978B868B118E128E138E148EEAECF2E088
:100B10001382128286E192E0918380838DE0848348
:100B20008FEF85838CE0868388E0878389E08087E8
:100B30008AE081878BE08287138614861586168665
:100B4000178681E00C940D04789484B5826084BD8E
:100B500084B5816084BD85B5826085BD85B58160C1
:100B600085BD80916E00816080936E00109281003F
:100B700080918100826080938100809181008160FA
:100B800080938100809180008160809380008091BB
:100B9000B10084608093B1008091B0008160809347
:100BA000B0008091910082608093910080919100CB
:100BB000816080939100809190008160809390008B
:100BC0008091A10082608093A1008091A10081604A
:100BD0008093A1008091A00081608093A00080910B
:100BE00021018260809321018091210181608093A5
:100BF00021018091200181608093200180917A0001
:100C0000846080937A0080917A00826080937A0079
:100C100080917A00816080937A0080917A00806868
:100C200080937A001092C100E0913D02F0913E0263
:100C300082E08083E0913902F0913A021082E091E3
:100C40003B02F0913C028FEC808310924502E091D0
:100C50004102F091420286E08083E0913F02F091F0
:100C60004002808180618083E0913F02F0914002E8
:100C7000808188608083E0913F02F0914002808112
:100C800080688083E0913F02F091400280818F7DF7
:100C9000808382E00E940D040E940504DD24D39429
:100CA000EE24E394F12C8DE292E00E94DE0118160E
:100CB0001906A4F480912C02811110C08DE292E0FB
:100CC0000E94BC0180932B02D0922C0210922A0227
:100CD0001092290210922802109227020E94050405
:100CE0000091270210912802C0912902D0912A0276
:100CF000E02F043008F0E3E08091DD02E81710F007
:100D0000EFEFE80FF0E0E653FD4F84898C0F806829
:100D10000E94FF0341E060912B028AEC92E00E9466
:100D2000AC032196C031D10599F1D0932A02C0932A
:100D30002902C701801B910B909328028093270200
:100D40000E9440032B013C018CE2882E992493944D
:100D5000A12CB12C0E9440036419750986099709DA
:100D6000683E734081059105A8F381E0881A9108D7
:100D7000A108B10898EE490E93E0591E611C711C40
:100D800081149104A104B10429F70E9483028BCF3E
:100D900010922A0210922902CCCFEE0FFF1F881F5B
:0E0DA0008BBF0790F691E02D1994F894FFCFC9
:100DAE000000000016028001AD016302DE01BC01ED
:0E0DBE00D00100000000AA0480016603650356
:00000001FF
