:100000000C9428010C9459010C9459010C94590139
:100010000C9459010C9459010C9459010C945901F8
:100020000C9459010C9459010C9459010C945901E8
:100030000C9459010C9459010C9459010C945901D8
:100040000C9459010C942E050C9459010C945901EF
:100050000C9459010C9459010C9459010C945A04B4
:100060000C9459010C9424040C94FA030C94590137
:100070000C9459010C9459010C9459010C94590198
:100080000C9400050C9459010C9459010C945901DD
:100090000C9459010C9459010C9459010C94590178
:1000A0000C9459010C9459010C94D2040C945901EC
:1000B0000C9459010C9459010C9459010C94A4040A
:1000C0000C9459010C9459010C9459010C94590148
:1000D0000C9459010C9459010C9459010C94590138
:1000E0000C9459010C94E2020C94BF020C94EB02A4
:1000F0000C945C050C945B010C94D6020C940703E1
:100100000C94F1010C94AB010C94DA020C94FD02F6
:100110000C94EF020C94F5020C94E5020C94DE02B0
:100120000C94B9010C9403030C94C4020C943E0289
:100130000C9488010C9415030C9411030C940B037C
:100140000C9497010C94F90200000A0B02090C0DA3
:100150000E0807030401000000000000000000007A
:10016000000000000000000000000000000000008F
:10017000000000001211100000000000000000004C
:10018000000000000000000000000000000000006F
:100190002200250028002B002E003100340002012F
:1001A0000000050108010B010000210024002700C8
:1001B0002A002D0030003300010100000401070176
:1001C0000A010505050507050808080802020202DC
:1001D0000A0A0808040404040101010101010101E3
:1001E0000303030303030303040707070C0C0C0CAE
:1001F0000C0C0C0C02020202060606060606060697
:100200000B0B0B0B0B0B0B0B010210202008081023
:100210002040102040800201020108040201010276
:10022000040810204080804020100804020180044F
:1002300002018040201008040201080402010102AA
:1002400004081020408001020408102040805C0552
:1002500011241FBECFEFD1E2DEBFCDBF00E00CBF47
:1002600012E0A0E0B2E0EAE9F3E100E00BBF02C077
:1002700007900D92A631B107D9F723E0A6E1B2E0CD
:1002800001C01D92A635B207E1F711E0C8E2D1E046
:1002900000E006C021970109802FFE010E94C309DA
:1002A000C732D10780E00807A9F70E94B9050C946E
:1002B000CB090C940000AF92BF92CF92DF92EF92E5
:1002C000FF920F931F93CF93DF936C017B018B0100
:1002D000040F151FEB015E01AE18BF08C017D10750
:1002E00059F06991D601ED91FC910190F081E02DDA
:1002F000C6011995892B79F7C501DF91CF911F911F
:100300000F91FF90EF90DF90CF90BF90AF90089546
:10031000FC01538D448D252F30E0842F90E0821B0B
:10032000930B541710F0CF96089501970895FC0190
:10033000918D828D981761F0A28DAE0FBF2FB11DE8
:100340005D968C91928D9F5F9F73928F90E0089540
:100350008FEF9FEF0895FC01918D828D981731F0FA
:10036000828DE80FF11D858D90E008958FEF9FEF4E
:100370000895FC01918D228D892F90E0805C9F4F24
:10038000821B91098F739927089585E292E00E945C
:10039000B90121E0892B09F420E0822F0895FC01A6
:1003A000A48DA80FB92FB11DA35ABF4F2C91848DD6
:1003B00090E001968F739927848FA689B7892C9333
:1003C000A089B1898C91837080648C93938D848D86
:1003D000981306C00288F389E02D80818F7D808389
:1003E0000895EF92FF920F931F93CF93DF93EC0149
:1003F00081E0888F9B8D8C8D98131AC0E889F989CC
:10040000808185FF15C09FB7F894EE89FF896083CE
:10041000E889F98980818370806480839FBF81E04F
:1004200090E0DF91CF911F910F91FF90EF90089591
:10043000F62E0B8D10E00F5F1F4F0F731127E02E6C
:100440008C8D8E110CC00FB607FCFACFE889F989A4
:10045000808185FFF5CFCE010E94CF01F1CFEB8DDA
:10046000EC0FFD2FF11DE35AFF4FF0829FB7F89478
:100470000B8FEA89FB8980818062CFCFCF93DF9396
:10048000EC01888D8823B9F0AA89BB89E889F989AC
:100490008C9185FD03C0808186FD0DC00FB607FCE1
:1004A000F7CF8C9185FFF2CF808185FFEDCFCE0114
:1004B0000E94CF01E9CFDF91CF91089580E090E0D5
:1004C000892B29F00E94C50181110E94000080E063
:1004D00090E0892B49F080E090E0892B29F00E9480
:1004E000000081110E94000080E090E0892B49F01B
:1004F00080E090E0892B29F00E94000081110E9489
:10050000000080E090E0892B49F080E090E0892BAA
:1005100029F00E94000081110C9400000895282FFA
:1005200030E0F901E85BFE4F9491F901E85FFD4F7F
:1005300044912E533E4FF9012491222309F435C0F2
:10054000992311F191509231F8F4E92FF0E08827C6
:10055000E355FD4F8F4F0C94C309DE02E202BF0248
:10056000D602DA02C402E502EB02EF02F502F9025A
:10057000FD0203030703C4020B031103150380915B
:1005800080008F7780938000E22FF0E0EE0FFF1F56
:10059000E257FE4FA591B4918FB7F894EC91611199
:1005A00048C040954E234C938FBF089580918000A2
:1005B0008F7DE8CF80918000877FE4CF84B58F77EF
:1005C00084BDE2CF84B58F7DFBCF8091B0008F7763
:1005D0008093B000D9CF8091B0008F7DF9CF80910A
:1005E00090008F7780939000CFCF809190008F7D87
:1005F000F9CF80919000877FF5CF8091A0008F7711
:100600008093A000C1CF8091A0008F7DF9CF809111
:10061000A000877FF5CF809120018F778093200104
:10062000B3CF809120018F7DF9CF80912001877F0A
:10063000F5CF4E2BB8CF3FB7F89480911F02909121
:100640002002A0912102B091220226B5A89B05C0EC
:100650002F3F19F00196A11DB11D3FBFBA2FA92F41
:10066000982F8827BC01CD01620F711D811D911D3E
:1006700042E0660F771F881F991F4A95D1F70895AA
:10068000AF92BF92CF92DF92EF92FF920F931F93A0
:10069000CF93DF936B017A01EC01CA5EDD4F2881B5
:1006A0003CE0389F8001399F100D1124A090520327
:1006B000B12C27FF1FC0FB011182108288818F5F40
:1006C000888388819801280F311D87FD3A95F601AE
:1006D0002A153B051CF488818C30C4F180819181FE
:1006E000049680349C4908F473C0F601808191819E
:1006F000049670C088819801280F311D87FD3A95B6
:100700002A153B05DCF68881A801480F511D87FD9D
:100710005A95FA01EE0FFF1FE40FF51FEE53FD4F40
:10072000808186FFCBCF8881F801E80FF11D87FD1E
:10073000FA95CF01EE0FFF1FE80FF91FEE53FD4FA3
:10074000808160E08F730E948F02B8CF8081918199
:100750002881A801420F511D27FD5A959A01FA01DF
:10076000EE0FFF1FE20FF31FEE53FD4F2181328189
:10077000820F931FF7019183808388819801280F4E
:10078000311D87FD3A95F901EE0FFF1FE20FF31FB0
:10079000EE53FD4F808186FF22C08881080F111D16
:1007A00087FD1A95F801EE0FFF1FE00FF11FEE53C2
:1007B000FD4F808161E08F73DF91CF911F910F9189
:1007C000FF90EF90DF90CF90BF90AF900C948F028E
:1007D00080E49CE9F701918380838FEF8883DF9128
:1007E000CF911F910F91FF90EF90DF90CF90BF902E
:1007F000AF9008951F920F920FB60F9211240BB66F
:100800000F922F933F934F935F936F937F938F93A9
:100810009F93AF93BF93EF93FF9385E292E00E9483
:10082000CF01FF91EF91BF91AF919F918F917F91F8
:100830006F915F914F913F912F910F900BBE0F9051
:100840000FBE0F901F9018951F920F920FB60F9228
:1008500011240BB60F922F938F939F93EF93FF93D7
:10086000E0913502F09136028081E0913B02F091F7
:100870003C0282FD1DC0908180913E028F5F8F738C
:1008800020913F02821741F0E0913E02F0E0EB5DE3
:10089000FD4F958F80933E02FF91EF919F918F9135
:1008A0002F910F900BBE0F900FBE0F901F901895B9
:1008B0008081F2CF1F920F920FB60F9211242F93C7
:1008C0003F938F939F93AF93BF9380911B0290911F
:1008D0001C02A0911D02B0911E0230911A0223E069
:1008E000230F2D3758F50196A11DB11D20931A0233
:1008F00080931B0290931C02A0931D02B0931E02D2
:1009000080911F0290912002A0912102B0912202B9
:100910000196A11DB11D80931F0290932002A09308
:100920002102B0932202BF91AF919F918F913F918D
:100930002F910F900FBE0F901F90189526E8230F50
:100940000296A11DB11DD2CF1F920F920FB60F922A
:1009500011240BB60F922F933F934F935F936F9396
:100960007F938F939F93AF93BF93EF93FF9348E24F
:1009700051E064E271E090E080E00E944003FF916A
:10098000EF91BF91AF919F918F917F916F915F9107
:100990004F913F912F910F900BBE0F900FBE0F9074
:1009A0001F9018951F920F920FB60F9211240BB63D
:1009B0000F922F933F934F935F936F937F938F93F8
:1009C0009F93AF93BF93EF93FF9348EA50E064EA9D
:1009D00070E083E090E00E944003FF91EF91BF91AF
:1009E000AF919F918F917F916F915F914F913F91C7
:1009F0002F910F900BBE0F900FBE0F901F90189568
:100A00001F920F920FB60F9211240BB60F922F93D5
:100A10003F934F935F936F937F938F939F93AF9386
:100A2000BF93EF93FF9348E950E064E970E082E000
:100A300090E00E944003FF91EF91BF91AF919F9191
:100A40008F917F916F915F914F913F912F910F9077
:100A50000BBE0F900FBE0F901F9018951F920F9214
:100A60000FB60F9211240BB60F922F933F934F9313
:100A70005F936F937F938F939F93AF93BF93EF9306
:100A8000FF9348E850E064E870E081E090E00E9465
:100A90004003FF91EF91BF91AF919F918F917F9113
:100AA0006F915F914F913F912F910F900BBE0F90DF
:100AB0000FBE0F901F9018951092280210922702D7
:100AC00088EE93E0A0E0B0E08093290290932A02A0
:100AD000A0932B02B0932C0284E092E09093260224
:100AE0008093250285EC90E090933202809331024E
:100AF00084EC90E0909334028093330280EC90E099
:100B0000909336028093350281EC90E09093380206
:100B10008093370282EC90E090933A0280933902FE
:100B200086EC90E090933C0280933B0210923E0250
:100B300010923F02109240021092410280915203A3
:100B4000803398F491E0980F90935203809353036D
:100B500090E0FC01EE0FFF1FE80FF91FEE53FD4F71
:100B600088EB9BE09283818308958FEF80935303FA
:100B70000895CF93DF93CDB7DEB7A1970FB6F89462
:100B8000DEBF0FBECDBF789484B5826084BD84B5CE
:100B9000816084BD85B5826085BD85B5816085BD78
:100BA00080916E00816080936E0010928100809130
:100BB00081008260809381008091810081608093B8
:100BC0008100809180008160809380008091B100DD
:100BD00084608093B1008091B00081608093B00008
:100BE000809191008260809391008091910081605A
:100BF000809391008091900081608093900080911B
:100C0000A10082608093A1008091A1008160809307
:100C1000A1008091A00081608093A00080912101BB
:100C20008260809321018091210181608093210164
:100C30008091200181608093200180917A008460FE
:100C400080937A0080917A00826080937A0080910C
:100C50007A00816080937A0080917A008068809326
:100C60007A001092C100E0913502F091360282E0E4
:100C70008083E0913102F09132021082E0913302E0
:100C8000F09134028FEC808310923D02E0913902A2
:100C9000F0913A0286E08083E0913702F0913802C9
:100CA000808180618083E0913702F09138028081F9
:100CB00088608083E0913702F091380280818068FB
:100CC0008083E0913702F091380280818F7D8083AC
:100CD00080915303803308F069C0EAE0F2E0249188
:100CE000E4ECF1E08491882399F090E0880F991F5B
:100CF000FC01E855FE4FA591B491FC01E257FE4F6F
:100D0000859194918FB7F894EC91E22BEC938FBF7F
:100D100080915303282F30E0F901EE0FFF1FE20FFF
:100D2000F31FEE53FD4F9081907C92609083109260
:100D30005403109255032CE0622F0E94B709829F42
:100D4000B001112430E020E0AB01420F531FFA0143
:100D5000EE0FFF1FE40FF51FEE53FD4F908196FD40
:100D600017C02F5F3F4F2C30310571F7813009F0EC
:100D7000FCC01092800082E0809381001092850078
:100D800010928400B19A80916F00826080936F000E
:100D9000E09153038E2F90E0FC01EE0FFF1FE80F50
:100DA000F91FEE53FD4F808180648083AAE04A2EB4
:100DB000512C612C712CB8E82B2E312C08E512E057
:100DC00080917B00877F80937B0020E420937C00D0
:100DD00080917A00806480937A0080917A0086FD09
:100DE000FCCF9091780080917900892798278927F6
:100DF00090932402809323026C01092E000CEE08CC
:100E0000FF0897FFDEC06DE285E292E00E94F101EB
:100E100022273327A9012C193D094E095F0919A280
:100E2000CE0181967C01CA01B901A30192010E9401
:100E3000F707605DF70162937F01211531054105D8
:100E4000510589F7E114F10461F001900020E9F700
:100E50003197AF014E195F09B70185E292E00E9418
:100E60005B0142E050E062E172E085E292E00E94C4
:100E70005B01F0905303FFE2FF1508F44FC060914F
:100E8000230270912402072E000C880B990B0E94FC
:100E9000BE0820E030E040E85AE30E944A0920E022
:100EA00030E04AE754E40E944A0920E030E04AE793
:100EB00054E40E941A080E94860840915403F101EC
:100EC000E41BF10947FDF395AF01440F551F440F93
:100ED000551F6417750784F040915503F801E41B12
:100EE000F10947FDF395AF01440F551F440F551FFE
:100EF000641775070CF4AB01CA010297880F991F9C
:100F00004FB7F8942F2D30E0F901EE0FFF1FE20FDD
:100F1000F31FEE53FD4F928381834FBF0E941B034B
:100F20004B015C018FE0C82ED12CE12CF12C0E94EA
:100F30001B03681979098A099B09683E734081057A
:100F40009105A8F3F1E0CF1AD108E108F10828EEE5
:100F5000820E23E0921EA11CB11CC114D104E10435
:100F6000F10429F70E945E022BCF823061F41092C7
:100F7000900080939100109295001092940088BB8D
:100F80008093710005CF833069F41092A00082E055
:100F90008093A1001092A5001092A40089BB8093B9
:100FA0007200F6CE8111F4CE1092200182E080937F
:100FB000210110922501109224018ABB80937300B5
:100FC000E7CEA701960119A2CE0181967C01CA0144
:100FD000B901A30192010E94F707605DF7016293D6
:100FE0007F01211531054105510589F72BCFA1E27C
:100FF0001A2EAA1BBB1BFD010DC0AA1FBB1FEE1F93
:10100000FF1FA217B307E407F50720F0A21BB30BDD
:10101000E40BF50B661F771F881F991F1A9469F759
:1010200060957095809590959B01AC01BD01CF01B5
:1010300008955058BB27AA270E9431080C94100924
:101040000E94020938F00E94090920F039F49F3FFC
:1010500019F426F40C94FF080EF4E095E7FB0C94C9
:10106000F908E92F0E94210958F3BA17620773079C
:101070008407950720F079F4A6F50C9443090EF443
:10108000E0950B2EBA2FA02D0B01B90190010C0198
:10109000CA01A0011124FF27591B99F0593F50F4B0
:1010A000503E68F11A16F040A22F232F342F442708
:1010B000585FF3CF469537952795A795F040539500
:1010C000C9F77EF41F16BA0B620B730B840BBAF0D0
:1010D0009150A1F0FF0FBB1F661F771F881FC2F73B
:1010E0000EC0BA0F621F731F841F48F4879577954F
:1010F0006795B795F7959E3F08F0B0CF9395880F09
:1011000008F09927EE0F9795879508950E948D080E
:101110006894B1110C94440908950E94290988F03B
:101120009F5798F0B92F9927B751B0F0E1F0660FAB
:10113000771F881F991F1AF0BA95C9F714C0B130EC
:1011400091F00E944309B1E008950C944309672F80
:10115000782F8827B85F39F0B93FCCF3869577951B
:101160006795B395D9F73EF4909580957095619504
:101170007F4F8F4F9F4F0895E89409C097FB3EF42F
:1011800090958095709561957F4F8F4F9F4F9923D4
:10119000A9F0F92F96E9BB279395F6958795779552
:1011A0006795B795F111F8CFFAF4BB0F11F460FF12
:1011B0001BC06F5F7F4F8F4F9F4F16C0882311F06A
:1011C00096E911C0772321F09EE8872F762F05C07E
:1011D000662371F096E8862F70E060E02AF09A9519
:1011E000660F771F881FDAF7880F9695879597F90E
:1011F000089597F99F6780E870E060E008959FEF99
:1012000080EC089500240A9416161706180609069D
:10121000089500240A94121613061406050608956C
:10122000092E0394000C11F4882352F0BB0F40F4F4
:10123000BF2B11F460FF04C06F5F7F4F8F4F9F4F34
:10124000089557FD9058440F551F59F05F3F71F0B6
:101250004795880F97FB991F61F09F3F79F087951D
:101260000895121613061406551FF2CF4695F1DFA6
:1012700008C0161617061806991FF1CF8695710536
:10128000610508940895E894BB2766277727CB016A
:1012900097F908950E945D090C9410090E940209B3
:1012A00038F00E94090920F0952311F00C94F908F8
:1012B0000C94FF0811240C9444090E94210970F336
:1012C000959FC1F3950F50E0551F629FF001729FEB
:1012D000BB27F00DB11D639FAA27F00DB11DAA1FFA
:1012E000649F6627B00DA11D661F829F2227B00D47
:1012F000A11D621F739FB00DA11D621F839FA00DD2
:10130000611D221F749F3327A00D611D231F849F21
:10131000600D211D822F762F6A2F11249F57504078
:101320009AF0F1F088234AF0EE0FFF1FBB1F661FF3
:10133000771F881F91505040A9F79E3F510580F0BC
:101340000C94F9080C9444095F3FE4F3983ED4F3FD
:10135000869577956795B795F795E7959F5FC1F760
:10136000FE2B880F911D9695879597F90895991BE7
:1013700079E004C0991F961708F0961B881F7A958C
:10138000C9F780950895EE0FFF1F881F8BBF079048
:0A139000F691E02D1994F894FFCFB8
:10139A0000000000F1015B0188013E02B9019701DA
:0613AA00AB010D0A00007A
:00000001FF
