:100000000C9438010C9469010C9469010C946901F9
:100010000C9469010C9469010C9469010C946901B8
:100020000C9469010C9469010C9469010C946901A8
:100030000C9469010C9469010C9469010C94690198
:100040000C9469010C9469010C9469010C94690188
:100050000C9469010C9469010C9469010C94D3040B
:100060000C9469010C9469010C9469010C94690168
:100070000C9469010C9469010C9469010C94690158
:100080000C9469010C9469010C9469010C94690148
:100090000C9469010C9469010C9469010C94690138
:1000A0000C9469010C9469010C9469010C94690128
:1000B0000C9469010C9469010C9469010C94690118
:1000C0000C9469010C9469010C9469010C94690108
:1000D0000C9469010C9469010C9469010C946901F8
:1000E0000C9469010C9476020C94EC020C9472024C
:1000F0000C9449020C9489020C9464020C948002C2
:100100000C947C020C9484020C9431030C945807D8
:100110000C944F020C9457020C94BB020C94FE01F9
:100120000C945E020C945B020C9468020C948A029C
:100130000C948E020C946E020C9453020C942C03BB
:100140000C9400080C94CD040C94300300002100A2
:10015000240027002A002D00300033000101000098
:10016000040107010A0100002200250028002B00DD
:100170002E003100340002010000050108010B01CE
:10018000000020002300260029002C002F00320050
:100190000001000003010601090105050505070529
:1001A00008080808020202020A0A080804040404F3
:1001B000010101010101010103030303030303031F
:1001C000040707070C0C0C0C0C0C0C0C02020202AE
:1001D00006060606060606060B0B0B0B0B0B0B0B97
:1001E0000102102020080810204010204080020149
:1001F000020108040201010204081020408080402E
:10020000201008040201800402018040201008042C
:1002100002010804020101020408102040800102CA
:1002200004081020408000000A0B02090C0D0E0883
:1002300007030401000000000000000000000000AF
:1002400000000000000000000000000000000000AE
:10025000000012111000000000000000000000006B
:100260000000000000000000000000005807000827
:1002700011241FBECFEFD1E2DEBFCDBF00E00CBF27
:1002800022E0ACE5B2E001C01D92A73FB207E1F762
:1002900012E0A0E0B2E0E4E8F4E100E00BBF02C04D
:1002A00007900D92AC35B107D9F711E0C7E3D1E063
:1002B00000E006C021970109802FFE010E94090875
:1002C000C633D10780E00807A9F70E941D050C94EA
:1002D000300A0C94000096E0899FD0011124AA599D
:1002E000BD4F90967C936E935F9791E091969C930F
:1002F0009197E091D302F091D4029091D202992388
:1003000039F0309751F0811108C080918202199420
:10031000309719F05C968C91FACF0895CF92DF92C6
:10032000EF92FF920F931F9396E0899FF0011124A3
:10033000EA59FD4F11A2278D30A12130310551F12D
:1003400078F02230310509F451C02330310509F429
:1003500052C01F910F91FF90EF90DF90CF900895C2
:100360006623B9F361E070E00E946B012FB7F89447
:100370008091620290916302A0916402B091650243
:100380002FBF8093BE029093BF02A093C002B09390
:10039000C102DFCF9FB7F894C0906202D090630291
:1003A000E0906402F09065029FBF0091BE02109140
:1003B000BF022091C0023091C102C01AD10AE20AE4
:1003C000F30A0091D0021091D10230E020E00C1528
:1003D0001D052E053F0550F462E070E01F910F915E
:1003E000FF90EF90DF90CF900C946B016111B1CF33
:1003F00063E070E0F3CF70E060E0F0CFAF92BF92C7
:10040000CF92DF92EF92FF920F931F93CF93DF93E0
:100410006C017B018B01040F151FEB015E01AE180F
:10042000BF08C017D10759F06991D601ED91FC9131
:100430000190F081E02DC6011995892B79F7C5014E
:10044000DF91CF911F910F91FF90EF90DF90CF90B0
:10045000BF90AF9008958150823108F05AC0E82FC4
:10046000F0E08827E95CFD4F8F4F0C940908570294
:100470005B0249024F02530289025E026402680273
:100480006E02720276027C028002890284028A0273
:100490008E02809180008F778093800008958091F4
:1004A00080008F7DF9CF80918000877FF5CF84B564
:1004B0008F7784BD089584B58F7DFBCF8091B00088
:1004C0008F778093B00008958091B0008F7DF9CF31
:1004D000809190008F778093900008958091900094
:1004E0008F7DF9CF80919000877FF5CF8091A0001C
:1004F0008F778093A00008958091A0008F7DF9CF21
:100500008091A000877FF5CF809120018F77809325
:1005100020010895809120018F7DF9CF80912001E5
:10052000877FF5CFCF93DF93282F30E0F901EA5D85
:10053000FD4F8491F901E052FE4FD491F901E65646
:10054000FE4FC491CC23A1F081110E942B02EC2F0D
:10055000F0E0EE0FFF1FE058FE4FA591B491EC9133
:10056000ED2381E090E009F480E0DF91CF910895E0
:1005700080E090E0FACF862F0C9492021F93CF93E5
:10058000DF93282F30E0F901EA5DFD4F8491F901F6
:10059000E052FE4FD491F901E656FE4FC491CC23B0
:1005A000A9F0162F81110E942B02EC2FF0E0EE0F24
:1005B000FF1FEA59FE4FA591B4918FB7F894EC91C3
:1005C000111108C0D095DE23DC938FBFDF91CF914E
:1005D0001F910895DE2BF8CF862F642F0C94BE0256
:1005E000CF93DF9390E0FC01E052FE4F24918656BA
:1005F0009E4FFC0184918823C9F090E0880F991FD9
:10060000FC01E45BFE4FA591B491FC01EA59FE4F59
:10061000C591D49161110DC09FB7F8948C9120952C
:1006200082238C938881282328839FBFDF91CF91D9
:100630000895623051F49FB7F8943C91822F8095D1
:1006400083238C93E8812E2BEFCF8FB7F894EC9116
:100650002E2B2C938FBFEACF862F642F0C94F002A1
:10066000089590E080E00895CF93DF93EC018091AE
:10067000ED029091EE02009759F02091EF02309137
:10068000F0022C173D0720F081E0DF91CF91089513
:10069000BE016F5F7F4F0E943609009789F09093EB
:1006A000EE028093ED02D093F002C093EF0220910E
:1006B000F1023091F202232B39F7FC011082E4CFD2
:1006C00080E0E3CF90E080E00E9434032091ED02CF
:1006D0003091EE02811113C02115310519F0C901C5
:1006E0000E94AD081092EE021092ED021092F202FA
:1006F0001092F1021092F0021092EF0208951092FF
:10070000F2021092F1026BE372E0C9010C94290A23
:10071000CF93DF93EC0160E08E810E94BE0261E026
:100720008E810E94BE0260E08E810E94BE028BE834
:1007300091E00197F1F7DF91CF910895CF92DF9289
:10074000EF92FF920F931F93CF93DF936C017C0185
:1007500087E0E80EF11CD0E0C0E0062F10E0B80101
:100760000C2E02C0759567950A94E2F76170F70147
:1007700081917F010E94BE022196C430D10579F794
:10078000C601DF91CF911F910F91FF90EF90DF9005
:10079000CF900C948803CF92DF92EF92FF920F9349
:1007A0001F93CF93DF93EC01F62E642F8C810E9470
:1007B000BE028D818F3F19F060E00E94BE020F2DB6
:1007C00010E08F8584FF25C06E0187E0C80ED11C24
:1007D000F12CE12CB8010E2C02C0759567950A9496
:1007E000E2F76170F60181916F010E94BE02FFEF96
:1007F000EF1AFF0A88E0E816F10461F7CE01DF91F5
:10080000CF911F910F91FF90EF90DF90CF900C94BC
:100810008803B80184E0759567958A95E1F7CE0164
:100820000E949E036F2DCE01DF91CF911F910F91FA
:10083000FF90EF90DF90CF900C949E0340E0682FE4
:1008400085ED92E00C94CB0381E00E941E048BE3C3
:100850009FE10197F1F70895CF93DF93823029F458
:100860009091E40298609093E4028093E8021092E1
:10087000E90280E48093EA0280E18093EB0280E564
:100880008093EC0261E08091D9020E94F002809195
:10089000DA028F3F19F061E00E94F00261E080917E
:1008A000DB020E94F002C5EDD2E09E01255D3240E0
:1008B0008091E40284FD0BC084E090E0219628172B
:1008C000390744F461E08E810E94F002EECF88E0A7
:1008D00090E0F4CF8BE39DE00197F1F760E0809129
:1008E000D9020E94BE0260E08091DB020E94BE023B
:1008F0008091DA028F3F19F060E00E94BE02809181
:10090000E40284FD34C063E085ED92E00E949E0322
:10091000CBE4D6E4CE010197F1F763E085ED92E0F8
:100920000E949E032197F1F763E085ED92E00E941B
:100930009E0383E592E00197F1F762E085ED92E096
:100940000E949E038091E40280620E941E0484E063
:100950008093E5028CE00E941E040E94240482E041
:100960008093E60286E0DF91CF910C941E048062B2
:100970000E941E048BE496E40197F1F78091E40253
:1009800080620E941E0483E592E00197F1F7809156
:10099000E40280620E941E04D5CF41E00E94CB0396
:1009A00081E090E008951F920F920FB60F921124EC
:1009B0002F933F938F939F93AF93BF938091620246
:1009C00090916302A0916402B0916502309160023F
:1009D00023E0230F2D3758F50196A11DB11D20935B
:1009E00060028093620290936302A0936402B093CA
:1009F000650280915C0290915D02A0915E02B091CF
:100A00005F020196A11DB11D80935C0290935D026F
:100A1000A0935E02B0935F02BF91AF919F918F91BF
:100A20003F912F910F900FBE0F901F90189526E8C1
:100A3000230F0296A11DB11DD2CFCF93DF931F923A
:100A40001F92CDB7DEB7789484B5826084BD84B53B
:100A5000816084BD85B5826085BD85B5816085BDB9
:100A600080916E00816080936E0010928100809171
:100A700081008260809381008091810081608093F9
:100A80008100809180008160809380008091B1001E
:100A900084608093B1008091B00081608093B00049
:100AA000809191008260809391008091910081609B
:100AB000809391008091900081608093900080915C
:100AC000A10082608093A1008091A1008160809349
:100AD000A1008091A00081608093A00080912101FD
:100AE00082608093210180912101816080932101A6
:100AF0008091200181608093200180917A00846040
:100B000080937A0080917A00826080937A0080914D
:100B10007A00816080937A0080917A008068809367
:100B20007A001092C10082E00E942C040E942404EA
:100B3000412C512C3201439430E0A32E30E0B32EEF
:100B4000E1E08091E8028111E0E0E195F0E0EB5214
:100B5000FD4F848990916102890F80680E941E0474
:100B600051E05093D2028FB7F894409162025091B5
:100B7000630260916402709165028FBF8091C2022E
:100B80009091C302A091C402B091C502481B590BB9
:100B90006A0B7B0B8091CE029091CF02B0E0A0E077
:100BA00084179507A607B70708F01BC110E08091CE
:100BB000CC02181760F4E091C802F091C902E10F6D
:100BC000F11D62E080810E94F0021F5FF0CF312CA6
:100BD0008091CD02381608F061C0E32CF12CE09131
:100BE000CA02F091CB02EE0DFF1D61E080810E94F0
:100BF000F002E091CA02F091CB02EE0DFF1D60E021
:100C000080810E94BE02D301C201032C04C0880F60
:100C1000991FAA1FBB1F0A94D2F74C016C01C09404
:100C2000D094212C8091CC02281608F5022D10E0DA
:100C3000E091C802F091C902E00FF11F80810E948B
:100C400092020C5F1F4F000F111FF801EA59FD4F70
:100C5000892B41F48081918188299929918380830E
:100C60002394E0CF808191818C219D21F7CFE09169
:100C7000CA02F091CB02EE0DFF1D61E080810E945F
:100C8000BE028091CA029091CB02E80EF91E60E08C
:100C9000F70180810E94F00233949ACF06E612E0B9
:100CA0007801F701878D90A1892B31F4148E8FEF95
:100CB0009FEF968F858F11A296E0E90EF11CE2EA74
:100CC000F2E0EE15FF0569F7D12C8091CC02D81621
:100CD00008F053C0C12C8D2C912C880C991CC40198
:100CE00082599D4F4C012091CD02C21608F043C09D
:100CF000F401608171810C2C02C0769567950A948D
:100D0000E2F7D29E900111242C0D311DE6E6F2E0AF
:100D100080E0458D568D2417350709F4C7C08F5FD5
:100D200036968A30B1F760FF24C0E6E6F2E090E044
:100D300080E0448D411118C0E091C602F091C702D5
:100D4000E20FF31F408156E0589FF001599FF00DCC
:100D50001124EA59FD4F448F368F258F10A2178E2C
:100D600061E00E948E0105C0019636968A30910599
:100D700001F7C394B8CFD394A8CF80E0F80191A134
:100D80009111892F0A5F1F4FE016F106B9F79FB73F
:100D9000F8944091620250916302609164027091F4
:100DA00065029FBF4093C2025093C3026093C40286
:100DB0007093C5028823A9F080918702882389F067
:100DC0008091850290918602019759F410918202D8
:100DD00011110AC0A114B10409F4B2CE0E9400009E
:100DE000ABCE1092D202F6CF133239F40E94240413
:100DF000109261020E946203EDCF1A3259F5E09120
:100E0000E802E23028F5E150F0E0EB52FD4F848932
:100E100080680E941E048091F1029091F202892B59
:100E200071F064E372E08091ED029091EE020E9415
:100E3000200A40E150E06CE372E0892B21F04EE0A3
:100E400050E06DE472E085ED92E00E94FE01D2CFA9
:100E5000E1E0DACF41E0612F85ED92E00E94CB0323
:100E600019831A820091F1021091F2020F5F1F4F55
:100E7000C8010E943403882399F02091ED0230913B
:100E8000EE028091F1029091F202BE016F5F7F4FFE
:100E9000820F931F0E94290A1093F2020093F1021D
:100EA000809161028F5F8093610294CF617059CF0E
:100EB0001092680210926C0210926B0210926D02F6
:100EC0008EE292E09093670280936602E2E8F2E09D
:100ED0001082148213821582369682E0EE3BF80768
:100EE000B9F784E092E09093C9028093C80280E051
:100EF00092E09093CB028093CA0284E08093CC026C
:100F00008093CD0288E092E09093C7028093C6025E
:100F10008AE090E09093CF028093CE0284EF91E03C
:100F20009093D1028093D0021092D4021092D302F7
:100F30001092C2021092C3021092C4021092C50213
:100F40001092D2021092D8021092D70282E292E05E
:100F50009093D6028093D5028DE08093D9028FEFD3
:100F60008093DA028CE08093DB0288E08093DC02DD
:100F700089E08093DD028AE08093DE028BE080933B
:100F8000DF021092E0021092E1021092E20210924F
:100F9000E3021092E40281E00E942C041092EE021F
:100FA0001092ED021092F0021092EF021092F202F3
:100FB0001092F10290E080E00E9434032091ED0253
:100FC0003091EE02811113C02115310519F0C901CC
:100FD0000E94AD081092EE021092ED021092F20201
:100FE0001092F1021092F0021092EF020895109206
:100FF000F2021092F1026BE372E0C9010C94290A2B
:101000008091ED029091EE02009711F00C94AD08E2
:101010000895EE0FFF1F881F8BBF0790F691E02DFC
:1010200019940F931F93CF93DF938230910510F49F
:1010300082E090E0E091F502F091F60230E020E0ED
:10104000B0E0A0E0309799F42115310509F44AC0C9
:10105000281B390B24303105D8F58A819B81611515
:10106000710589F1FB0193838283FE0111C04081E8
:1010700051810281138148175907E0F04817590739
:1010800099F4109761F012960C93129713961C9393
:101090003296CF01DF91CF911F910F910895009368
:1010A000F5021093F602F4CF2115310551F04217E5
:1010B000530738F0A901DB019A01BD01DF01F801F6
:1010C000C1CFEF01F9CF9093F6028093F502CDCF17
:1010D000FE01E20FF31F819391932250310939836E
:1010E0002883D7CF2091F3023091F402232B41F4CF
:1010F00020911A0230911B023093F4022093F302E4
:1011000020911802309119022115310541F42DB7B3
:101110003EB740911C0250911D02241B350BE091FB
:10112000F302F091F402E217F307A0F42E1B3F0B39
:101130002817390778F0AC014E5F5F4F2417350749
:1011400048F04E0F5F1F5093F4024093F3028193D7
:1011500091939FCFF0E0E0E09CCFCF93DF93009797
:10116000E9F0FC01329713821282A091F502B0914E
:10117000F602ED0130E020E01097A1F420813181EA
:10118000820F931F2091F3023091F4022817390740
:1011900009F061C0F093F402E093F302DF91CF9184
:1011A0000895EA01CE17DF07E8F54A815B819E01C9
:1011B00041155105B1F7E901FB83EA834991599142
:1011C000C40FD51FEC17FD0761F480819181029651
:1011D000840F951FE90199838883828193819B8382
:1011E0008A83F0E0E0E012968D919C91139700972E
:1011F000B9F52D913C911197CD010296820F931F65
:101200002091F3023091F4022817390739F630970C
:1012100051F51092F6021092F502B093F402A093E9
:10122000F302BCCFD383C28340815181840F951FC9
:10123000C817D90761F44E5F5F4F88819981480FC5
:10124000591F518340838A819B8193838283211517
:10125000310509F0B0CFF093F602E093F5029ECF8E
:10126000FD01DC01C0CF13821282D7CF4F925F9273
:101270006F927F928F929F92AF92BF92CF92DF92A6
:10128000EF92FF920F931F93CF93DF938C01009700
:1012900099F4CB01DF91CF911F910F91FF90EF90C7
:1012A000DF90CF90BF90AF909F908F907F906F9086
:1012B0005F904F900C941108FC01E60FF71F9C0102
:1012C00022503109E217F30708F4AEC0D901CD91DD
:1012D000DC911197C617D70720F1C530D10578F0FA
:1012E000CE0104978617970750F0C61BD70B22979D
:1012F000C193D1936D937C93CF010E94AD08C80137
:10130000DF91CF911F910F91FF90EF90DF90CF90E1
:10131000BF90AF909F908F907F906F905F904F9015
:1013200008955B01AC1ABD0A4C018C0E9D1EA09164
:10133000F502B091F602512C412CF12CE12C1097C2
:1013400031F58091F3029091F4028815990509F026
:101350005CC04616570608F058C08091180290915C
:101360001902009741F48DB79EB740911C0250912D
:101370001D02841B950BE817F90708F055C0F09380
:10138000F402E093F302F90171836083B8CF8D9189
:101390009C91119712966C90129713967C901397CC
:1013A000A815B90559F56C0142E0C40ED11CCA1448
:1013B000DB0420F1AC014A195B09DA01129615979A
:1013C00080F06282738251834083D9016D937C9354
:1013D000E114F10471F0D7011396FC93EE93129788
:1013E0008ECF22968C0F9D1FF90191838083F3018C
:1013F000EFCFF093F602E093F50281CF481659063D
:1014000008F42C017D01D3019ACFCB010E94110871
:101410007C01009749F0AE01B8010E94170AC8018B
:101420000E94AD0887016BCF10E000E068CFFB01A0
:10143000DC0102C001900D9241505040D8F7089550
:10144000FB01DC018D91019080190110D9F3990BFA
:101450000895FB01DC0101900D920020E1F7089551
:1014600011E0C7E3D1E000E006C0802FFE010E943A
:1014700009082196011DC833D10780E00807A9F7A4
:04148000F894FFCF0E
:1014840017191B1D1F2123253738392A3435362ACD
:101494003132332A23302A2A0000F7028000000068
:1014A4000000CD04FE0131033003000000002C03D2
:1014B400EC02BB023938333131313800436F727278
:1014C4006563742070617373776F72640057726F11
:0C14D4006E672070617373776F726400A4
:00000001FF
