:100000000C942B010C945C010C945C010C945C012D
:100010000C945C010C945C010C945C010C945C01EC
:100020000C945C010C945C010C945C010C945C01DC
:100030000C945C010C945C010C945C010C945C01CC
:100040000C945C010C9467050C945C010C945C01AD
:100050000C945C010C945C010C945C010C943304D2
:100060000C945C010C94A7040C947D040C945C012A
:100070000C945C010C945C010C945C010C945C018C
:100080000C9439050C945C010C945C010C945C019B
:100090000C945C010C945C010C945C010C945C016C
:1000A0000C945C010C945C010C940B050C945C01A9
:1000B0000C945C010C945C010C945C010C94DD04C8
:1000C0000C945C010C945C010C945C010C945C013C
:1000D0000C945C010C945C010C945C010C945C012C
:1000E0000C945C010C94D9020C94C2020C945E0135
:1000F0000C94EE020C94BC010C948B010C94C7027E
:100100000C949A010C9406030C94DD020C940E03DB
:100110000C94E1020C9495050C94F8020C94F202F4
:100120000C94E5020C9418030C94AE010C940A0391
:100130000C946A080C94FC020C9400030C94F401D7
:100140000C9414030C94E8020C94410200000A0B76
:1001500002090C0D0E080703040100000000000056
:10016000000000000000000000000000000000008F
:10017000000000000000000012111000000000004C
:10018000000000000000000000000000000000006F
:10019000000000002200250028002B002E00310066
:1001A000340002010000050108010B0100002100DC
:1001B000240027002A002D00300033000101000038
:1001C000040107010A0105050505070508080808D7
:1001D000020202020A0A08080404040401010101DF
:1001E00001010101030303030303030304070707DA
:1001F0000C0C0C0C0C0C0C0C02020202060606067F
:10020000060606060B0B0B0B0B0B0B0B010210204B
:10021000200808102040102040800201020108043C
:1002200002010102040810204080804020100804D0
:100230000201800402018040201008040201080429
:10024000020101020408102040800102040810206D
:10025000408095056A0811241FBECFEFD1E2DEBFB2
:10026000CDBF00E00CBF12E0A0E0B2E0E6EFF9E1A4
:1002700000E00BBF02C007900D92AA31B107D9F779
:1002800023E0AAE1B2E001C01D92A636B207E1F771
:1002900011E0CAE2D1E000E006C021970109802FF9
:1002A000FE010E94CB0AC932D10780E00807A9F7F6
:1002B0000E9405060C94E90C0C940000AF92BF92CA
:1002C000CF92DF92EF92FF920F931F93CF93DF9322
:1002D0006C017B018B01040F151FEB015E01AE1851
:1002E000BF08C017D10759F06991D601ED91FC9173
:1002F0000190F081E02DC6011995892B79F7C50190
:10030000DF91CF911F910F91FF90EF90DF90CF90F1
:10031000BF90AF900895FC01538D448D252F30E0A0
:10032000842F90E0821B930B541710F0CF96089502
:1003300001970895FC01918D828D981761F0A28D2F
:10034000AE0FBF2FB11D5D968C91928D9F5F9F73F5
:10035000928F90E008958FEF9FEF0895FC01918DAB
:10036000828D981731F0828DE80FF11D858D90E018
:1003700008958FEF9FEF0895FC01918D228D892FB5
:1003800090E0805C9F4F821B91098F73992708959D
:100390008BE292E00E94BC0121E0892B09F420E06D
:1003A000822F0895FC01A48DA80FB92FB11DA35A67
:1003B000BF4F2C91848D90E001968F739927848F85
:1003C000A689B7892C93A089B1898C9183708064A8
:1003D0008C93938D848D981306C00288F389E02D49
:1003E00080818F7D80830895EF92FF920F931F93FA
:1003F000CF93DF93EC0181E0888F9B8D8C8D9813D8
:100400001AC0E889F989808185FF15C09FB7F894E3
:10041000EE89FF896083E889F9898081837080642F
:1004200080839FBF81E090E0DF91CF911F910F917A
:10043000FF90EF900895F62E0B8D10E00F5F1F4F89
:100440000F731127E02E8C8D8E110CC00FB607FC98
:10045000FACFE889F989808185FFF5CFCE010E9426
:10046000D201F1CFEB8DEC0FFD2FF11DE35AFF4FC1
:10047000F0829FB7F8940B8FEA89FB8980818062B4
:10048000CFCFCF93DF93EC01888D8823B9F0AA8971
:10049000BB89E889F9898C9185FD03C0808186FD3F
:1004A0000DC00FB607FCF7CF8C9185FFF2CF80818E
:1004B00085FFEDCFCE010E94D201E9CFDF91CF9130
:1004C000089580E090E0892B29F00E94C8018111F5
:1004D0000E94000080E090E0892B49F080E090E0ED
:1004E000892B29F00E94000081110E94000080E009
:1004F00090E0892B49F080E090E0892B29F00E9460
:10050000000081110E94000080E090E0892B49F0FA
:1005100080E090E0892B29F00E94000081110C946A
:1005200000000895282F30E0F901E45BFE4F94911C
:10053000F901E45FFD4F44912A533E4FF9012491A4
:10054000222309F435C0992311F191509231F8F426
:10055000E92FF0E08827E055FD4F8F4F0C94CB0A30
:10056000E102E502C202D902DD02C702E802EE02A0
:10057000F202F802FC02000306030A03C7020E039C
:1005800014031803809180008F7780938000E22FFE
:10059000F0E0EE0FFF1FEE56FE4FA591B4918FB71E
:1005A000F894EC91611148C040954E234C938FBF55
:1005B0000895809180008F7DE8CF80918000877FB3
:1005C000E4CF84B58F7784BDE2CF84B58F7DFBCF38
:1005D0008091B0008F778093B000D9CF8091B00028
:1005E0008F7DF9CF809190008F7780939000CFCF4F
:1005F000809190008F7DF9CF80919000877FF5CF1B
:100600008091A0008F778093A000C1CF8091A0003F
:100610008F7DF9CF8091A000877FF5CF8091200159
:100620008F7780932001B3CF809120018F7DF9CF08
:1006300080912001877FF5CF4E2BB8CFAF92BF922C
:10064000CF92DF92EF92FF920F931F93CF93DF939E
:100650006B017A01EC01C65EDD4F28813CE0389FDA
:100660008001399F100D1124A0905803B12C27FF51
:100670001FC0FB011182108288818F5F888388816F
:100680009801280F311D87FD3A95F6012A153B0583
:100690001CF488818C30C4F180819181049680346F
:1006A0009C4908F473C0F60180819181049670C062
:1006B00088819801280F311D87FD3A952A153B0541
:1006C000DCF68881A801480F511D87FD5A95FA0173
:1006D000EE0FFF1FE40FF51FE853FD4F808186FFEB
:1006E000CBCF8881F801E80FF11D87FDFA95CF0186
:1006F000EE0FFF1FE80FF91FE853FD4F808160E008
:100700008F730E949202B8CF808191812881A801C5
:10071000420F511D27FD5A959A01FA01EE0FFF1F56
:10072000E20FF31FE853FD4F21813281820F931FA7
:10073000F7019183808388819801280F311D87FDFF
:100740003A95F901EE0FFF1FE20FF31FE853FD4F3B
:10075000808186FF22C08881080F111D87FD1A95B0
:10076000F801EE0FFF1FE00FF11FE853FD4F8081EE
:1007700061E08F73DF91CF911F910F91FF90EF9008
:10078000DF90CF90BF90AF900C94920280E49CE9F0
:10079000F701918380838FEF8883DF91CF911F9141
:1007A0000F91FF90EF90DF90CF90BF90AF900895A2
:1007B000CF93DF93EC0188819981009711F00E941B
:1007C0006F0B198218821D821C821B821A82DF9194
:1007D000CF9108950F931F93CF93DF93EC018881FE
:1007E0009981009759F02A813B812617370730F00D
:1007F00081E0DF91CF911F910F9108958B016F5F81
:100800007F4F0E94F80B009759F0998388831B83D0
:100810000A832C813D81232B59F7FC011082E8CFFC
:1008200080E0E7CFEF92FF920F931F93CF93DF9378
:10083000EC017B018A01BA010E94EA0381110BC01D
:10084000CE010E94D803CE01DF91CF911F910F916D
:10085000FF90EF9008951D830C83B70188819981E3
:100860000E94E20CF0CF1F920F920FB60F9211244C
:100870002F933F938F939F93AF93BF9380912702C2
:1008800090912802A0912902B0912A02309126026B
:1008900023E0230F2D3758F50196A11DB11D20939C
:1008A00026028093270290932802A0932902B093F6
:1008B0002A028091220290912302A0912402B091F9
:1008C00025020196A11DB11D80932202909323025F
:1008D000A0932402B0932502BF91AF919F918F9175
:1008E0003F912F910F900FBE0F901F90189526E803
:1008F000230F0296A11DB11DD2CF1F920F920FB6EA
:100900000F9211240BB60F922F933F934F935F9347
:100910006F937F938F939F93AF93BF93EF93FF93C7
:100920008BE292E00E94D201FF91EF91BF91AF91D3
:100930009F918F917F916F915F914F913F912F91F7
:100940000F900BBE0F900FBE0F901F9018951F9227
:100950000F920FB60F9211240BB60F922F938F9315
:100960009F93EF93FF93E0913B02F0913C028081D3
:10097000E0914102F091420282FD1DC09081809180
:1009800044028F5F8F7320914502821741F0E091FE
:100990004402F0E0E55DFD4F958F80934402FF91A6
:1009A000EF919F918F912F910F900BBE0F900FBEE3
:1009B0000F901F9018958081F2CF1F920F920FB663
:1009C0000F9211240BB60F922F933F934F935F9387
:1009D0006F937F938F939F93AF93BF93EF93FF9307
:1009E00048E251E064E271E090E080E00E941E0382
:1009F000FF91EF91BF91AF919F918F917F916F91F7
:100A00005F914F913F912F910F900BBE0F900FBEB2
:100A10000F901F9018951F920F920FB60F921124EE
:100A20000BB60F922F933F934F935F936F937F93E8
:100A30008F939F93AF93BF93EF93FF9348EA50E058
:100A400064EA70E083E090E00E941E03FF91EF9162
:100A5000BF91AF919F918F917F916F915F914F91D6
:100A60003F912F910F900BBE0F900FBE0F901F90D4
:100A700018951F920F920FB60F9211240BB60F927A
:100A80002F933F934F935F936F937F938F939F9396
:100A9000AF93BF93EF93FF9348E950E064E970E0B0
:100AA00082E090E00E941E03FF91EF91BF91AF9111
:100AB0009F918F917F916F915F914F913F912F9176
:100AC0000F900BBE0F900FBE0F901F9018951F92A6
:100AD0000F920FB60F9211240BB60F922F933F93E4
:100AE0004F935F936F937F938F939F93AF93BF9336
:100AF000EF93FF9348E850E064E870E081E090E015
:100B00000E941E03FF91EF91BF91AF919F918F9132
:100B10007F916F915F914F913F912F910F900BBEFD
:100B20000F900FBE0F901F90189510922E021092EA
:100B30002D0288EE93E0A0E0B0E080932F02909326
:100B40003002A0933102B09332028AE092E0909397
:100B50002C0280932B0285EC90E0909338028093D6
:100B6000370284EC90E090933A028093390280EC53
:100B700090E090933C0280933B0281EC90E0909354
:100B80003E0280933D0282EC90E09093400280937D
:100B90003F0286EC90E090934202809341021092D3
:100BA0004402109245021092460210924702809130
:100BB0005803803330F591E0980F90935803809359
:100BC0005F0390E0FC01EE0FFF1FE80FF91FE853F1
:100BD000FD4F88EB9BE09283818310925A03109221
:100BE000590310925C0310925B0310925E03109203
:100BF0005D0350E040E068E172E089E593E00C9429
:100C000012048FEF80935F03E8CFCF93DF9300D080
:100C100000D01F921F92CDB7DEB7789484B5826062
:100C200084BD84B5816084BD85B5826085BD85B590
:100C3000816085BD80916E00816080936E0010920E
:100C40008100809181008260809381008091810089
:100C5000816080938100809180008160809380001A
:100C60008091B10084608093B1008091B000816078
:100C70008093B00080919100826080939100809178
:100C800091008160809391008091900081608093B9
:100C900090008091A10082608093A1008091A100CA
:100CA00081608093A1008091A00081608093A0006A
:100CB00080912101826080932101809121018160D6
:100CC0008093210180912001816080932001809197
:100CD0007A00846080937A0080917A0082608093A9
:100CE0007A0080917A00816080937A0080917A0006
:100CF000806880937A001092C100E0913B02F091ED
:100D00003C0282E08083E0913702F0913802108249
:100D1000E0913902F0913A028FEC80831092430205
:100D2000E0913F02F091400286E08083E0913D0235
:100D3000F0913E02808180618083E0913D02F091DC
:100D40003E02808188608083E0913D02F0913E0206
:100D5000808180688083E0913D02F0913E02808135
:100D60008F7D808380915F03803308F068C0EEE060
:100D7000F2E02491E8ECF1E08491882399F090E08E
:100D8000880F991FFC01E455FE4FA591B491FC0119
:100D9000EE56FE4F859194918FB7F894EC91E22B2B
:100DA000EC938FBF80915F03282F30E0F901EE0FA5
:100DB000FF1FE20FF31FE853FD4F9081907C92607C
:100DC000908310926003109261032CE0622F0E94C6
:100DD000BF0A829FB001112430E020E0AB01420F36
:100DE000531FFA01EE0FFF1FE40FF51FE853FD4FED
:100DF000908196FD16C02F5F3F4F2C30310571F763
:100E00008130E9F51092800082E080938100109299
:100E1000850010928400B19A80916F008260809367
:100E20006F00E0915F038E2F90E0FC01EE0FFF1F3B
:100E3000E80FF91FE853FD4F80818064808348E804
:100E4000E42EF12C58E5C52E52E0D52EBB24B394E8
:100E500080912102811190C08BE292E00E94BC013E
:100E6000181619064CF48BE292E00E949A01182F92
:100E70008D3289F5B09220020E946102E9CF823062
:100E800061F410929000809391001092950010925E
:100E9000940088BB80937100C4CF833069F41092B2
:100EA000A00082E08093A1001092A5001092A400FF
:100EB00089BB80937200B5CF8111B3CF109220010E
:100EC00082E08093210110922501109224018ABBB7
:100ED00080937300A6CF833719F4B0922102CCCF50
:100EE0001A8219821C821B821E821D826091590304
:100EF00070915A036115710541F040915D03509165
:100F00005E03CE0101960E9412041F8318860D8194
:100F10001E810F5F1F4FB801CE0101960E94EA03A8
:100F2000882301F129813A818D819E81BE01695F0B
:100F30007F4F820F931F0E94E20C1E830D836981F5
:100F40007A816115710599F04D815E8189E593E0A3
:100F50000E94120489819A81009709F48DCF0E9422
:100F60006F0B8ACFCE0101960E94D803E8CF89E5A6
:100F700093E00E94D803EECF80911E0290911F0251
:100F8000892B09F079CF8091590390915A030097EA
:100F900009F49CC00E94730870931F0260931E02A4
:100FA00020912002211107C07195619571097093FC
:100FB0001F0260931E0220915F032F3F09F475C04A
:100FC000022F10E0F801EE0FFF1FE00FF11FE853B2
:100FD000FD4F61817281B3E0660F771FBA95E1F72B
:100FE00090E080E034E095958795779567953A9500
:100FF000D1F74B0132E0830E911C203308F055C02D
:1010000060911E0270911F02072E000C880B990B35
:101010000E94B10820E030E044EB53E40E94170A3C
:1010200020E030E04AE754E40E94EC082B013C0148
:10103000B401990C880B990B0E94B1089B01AC017B
:10104000C301B2010E94AB090E94890A409160036A
:10105000F701E41BF10947FDF395AF01440F551F5C
:10106000440F551F6417750784F040916103F60122
:10107000E41BF10947FDF395AF01440F551F440FE1
:10108000551F641775070CF4AB01CA010297880F4E
:10109000991F2FB7F894F801EE0FFF1FE00FF11F13
:1010A000E853FD4F928381832FBF1092210210924B
:1010B000200250E040E068E172E089E593E00E94A0
:1010C000120410921F0210921E02D6CE60E070E051
:1010D000CB0162CF8091590390915A03009711F090
:1010E0000C946F0B08951F93FC0199278827BC016E
:1010F000E89411911032E9F3193010F01E30C8F362
:101100001B3251F01D3249F4689406C00E949A08BF
:10111000610F711D811D911D119110531A30B0F393
:101120003EF490958095709561957F4F8F4F9F4FBE
:101130001F910895592F482F372F262F660F771F9D
:10114000881F991F660F771F881F991F620F731FD3
:10115000841F951F660F771F881F991F0895E894B5
:1011600009C097FB3EF490958095709561957F4FEF
:101170008F4F9F4F9923A9F0F92F96E9BB2793959D
:10118000F695879577956795B795F111F8CFFAF4AD
:10119000BB0F11F460FF1BC06F5F7F4F8F4F9F4FDE
:1011A00016C0882311F096E911C0772321F09EE83C
:1011B000872F762F05C0662371F096E8862F70E0A2
:1011C00060E02AF09A95660F771F881FDAF7880F7C
:1011D0009695879597F908950E94FF080C947009D9
:1011E0000E94620938F00E94690920F0952311F0ED
:1011F0000C9459090C945F0911240C94A4090E94C1
:10120000810970F3959FC1F3950F50E0551F629FC0
:10121000F001729FBB27F00DB11D639FAA27F00D4F
:10122000B11DAA1F649F6627B00DA11D661F829F76
:101230002227B00DA11D621F739FB00DA11D621F5B
:10124000839FA00D611D221F749F3327A00D611D78
:10125000231F849F600D211D822F762F6A2F11245A
:101260009F5750409AF0F1F088234AF0EE0FFF1F8D
:10127000BB1F661F771F881F91505040A9F79E3FE4
:10128000510580F00C9459090C94A4095F3FE4F3D4
:10129000983ED4F3869577956795B795F795E7953A
:1012A0009F5FC1F7FE2B880F911D9695879597F943
:1012B000089597F99F6780E870E060E008959FEFD8
:1012C00080EC089500240A941616170618060906DD
:1012D000089500240A9412161306140605060895AC
:1012E000092E0394000C11F4882352F0BB0F40F434
:1012F000BF2B11F460FF04C06F5F7F4F8F4F9F4F74
:10130000089557FD9058440F551F59F05F3F71F0F5
:101310004795880F97FB991F61F09F3F79F087955C
:101320000895121613061406551FF2CF4695F1DFE5
:1013300008C0161617061806991FF1CF8695710575
:10134000610508940895E894BB2766277727CB01A9
:1013500097F908955058BB27AA270E94C2090C94F8
:1013600070090E94620938F00E94690920F039F47E
:101370009F3F19F426F40C945F090EF4E095E7FB07
:101380000C945909E92F0E94810958F3BA17620792
:1013900073078407950720F079F4A6F50C94A30948
:1013A0000EF4E0950B2EBA2FA02D0B01B901900180
:1013B0000C01CA01A0011124FF27591B99F0593FC4
:1013C00050F4503E68F11A16F040A22F232F342F0C
:1013D0004427585FF3CF469537952795A795F0405A
:1013E0005395C9F77EF41F16BA0B620B730B840B6F
:1013F000BAF09150A1F0FF0FBB1F661F771F881F27
:10140000C2F70EC0BA0F621F731F841F48F487957E
:1014100077956795B795F7959E3F08F0B0CF939570
:10142000880F08F09927EE0F9795879508950E94E9
:101430002B0A0C9470090E94690958F00E946209F5
:1014400040F029F45F3F29F00C94590951110C9494
:10145000A4090C945F090E94810968F39923B1F3F0
:10146000552391F3951B550BBB27AA2762177307CA
:10147000840738F09F5F5F4F220F331F441FAA1F5E
:10148000A9F335D00E2E3AF0E0E832D0915050401A
:10149000E695001CCAF72BD0FE2F29D0660F771FC8
:1014A000881FBB1F261737074807AB07B0E809F0AE
:1014B000BB0B802DBF01FF2793585F4F3AF09E3F33
:1014C000510578F00C9459090C94A4095F3FE4F39A
:1014D000983ED4F3869577956795B795F7959F5F76
:1014E000C9F7880F911D9695879597F90895E1E0C2
:1014F000660F771F881FBB1F621773078407BA0721
:1015000020F0621B730B840BBA0BEE1F88F7E0957B
:1015100008950E94900A6894B1110C94A40908954A
:101520000E94890988F09F5798F0B92F9927B751E1
:10153000B0F0E1F0660F771F881F991F1AF0BA9577
:10154000C9F714C0B13091F00E94A309B1E0089529
:101550000C94A309672F782F8827B85F39F0B93F1B
:10156000CCF3869577956795B395D9F73EF490952A
:101570008095709561957F4F8F4F9F4F0895991B70
:1015800079E004C0991F961708F0961B881F7A957A
:10159000C9F780950895EE0FFF1F881F8BBF079036
:1015A000F691E02D19940F931F93CF93DF93823020
:1015B000910510F482E090E0E0916403F0916503FE
:1015C00030E020E0B0E0A0E0309799F4211531053B
:1015D00009F44AC0281B390B24303105D8F58A811B
:1015E0009B816115710589F1FB0193838283FE0163
:1015F00011C0408151810281138148175907E0F0E1
:101600004817590799F4109761F012960C931297A6
:1016100013961C933296CF01DF91CF911F910F91BA
:1016200008950093640310936503F4CF21153105E9
:1016300051F04217530738F0A901DB019A01BD01AF
:10164000DF01F801C1CFEF01F9CF909365038093DB
:101650006403CDCFFE01E20FF31F819391932250DB
:10166000310939832883D7CF2091620330916303F6
:10167000232B41F420910202309103023093630343
:10168000209362032091000230910102211531055F
:1016900041F42DB73EB74091040250910502241B3E
:1016A000350BE0916203F0916303E217F307A0F4B6
:1016B0002E1B3F0B2817390778F0AC014E5F5F4FA8
:1016C0002417350748F04E0F5F1F50936303409374
:1016D0006203819391939FCFF0E0E0E09CCFCF93A2
:1016E000DF930097E9F0FC01329713821282A091F8
:1016F0006403B0916503ED0130E020E01097A1F4A0
:1017000020813181820F931F209162033091630306
:101710002817390709F061C0F0936303E09362036F
:10172000DF91CF910895EA01CE17DF07E8F54A81EE
:101730005B819E0141155105B1F7E901FB83EA8305
:1017400049915991C40FD51FEC17FD0761F48081B1
:1017500091810296840F951FE90199838883828184
:1017600093819B838A83F0E0E0E012968D919C91B7
:1017700013970097B9F52D913C911197CD010296E1
:10178000820F931F2091620330916303281739075A
:1017900039F6309751F51092650310926403B093B7
:1017A0006303A0936203BCCFD383C2834081518182
:1017B000840F951FC817D90761F44E5F5F4F88816A
:1017C0009981480F591F518340838A819B8193835C
:1017D00082832115310509F0B0CFF0936503E093C2
:1017E00064039ECFFD01DC01C0CF13821282D7CFEC
:1017F0004F925F926F927F928F929F92AF92BF9221
:10180000CF92DF92EF92FF920F931F93CF93DF93CC
:101810008C01009799F4CB01DF91CF911F910F912B
:10182000FF90EF90DF90CF90BF90AF909F908F9000
:101830007F906F905F904F900C94D30AFC01E60F5D
:10184000F71F9C0122503109E217F30708F4AEC0DC
:10185000D901CD91DC911197C617D70720F1C5307A
:10186000D10578F0CE0104978617970750F0C61B74
:10187000D70B2297C193D1936D937C93CF010E9494
:101880006F0BC801DF91CF911F910F91FF90EF90E7
:10189000DF90CF90BF90AF909F908F907F906F9090
:1018A0005F904F9008955B01AC1ABD0A4C018C0EFD
:1018B0009D1EA0916403B0916503512C412CF12C25
:1018C000E12C109731F580916203909163038815A4
:1018D000990509F05CC04616570608F058C080917B
:1018E000000290910102009741F48DB79EB740919C
:1018F000040250910502841B950BE817F90708F0C4
:1019000055C0F0936303E0936203F9017183608330
:10191000B8CF8D919C91119712966C901297139657
:101920007C901397A815B90559F56C0142E0C40ED7
:10193000D11CCA14DB0420F1AC014A195B09DA019D
:101940001296159780F06282738251834083D90189
:101950006D937C93E114F10471F0D7011396FC931D
:10196000EE9312978ECF22968C0F9D1FF9019183D3
:101970008083F301EFCFF0936503E093640381CF9D
:101980004816590608F42C017D01D3019ACFCB01EA
:101990000E94D30A7C01009749F0AE01B8010E9471
:1019A000D90CC8010E946F0B87016BCF10E000E0DB
:1019B00068CFFB01DC0102C001900D924150504004
:1019C000D8F70895FB01DC0101900D920020E1F7AA
:1019D000089511E0CAE2D1E000E006C0802FFE01C8
:1019E0000E94CB0A2196011DCB32D10780E0080767
:0619F000A9F7F894FFCFF7
:1019F60000006603800000000000F4015E018B0118
:0A1A06004102BC019A01AE0100008C
:00000001FF
