:100000000C94D1010C9402020C9402020C94020292
:100010000C9402020C9402020C9402020C94020250
:100020000C9402020C9402020C9402020C94020240
:100030000C9402020C9402020C9402020C94020230
:100040000C9402020C9402020C9402020C94020220
:100050000C9402020C9402020C9402020C940B0CFD
:100060000C9402020C94D50B0C94AB0B0C94020272
:100070000C9402020C9402020C9402020C940202F0
:100080000C9402020C9402020C9402020C940202E0
:100090000C9402020C9402020C9402020C94550C73
:1000A0000C9402020C9402020C9402020C940202C0
:1000B0000C9402020C9402020C9402020C940202B0
:1000C0000C9402020C9402020C9402020C940202A0
:1000D0000C9402020C9402020C9402020C94020290
:1000E0000C9402020C94BF030C948A060C94A40690
:1000F0000C948E030C9490020C942A140C942802F5
:100100000C947B060C9401070C945F020C94A903D9
:100110000C9484030C9400070C94D1060C94C50332
:100120000C9427020C949F030C947A060C94C8023A
:100130000C94790D0C94A3030C9429020C946E0278
:100140000C9499030C94F6030C9482020C941503FE
:100150000C9496030C948A030C9492030C94B103B0
:100160000C9493080C94B7030C94AD030C9467049F
:100170000C9427040C949D060C94BB030C94C903A7
:100180000C94C40300407A10F35A00A0724E180970
:100190000010A5D4E80000E87648170000E40B54EE
:1001A000020000CA9A3B000000E1F50500008096BD
:1001B0009800000040420F000000A08601000000EF
:1001C000102700000000E8030000000064000000A9
:1001D00000000A00000000000100000000002C7672
:1001E000D888DC674F0823DFC1DFAE59E1B1B7968D
:1001F000E5E3E453C63AE651997696E8E6C28426EA
:10020000EB898C9B62ED407C6FFCEFBC9C9F40F2C5
:10021000BAA56FA5F490055A2AF75C936B6CF96741
:100220006DC11BFCE0E40D47FEF520E6B500D0ED06
:10023000902E0300943577050080841E080000206E
:100240004E0A000000C80C333333330F986E12830C
:100250001141EF8D2114893BE65516CFFEE6DB18E0
:10026000D1844B381BF77C1D901DA4BBE4242032A5
:1002700084725E228100C9F124ECA1E53D270000D3
:100280002100240027002A002D0030003300010146
:100290000000040107010A010000220025002800D7
:1002A0002B002E003100340002010000050108017E
:1002B0000B01000020002300260029002C002F0045
:1002C00032000001000003010601090105050505D2
:1002D000070508080808020202020A0A08080404BE
:1002E00004040101010101010101030303030303EC
:1002F0000303040707070C0C0C0C0C0C0C0C02027B
:10030000020206060606060606060B0B0B0B0B0B77
:100310000B0B010210202008081020401020408004
:1003200002010201080402010102040810204080B9
:100330008040201008040201800402018040201047
:100340000804020108040201010204081020408090
:10035000010204081020408000000A0B02090C0D65
:100360000E08070304010000000000000000000068
:10037000000000000000000000000000000000007D
:10038000000000001211100000000000000000003A
:100390000000000000000000000000000000790DD7
:1003A0002A1411241FBECFEFD1E2DEBFCDBF00E083
:1003B0000CBF24E0A2EDB2E001C01D92A83EB2073E
:1003C000E1F712E0A0E0B2E0EEE3F7E300E00BBFFC
:1003D00002C007900D92A23DB107D9F711E0C0ED20
:1003E000D1E000E006C021970109802FFE010E94A4
:1003F0005B19CF3CD10780E00807A9F70E94740E73
:100400000C948D1B0C94000096E0899FD001112460
:10041000AB58BB4F90967C936E935F9791E091960B
:100420009C939197E091E204F091E3049091E104B0
:10043000992339F0309751F0811108C080919104CF
:100440001994309719F05C968C91FACF089508951D
:100450000895AF92BF92CF92DF92EF92FF920F93E7
:100460001F93CF93DF936C017B018B01040F151F4A
:10047000EB015E01AE18BF08C017D10759F06991B2
:10048000D601ED91FC910190F081E02DC601199506
:10049000892B79F7C501DF91CF911F910F91FF90C3
:1004A000EF90DF90CF90BF90AF900895FC01448112
:1004B0005581608171818DE594E00C942902FC01E5
:1004C000538D448D252F30E0842F90E0821B930BB9
:1004D000541710F0CF96089501970895FC01918D5F
:1004E000828D981761F0A28DAE0FBF2FB11D5D9662
:1004F0008C91928D9F5F9F73928F90E008958FEF04
:100500009FEF0895FC01918D828D981731F0828DB7
:10051000E80FF11D858D90E008958FEF9FEF08950E
:10052000FC01918D228D892F90E0805C9F4F821B72
:1005300091098F73992708958EE993E00E949002A4
:1005400021E0892B09F420E0822F0895FC01A48D7D
:10055000A80FB92FB11DA35ABF4F2C91848D90E0E5
:1005600001968F739927848FA689B7892C93A089C8
:10057000B1898C91837080648C93938D848D981352
:1005800006C00288F389E02D80818F7D80830895E5
:10059000EF92FF920F931F93CF93DF93EC0181E0D3
:1005A000888F9B8D8C8D98131AC0E889F98980817A
:1005B00085FF15C09FB7F894EE89FF896083E889AD
:1005C000F98980818370806480839FBF81E090E09F
:1005D000DF91CF911F910F91FF90EF900895F62E2C
:1005E0000B8D10E00F5F1F4F0F731127E02E8C8DC6
:1005F0008E110CC00FB607FCFACFE889F98980810B
:1006000085FFF5CFCE010E94A602F1CFEB8DEC0F56
:10061000FD2FF11DE35AFF4FF0829FB7F8940B8F27
:10062000EA89FB8980818062CFCFCF93DF93EC0191
:10063000888D8823B9F0AA89BB89E889F9898C91CA
:1006400085FD03C0808186FD0DC00FB607FCF7CF86
:100650008C9185FFF2CF808185FFEDCFCE010E9486
:10066000A602E9CFDF91CF91089580E090E0892B39
:1006700029F00E949C0281110E94000080E090E01D
:10068000892B49F080E090E0892B29F00E9400003E
:1006900081110E94000080E090E0892B49F080E009
:1006A00090E0892B29F00E94000081110E94000037
:1006B00080E090E0892B49F080E090E0892B29F0E0
:1006C0000E94000081110C94000008958150823135
:1006D00008F05AC0E82FF0E08827EE58FC4F8F4F03
:1006E0000C945B199203960384038A038E03C4035C
:1006F00099039F03A303A903AD03B103B703BB038E
:10070000C403BF03C503C903809180008F77809322
:1007100080000895809180008F7DF9CF80918000C6
:10072000877FF5CF84B58F7784BD089584B58F7D9D
:10073000FBCF8091B0008F778093B00008958091B7
:10074000B0008F7DF9CF809190008F7780939000DB
:100750000895809190008F7DF9CF80919000877FE0
:10076000F5CF8091A0008F778093A00008958091AD
:10077000A0008F7DF9CF8091A000877FF5CF809179
:1007800020018F77809320010895809120018F7D33
:10079000F9CF80912001877FF5CFCF93DF93282F6A
:1007A00030E0F901E85AFC4F8491F901EE5EFC4F0C
:1007B000D491F901E453FD4FC491CC23A1F08111F0
:1007C0000E946603EC2FF0E0EE0FFF1FEE54FD4F8A
:1007D000A591B491EC91ED2381E090E009F480E0E3
:1007E000DF91CF91089580E090E0FACF862F0C94AE
:1007F000CD031F93CF93DF93282F30E0F901E85A00
:10080000FC4F8491F901EE5EFC4FD491F901E45361
:10081000FD4FC491CC23A9F0162F81110E946603CD
:10082000EC2FF0E0EE0FFF1FE856FD4FA591B491BD
:100830008FB7F894EC91111108C0D095DE23DC93AA
:100840008FBFDF91CF911F910895DE2BF8CF862FB8
:10085000642F0C94F903CF93DF9390E0FC01EE5EDC
:10086000FC4F249184539D4FFC0184918823C9F04F
:1008700090E0880F991FFC01E258FD4FA591B491BB
:10088000FC01E856FD4FC591D49161110DC09FB791
:10089000F8948C91209582238C9388812823288337
:1008A0009FBFDF91CF910895623051F49FB7F894C4
:1008B0003C91822F809583238C93E8812E2BEFCF60
:1008C0008FB7F894EC912E2B2C938FBFEACF862F05
:1008D000642F0C942B043FB7F89480911B039091E4
:1008E0001C03A0911D03B0911E0326B5A89B05C053
:1008F0002F3F19F00196A11DB11D3FBFBA2FA92F9F
:10090000982F8827BC01CD01620F711D811D911D9B
:1009100042E0660F771F881F991F4A95D1F7089507
:100920008F929F92AF92BF92CF92DF92EF92FF92FF
:100930000E946B044B015C0184E6C82ED12CE12C93
:10094000F12C0E946B04681979098A099B09683E99
:10095000734081059105A8F321E0C21AD108E1088E
:10096000F10888EE880E83E0981EA11CB11CC1140A
:10097000D104E104F10429F7FF90EF90DF90CF90CC
:10098000BF90AF909F908F9008952FB7F89460918B
:100990001703709118038091190390911A032FBFC8
:1009A00008950F931F93CF93DF93C82FD62F86E020
:1009B000C89FF0011124EB58FB4F11A2878D90A125
:1009C00081309105F1F058F082309105F1F10397F3
:1009D00009F440C0DF91CF911F910F9108956623D4
:1009E000C9F361E070E08C2F0E9404020E94C504EC
:1009F0006093CD047093CE048093CF049093D00481
:100A0000E9CF0E94C5040091CD041091CE0420913D
:100A1000CF043091D004AB01BC01401B510B620BE1
:100A2000730B8091DF049091E004B0E0A0E08417A4
:100A30009507A607B70748F462E070E08C2FDF91B6
:100A4000CF911F910F910C94040263E070E0D111DB
:100A5000C1CFF4CF70E060E0F1CF2091F302260F18
:100A60003327331F21323105ECF420917403FC014C
:100A700090E080E0243069F082E00895A091F302D4
:100A80002191AC014D525D4FA40FB52FB11D2C9398
:100A90000196861798F38091F302680F6093F30232
:100AA00080E0089581E008951092740381E08093BE
:100AB000730310924E0361E084E10E94F90361E048
:100AC00085E10E94F903E9EBF0E080818E7F80836D
:100AD00080818D7F808388E48093B80085E4809353
:100AE000BC000895CF93DF9391E09093D2028823C6
:100AF000B9F0C091B800D091BA008091BC008A7B57
:100B00008093BC0060E084E10E94F90360E085E12D
:100B10000E94F9030E945405D093BA00C093B80014
:100B2000DF91CF910895CF92DF92EF92FF920F93D2
:100B30001F93CF93DF93D0919D0381E0D13208F0D2
:100B40009CC0C0919C030E946B046B017C0180914E
:100B5000740381116CC082E08093740381E0809300
:100B600073038FEF8093720310927103D09370031D
:100B7000ACE7B3E0E0E5F3E080E0D8138DC010927D
:100B80004F0380914F03CC0FC82BC0934F0380912C
:100B90004E03813009F084C010924E030E946B0412
:100BA0006B017C0180914F038093BB0080917603A1
:100BB00090917703A0917803B0917903892B8A2BC8
:100BC0008B2BA1F00E946B040091760310917703A8
:100BD00020917803309179036C197D098E099F0962
:100BE000061717072807390708F442C08091BC0090
:100BF00083FDD8CF85EC8093BC000E946B046B0111
:100C00007C0180917403823009F44CC0809172039E
:100C10008F3F09F469C080917203803209F466C085
:100C200080917203803309F463C084E026C0809110
:100C3000760390917703A0917803B0917903892B83
:100C40008A2B8B2B09F483CF0E946B0400917603CF
:100C50001091770320917803309179036C197D0905
:100C60008E099F09061717072807390708F06FCF65
:100C7000809175030E94720585E010927B031092AB
:100C80009D0310927A03DF91CF911F910F91FF90F6
:100C9000EF90DF90CF9008959D9191938F5F6DCFEE
:100CA00085EEA9CF8091760390917703A091780388
:100CB000B0917903892B8A2B8B2B09F4A2CF0E9448
:100CC0006B040091760310917703209178033091A3
:100CD00079036C197D098E099F09061717072807E4
:100CE000390708F08ECFC4CF80E0C7CF82E0C5CFF0
:100CF00083E0C3CF0895E091240380912303E81794
:100D000030F4F0E0EB5DFC4F808190E008958FEFD0
:100D10009FEF089590912403809123032FEF3FEFDD
:100D2000981748F4E92FF0E0EB5DFC4F208130E0AC
:100D30009F5F90932403C9010895809123039091AC
:100D40002403891B990B0895CF92DF92EF92FF92B3
:100D50000F931F93CF93DF937C01CB018A012091E6
:100D60007A03222389F0EB016B01C40ED51ECC154A
:100D7000DD0569F06991D701ED91FC910190F08159
:100D8000E02DC7011995F3CF642F0E942D05C801EE
:100D9000DF91CF911F910F91FF90EF90DF90CF9057
:100DA0000895CF93DF931F92CDB7DEB7698320916B
:100DB0007A032223F9F020919D03203258F021E09C
:100DC00030E0FC013383228390E080E00F90DF91DC
:100DD000CF91089580917B03E82FF0E0E458FC4F19
:100DE000998190838F5F80937B0380939D0381E043
:100DF00090E0ECCF61E0CE0101960E942D05F7CF87
:100E0000089590E080E0089560E088E20E94F90390
:100E100060E089E20E94F90360E08AE20E94F9033F
:100E200060E08BE20E94F90380914603813089F4EF
:100E300080934D0380914803E82FF0E090914703A1
:100E4000E05DFD4F923011F48330C0F461E08081A9
:100E500010C0833081F461E088E20E94F90361E010
:100E600089E20E94F90361E08AE20E94F90361E0ED
:100E70008BE20C94F9038230E9F208953297E6CFC1
:100E8000CF93DF93EC0160E08E810E94F90361E073
:100E90008E810E94F90360E08E810E94F9038BE845
:100EA00091E00197F1F7DF91CF910895CF92DF9212
:100EB000EF92FF920F931F93CF93DF936C017C010E
:100EC00087E0E80EF11CD0E0C0E0062F10E0B8018A
:100ED0000C2E02C0759567950A94E2F76170F701D0
:100EE00081917F010E94F9032196C430D10579F7E1
:100EF000C601DF91CF911F910F91FF90EF90DF908E
:100F0000CF900C944007CF92DF92EF92FF920F9315
:100F10001F93CF93DF93EC01F62E642F8C810E94F8
:100F2000F9038D818F3F19F060E00E94F9030F2DC6
:100F300010E08F8584FF25C06E0187E0C80ED11CAC
:100F4000F12CE12CB8010E2C02C0759567950A941E
:100F5000E2F76170F60181916F010E94F903FFEFE2
:100F6000EF1AFF0A88E0E816F10461F7CE01DF917D
:100F7000CF911F910F91FF90EF90DF90CF900C9445
:100F80004007B80184E0759567958A95E1F7CE0131
:100F90000E9456076F2DCE01DF91CF911F910F91C7
:100FA000FF90EF90DF90CF900C94560740E0682FB1
:100FB0008DE594E00C94830781E00E94D6078BE3D3
:100FC0009FE10197F1F70895CF93DF93823029F4E1
:100FD00090916C04986090936C04809370041092CC
:100FE000710480E48093720480E18093730480E54F
:100FF0008093740461E0809161040E942B048091CD
:1010000062048F3F19F061E00E942B0461E080913F
:1010100063040E942B04CDE5D4E09E012D5534409D
:1010200080916C0484FD0BC084E090E02196281729
:10103000390744F461E08E810E942B04EECF88E0F2
:1010400090E0F4CF8BE39DE00197F1F760E08091B1
:1010500061040E94F90360E0809163040E94F90337
:10106000809162048F3F19F060E00E94F903809143
:101070006C0484FD34C063E08DE594E00E94560763
:10108000CBE4D6E4CE010197F1F763E08DE594E07F
:101090000E9456072197F1F763E08DE594E00E94E6
:1010A000560783E592E00197F1F762E08DE594E061
:1010B0000E94560780916C0480620E94D60784E0EB
:1010C00080936D048CE00E94D6070E94DC0782E0CA
:1010D00080936E0486E0DF91CF910C94D6078062F6
:1010E0000E94D6078BE496E40197F1F780916C0497
:1010F00080620E94D60783E592E00197F1F7809124
:101100006C0480620E94D607D5CF90917004891735
:1011100010F08FEF890FE82FF0E0E35AFB4F84893E
:1011200080680C94D60741E00E94830781E090E03C
:1011300008950F931F93CF93DF93EC0188819981DA
:10114000009759F02A813B812617370730F081E05C
:10115000DF91CF911F910F9108958B016F5F7F4FAA
:101160000E949C1A009759F0998388831B830A83F5
:101170002C813D81232B59F7FC011082E8CF80E0C0
:10118000E7CFEF92FF920F931F93CF93DF936115F9
:10119000710541F480E0DF91CF911F910F91FF9095
:1011A000EF90089541155105B1F07B01EC010C81E0
:1011B0001D81040F151FB8010E949908882351F35F
:1011C000288139818C819D81B701820F931F0E94F4
:1011D000861B1D830C8381E0DECFCF93DF93EC0170
:1011E00088819981009711F00E94131A1982188240
:1011F0001D821C821B821A82DF91CF910895CF93AA
:10120000DF93EC0142E050E068EC72E00E94C1081C
:10121000811103C0CE010E94ED08CE01DF91CF9174
:101220000895EF92FF920F931F93CF93DF93EC01FA
:101230007B01198218821B821A821D821C82FB018B
:1012400001900020E9F731978F01061B170BB801B9
:101250000E949908811109C0CE01DF91CF911F91A1
:101260000F91FF90EF900C94ED081D830C83B70154
:1012700088819981DF91CF911F910F91FF90EF901D
:101280000C94861BEF92FF920F931F93CF93DF93E3
:101290008C017B01EB0109900020E9F72197C61B27
:1012A000D70BBE010E949908811109C0C801DF91C6
:1012B000CF911F910F91FF90EF900C94ED08F801E2
:1012C000D583C483B70180819181DF91CF911F9134
:1012D0000F91FF90EF900C94861B0F931F93CF9369
:1012E000DF9300D000D000D0CDB7DEB78C01862FC1
:1012F000F8011182108213821282158214824AE050
:10130000BE016F5F7F4F90E00E949314BE016F5F3C
:101310007F4FC8010E94420929960FB6F894DEBF9C
:101320000FBECDBFDF91CF911F910F9108950F9305
:101330001F93CF93DF93CDB7DEB762970FB6F894C4
:10134000DEBF0FBECDBF8C01CB01F8011182108230
:1013500013821282158214824AE0BE016F5F7F4FB2
:101360000E947314BE016F5F7F4FC8010E94420943
:1013700062960FB6F894DEBF0FBECDBFDF91CF915E
:101380001F910F910895CF93DF93EC01FB014481EE
:101390005581608171810E94C108811103C0CE0115
:1013A0000E94ED08CE01DF91CF910895FC0180816C
:1013B0009181009711F00C94131A089585ED809394
:1013C000BC008091760390917703A0917803B0914F
:1013D00079030796A11DB11D23E0B695A7959795B2
:1013E00087952A95D1F72091BC0024FD03C0109267
:1013F00074030895409176035091770360917803C8
:1014000070917903452B462B472B69F30097A10573
:10141000B10541F025E32A95F1F700000197A109F4
:10142000B109E1CF809175030C947205DF92EF92C0
:10143000FF920F931F93CF93DF93CDB7DEB7CB54BB
:10144000D1090FB6F894DEBF0FBECDBF0E94DC07F6
:1014500080E00E9485086EE672E09E012F5F3F4F9C
:101460007901C9010E94110963E772E0CE01079674
:101470000E9411096AE772E0CE010D960E941109DF
:1014800061E872E0CE0143960E9411096AE872E0B9
:10149000CE0149960E94110966E972E0CE014F968D
:1014A0000E94110980914603970146E0849F200D18
:1014B000311D1124C9010E945602809146038111F9
:1014C00049C06091470370E06F5F7F4FCE018A5B38
:1014D0009F4F0E94970962EA72E0CE0185960E94B2
:1014E0001109BE016A5B7F4FCE0185960E94C30938
:1014F0000E94FF080E945602CE0185960E94D609DE
:10150000CE018A5B9F4F0E94D60981E00E94850828
:1015100010E000E086E0D82E80914703F801D89EC5
:10152000E00DF11D1124E050FE4F6081CE01859643
:101530000E946D09CE0185960E945602CE018596C5
:101540000E94D609809147038111E4C00330110540
:1015500009F0E6C0809146038150823008F061C0F6
:101560006091480370E06F5F7F4FCE018A5B9F4FB1
:101570000E9497096DEA72E0CE0185960E941109DA
:10158000BE016A5B7F4FCE0185960E94C3090E940F
:101590005602CE0185960E94D609CE018A5B9F4FE6
:1015A0000E94D60981E00E948508609149037091EC
:1015B0004A0380914B0390914C0328961FAE1EAEB8
:1015C00028972A961FAE1EAE2A972C961FAE1EAEE7
:1015D0002C978E010B5D1F4F22E044E00E942E14D9
:1015E000009709F4B2C0BC01CE018A5B9F4F0E94F4
:1015F000420967EB72E0CE0185960E941109BE0197
:101600006A5B7F4FCE0185960E94C3090E945602F5
:10161000CE0185960E94D609CE018A5B9F4F0E941B
:10162000D60980914603843079F56091470370E0D4
:101630006F5F7F4FCE018A5B9F4F0E9497096EEBD1
:1016400072E0CE0185960E941109BE016A5B7F4F50
:10165000CE0185960E94C3090E94FF080E9456028F
:10166000CE0185960E94D609CE018A5B9F4F0E94CB
:10167000D60981E00E9485084AE050E060EC72E003
:101680008DE594E00E94290280914603853041F562
:1016900081E00E94850860914503CE018A5B9F4FDF
:1016A0000E946D096BEC72E0CE0185960E941109D3
:1016B000BE016A5B7F4FCE0185960E94C3090E94DE
:1016C000FF0867E574E00E94C3090E945602CE013C
:1016D00085960E94D609CE018A5B9F4F0E94D6094B
:1016E0008E010B5D1F4F06501109C8010E94D609DB
:1016F000E016F106C1F7C55BDF4F0FB6F894DEBF09
:101700000FBECDBFDF91CF911F910F91FF90EF9052
:10171000DF900895813099F40230110509F41ACF51
:1017200041E050E06BEA72E08DE594E00E9429020E
:101730000F5F1F4F0630110509F0EECE0BCF823040
:1017400079F70530110561F705CFCE018A5B9F4F10
:101750000E94ED084ECF1F920F920FB60F921124E8
:101760000BB60F922F933F934F935F936F937F939B
:101770008F939F93AF93BF93EF93FF938EE993E083
:101780000E94A602FF91EF91BF91AF919F918F911F
:101790007F916F915F914F913F912F910F900BBE71
:1017A0000F900FBE0F901F9018951F920F920FB6BB
:1017B0000F9211240BB60F922F938F939F93EF9359
:1017C000FF93E091AE03F091AF038081E091B40309
:1017D000F091B50382FD1DC090818091B7038F5FAA
:1017E0008F732091B803821741F0E091B703F0E0C6
:1017F000E256FC4F958F8093B703FF91EF919F9135
:101800008F912F910F900BBE0F900FBE0F901F90D6
:1018100018958081F2CF1F920F920FB60F9211246C
:101820002F933F938F939F93AF93BF938091170311
:1018300090911803A0911903B0911A0330911603E7
:1018400023E0230F2D3758F50196A11DB11D2093DC
:1018500016038093170390931803A0931903B09372
:101860001A0380911B0390911C03A0911D03B0915A
:101870001E030196A11DB11D80931B0390931C03B1
:10188000A0931D03B0931E03BF91AF919F918F91C1
:101890003F912F910F900FBE0F901F90189526E843
:1018A000230F0296A11DB11DD2CF1F920F920FB62A
:1018B0000F9211240BB60F922F933F934F935F9388
:1018C0006F937F938F939F93AF93BF93EF93FF9308
:1018D0008091B900887F803609F44DC008F040C07F
:1018E000883209F4A9C028F5803109F49DC0C8F4F4
:1018F000882309F4FBC0883009F496C0FF91EF916A
:10190000BF91AF919F918F917F916F915F914F9117
:101910003F912F910F900BBE0F900FBE0F901F9015
:101920001895883109F488C0803241F7809372039A
:1019300014C0803409F49DC040F48033B9F3883377
:10194000E9F68093720385ECB0C0803509F485C058
:10195000883509F496C0883489F60E94DE09CECF16
:10196000883909F48CC038F5883729F050F4883666
:1019700011F0803719F683E08093740310921503F9
:1019800057C0883809F47BC0803919F0803809F0D5
:10199000B5CF80911503803208F071C0E091150336
:1019A00081E08E0F809315038091BB00F0E0EB5037
:1019B000FD4F80833DC0803B39F0E0F4803A09F46C
:1019C00079C0883A09F09ACF84E08093740310922A
:1019D000F4021092F302E0912103F0912203199591
:1019E0008091F30281110FC081E08093F302109285
:1019F000D30209C0803C09F4A6CF883C09F4A3CFE8
:101A0000883B09F07BCFE091F40281E08E0F809358
:101A1000F402F0E0ED52FD4F80818093BB00909185
:101A2000F4028091F30229C080914F038093BB00A0
:101A300085EC8093BC0062CF90917103809170031C
:101A4000981758F5E091710381E08E0F8093710330
:101A5000F0E0E05BFC4F8081E9CFE091710381E031
:101A60008E0F809371038091BB00F0E0E05BFC4F30
:101A7000808390917103809170039817C8F285E874
:101A8000D8CFE091710381E08E0F80937103809134
:101A9000BB00F0E0E05BFC4F808380917303811119
:101AA0005CCF81E080934E0384EA8093BC00109267
:101AB000740324CF85EC8093BC0010927403809152
:101AC0001503803230F4E0911503F0E0EB50FD4F48
:101AD00010826091150370E0E0911F03F0912003E4
:101AE00085EF92E019951092150308CF10927203BA
:101AF00034CF1092A1031092A00388EE93E0A0E0EF
:101B0000B0E08093A2039093A303A093A403B093A7
:101B1000A50328E332E030939F0320939E0325EC36
:101B200030E03093AB032093AA0324EC30E03093F1
:101B3000AD032093AC0320EC30E03093AF0320934F
:101B4000AE0321EC30E03093B1032093B00322ECDC
:101B500030E03093B3032093B20326EC30E03093AF
:101B6000B5032093B4031092B7031092B8031092F8
:101B7000B9031092BA0310923E0410923D04809370
:101B80003F0490934004A0934104B09342048AE43C
:101B900092E090933C0480933B041092770410925F
:101BA0007B0410927A0410927C0488E692E0909371
:101BB000760480937504E1E9F4E0108214821382C4
:101BC0001582369684E0ED3CF807B9F786E192E09D
:101BD0009093D8048093D70482E192E09093DA0442
:101BE0008093D90484E08093DB048093DC042AE1B1
:101BF00032E03093D6042093D5042AE030E03093CD
:101C0000DE042093DD0424EF31E03093E0042093E0
:101C1000DF041092E3041092E2041092D1041092B7
:101C2000D2041092D3041092D4041092E1041092C2
:101C3000600410925F042CE532E030935E04209340
:101C40005D0497E0909361049FEF9093620496E0A7
:101C50009093630495E0909364048093650483E01B
:101C60008093660482E08093670410926804109267
:101C7000690410926A0410926B0410926C0481E063
:101C80000E94E4076FEB72E087E594E00E9411097F
:101C90006091000270E090E080E00E941317609372
:101CA00053047093540480935504909356046093A6
:101CB0004F047093500480935104909352040E94F7
:101CC000C50460934B0470934C0480934D0490932F
:101CD0004E040E94C50460934704709348048093A7
:101CE000490490934A040895CF93DF93CDB7DEB7AC
:101CF0006D970FB6F894DEBF0FBECDBF789484B554
:101D0000826084BD84B5816084BD85B5826085BDF7
:101D100085B5816085BD80916E00816080936E0085
:101D20001092810080918100826080938100809177
:101D30008100816080938100809180008160809328
:101D400080008091B10084608093B1008091B000E8
:101D500081608093B00080919100826080939100B7
:101D600080919100816080939100809190008160CA
:101D7000809390008091A10082608093A100809167
:101D8000A10081608093A1008091A0008160809378
:101D9000A000809121018260809321018091210126
:101DA00081608093210180912001816080932001D6
:101DB00080917A00846080937A0080917A008260BA
:101DC00080937A0080917A00816080937A0080917C
:101DD0007A00806880937A001092C100E091AE038F
:101DE000F091AF0382E08083E091AA03F091AB030E
:101DF0001082E091AC03F091AD038FEC80831092E0
:101E0000B603E091B203F091B30386E08083E091E2
:101E1000B003F091B103808180618083E091B003D1
:101E2000F091B103808188608083E091B003F091EC
:101E3000B103808180688083E091B003F091B103A9
:101E400080818F7D8083109224031092230310924F
:101E50007B0310929D030E94540587E292E09093C9
:101E600022038093210388E292E0909320038093E1
:101E70001F0382E00E94E4070E94DC0780E00E94CA
:101E8000850861E088E20E942B0461E089E20E94FB
:101E90002B0461E08AE20E942B0461E08BE20E9445
:101EA0002B049E012F5F3F4F790187E1F9011192C9
:101EB0008A95E9F781E080937A0380E580939C031B
:101EC00060E08BE394E00E94D10665E08BE394E050
:101ED0000E94D1060E9493050E946B044B015C0195
:101EE00080917403811165C081E0809374038093B5
:101EF00073039FEF909372031092710396E1909396
:101F0000700380934F0380914F03806A80934F0347
:101F100080914E03813009F0F5C010924E030E946B
:101F20006B044B015C0180914F038093BB00809157
:101F3000760390917703A0917803B0917903892B70
:101F40008A2B8B2BA1F00E946B04009176031091D9
:101F500077032091780330917903681979098A0908
:101F60009B09061717072807390708F443C0809113
:101F7000BC0083FDD8CF85EC8093BC000E946B042D
:101F80004B015C0180917403813009F4BDC08091E4
:101F90007103873108F0DAC080917103A0E5B3E0E6
:101FA000E5E2F3E090E0981751F12D9121939F5FC6
:101FB000FACF8091760390917703A0917803B09146
:101FC0007903892B8A2B8B2B09F48ACF0E946B040F
:101FD0000091760310917703209178033091790373
:101FE000681979098A099B0906171707280739070D
:101FF00008F076CF809175030E94720580E0109200
:102000002403809323039E01285E3F4F398F288F3E
:1020100087018BE394E00E948A06F80181938F0187
:10202000288D398DE217F307A1F789818F3F09F4D5
:10203000B4C0809346030A8100934803CB80C092CA
:10204000470390E080E0A7014D5F5F4FFA01E80F82
:10205000F91F30E020E0BC0160507E4F1191DB01A0
:10206000A20FB31F1C932F5F3F4F26303105B1F7EE
:1020700006968231910551F76F8970E090E080E01B
:102080000E94131720E030E048EC52E40E949F18B1
:102090004B015C016E8970E090E080E00E941317B4
:1020A0009B01AC01C501B4010E9433182B013C0116
:1020B00040924F0450925004609251047092520426
:1020C00010E0580136E0C39E40011124D12C8FEF5F
:1020D000A81AB80A96E0A916B104D0F5F501E80DE2
:1020E000F91DE050FE4F608170E090E080E00E94BA
:1020F00015179B01AC01C301B2010E9433182B01DB
:102100003C01E5CF85EE38CF80917603909177033F
:10211000A0917803B0917903892B8A2B8B2B09F43A
:1021200031CF0E946B0400917603109177032091C8
:10213000780330917903681979098A099B09061790
:1021400017072807390708F01DCF54CF87E126CF9E
:102150004092490350924A0360924B0370924C03A1
:102160000E94040726E02C9DC0012D9D900D112496
:1021700080509E4F080F191FF801608170E090E0B9
:1021800080E00E941317609353047093540480936B
:102190005504909356040E94160A0E94160A46E0BF
:1021A000D42E9E012D5F3F4F3B8F2A8F80914D0390
:1021B000882309F4C4C00E94C50400914B04109107
:1021C0004C0420914D0430914E04601B710B820B26
:1021D000930B0E94151720E030E04AE754E40E9478
:1021E0009F189B01AC01609153047091540480913D
:1021F0005504909156040E9432183B015C01CB01BA
:10220000D50180934F0490935004A0935104B09350
:1022100052040091480310E048013FEF831A930AEB
:10222000C0904703CD9CC00111249D8F8C8F13015A
:1022300025010F5F1F4F06301105A8F4EC8DFD8DB1
:10224000E00FF11FE050FE4F608170E090E080E011
:102250000E9415179B01AC01B101C2010E94331805
:102260001B012C01E6CFC101D20180934903909359
:102270004A03A0934B03B0934C0320E030E0A90144
:10228000B301C5010E940E1718160CF458C091E056
:1022900063E070E0C91639F0E2E064E070E0CE126D
:1022A00002C066E070E0C4010E94471980934803B1
:1022B000811117C010924D0383E08093460361E0C3
:1022C00088E20E94F90361E089E20E94F90361E07B
:1022D0008AE20E94F90361E08BE20E94F9030E9406
:1022E000160A0E94C50460934B0470934C048093BB
:1022F0004D0490934E048091470320914803D89E4B
:10230000C001112480509E4F820F911DFC016081FD
:1023100070E090E080E00E94131760935304709384
:10232000540480935504909356040E94040710921D
:102330004F041092500410925104109252040E94C3
:10234000C50400914704109148042091490430913C
:102350004A04601B710B820B930B65367105810576
:10236000910508F474C083E1EA8DFB8D11928A9582
:10237000E9F7809146038983809148038A8380919D
:1023800047038B83AE014C5F5F4F80E092E0FA0120
:1023900030E020E0DC01A20FB31F6C9161932F5F4E
:1023A0003F4F26303105B1F74A5F5F4F0696F2E0A6
:1023B00082319F0761F780904F0490905004A09065
:1023C0005104B0905204C501B4010E9418196E8BDB
:1023D00020E030E048EC52E4C501B4010E947417DB
:1023E0000E941119CB0164E670E00E9447198F8B9F
:1023F00081E080937A0380E580939C0310927B03B5
:1024000010929D0360E08BE394E00E94D10665E0AA
:102410008BE394E00E94D1068701F80161918F015E
:102420008BE394E00E94D106288D398D02171307A3
:10243000A1F70E9493050E9490040E94C504609336
:102440004704709348048093490490934A040E947F
:10245000160A0E94040781E08093E1040E94C504EB
:102460000091D1041091D2042091D3043091D4046E
:10247000AB01BC01401B510B620B730B8091DD045F
:102480009091DE04B0E0A0E084179507A607B70797
:1024900008F016C110E08091DB04181760F4E09199
:1024A000D704F091D804E10FF11D62E080810E9411
:1024B0002B041F5FF0CFC12C8091DC04C81608F0FC
:1024C00066C00C2D10E0E091D904F091DA04E00F21
:1024D000F11F61E080810E942B04E091D904F0910A
:1024E000DA04E00FF11F60E080810E94F90381E0CF
:1024F00090E0A0E0B0E00C2C04C0880F991FAA1F48
:10250000BB1F0A94D2F74C015C01A094B094512CEB
:102510008091DB04581620F5652C712CE091D704CE
:10252000F091D804E60DF71D80810E94CD03F301E0
:102530003496892B61F4EE0FFF1FEB58FB4F80811F
:10254000918188299929918380835394E1CFEE0F5B
:10255000FF1FEB58FB4F808191818A219B21F3CF94
:10256000E091D904F091DA04E00FF11F61E080817D
:102570000E94F9038091D9049091DA04080F191F81
:1025800060E0F80180810E942B04C39495CF95E709
:10259000A92E94E0B92E8501F801878D90A1892B91
:1025A00031F4148E2FEF3FEF368F258F11A20A5F83
:1025B0001F4F81EB94E08017910771F7C12C809138
:1025C000DB04C81608F052C0712C8C2C912C880C9E
:1025D000991CF401E358FB4F4F012091DC04721663
:1025E00008F042C0F40160817181072C02C0769529
:1025F00067950A94E2F7C29E90011124270D311DC0
:10260000E5E7F4E080E0458D568D2417350709F4A1
:1026100010C18F5F36968A30B1F760FF23C0E5E7BF
:10262000F4E090E080E0448D411117C0E091D504C2
:10263000F091D604E20FF31F4081D89EF001D99E9D
:10264000F00D1124EB58FB4F448F368F258F10A2CD
:10265000178E61E00E94D10405C0019636968A303B
:10266000910509F77394B9CFC394A9CFC12CF50193
:1026700081A18111C82EF6E0AF0EB11CA016B106E3
:10268000B1F70E94C5046093D1047093D204809383
:10269000D3049093D404CC2099F08091960488239D
:1026A00079F08091940490919504019749F4809178
:1026B0009104811108C00E9490040E94350376CDD8
:1026C0001092E104F8CF909146039330B9F48F341F
:1026D00091F71092460360E088E20E94F90360E0FF
:1026E00089E20E94F90360E08AE20E94F90360E057
:1026F0008BE20E94F9030E94160ADDCF91119BC064
:102700008F3439F511E01093460310924803E0919D
:102710004703DE9EF0011124E050FE4F608170E01F
:1027200090E080E00E941317609353047093540468
:10273000809355049093560410934D030E94C50452
:1027400060934B0470934C0480934D0490934E041B
:10275000D2CF9FEC980F963050F595E090934603BA
:102760008053809345036FEB72E087E594E00E940D
:102770004209C1CF8D3309F052C0109246038091B7
:1027800057049091580460E0009711F00E944C1497
:1027900080914703E0914503D89EC00111248050E9
:1027A0009E4FE80FF92FF11D31976083A4CF8F3230
:1027B00009F081CF84E0809346039DCF9130C9F426
:1027C0008F3409F078CF82E08093460310924D0356
:1027D00080914F0490915004A0915104B091520403
:1027E0008093530490935404A0935504B0935604DB
:1027F00082CF923009F05FCF8F3409F05CCF11E0C7
:10280000109346030E94C50460934B0470934C04DC
:1028100080934D0490934E0410934D03D9CF898338
:102820001A8241E050E0B70187E594E00E94C108B8
:1028300042CF61700FCF953009F49CCF943009F0EE
:10284000BDCF8153833008F036CF1092460380937A
:10285000470351CF87E594E00C94D609EF920F938C
:102860001F93CF93DF93E80134E047FD34E1042E5A
:10287000000C550B57FF03C0519541955109E32EAC
:10288000022F242FAE010E94AD14CE01DF91CF9113
:102890001F910F91EF9008951F93FC0199278827AE
:1028A000BC01E89411911032E9F3193010F01E3098
:1028B000C8F31B3251F01D3249F4689406C00E94DF
:1028C0007E14610F711D811D911D119110531A30DD
:1028D000B0F33EF490958095709561957F4F8F4F42
:1028E0009F4F1F910895BB274A3031F4992322F45A
:1028F000BDE2909581959F4F0C949414592F482FC9
:10290000372F262F660F771F881F991F660F771F97
:10291000881F991F620F731F841F951F660F771FF3
:10292000881F991F0895BB27FB015527AA27880FE9
:10293000991FAA1FA41710F0A41B83955051B9F733
:10294000A05DAA3308F0A95DA193009779F7B111B2
:10295000B1931192CB010C94FE168F929F92AF927D
:10296000BF92CF92DF92EF92FF920F931F93CF937C
:10297000DF9300D000D000D0CDB7DEB76A01F22ED1
:10298000B02E102FFBE3AF2EA01608F41BE31F5F41
:10299000012F27E0AE014F5F5F4F0E942616BC015A
:1029A0008981982F9970913009F44EC09BE2E1FC27
:1029B00004C09E2D9170E0FC49C05E2D5071E82F3F
:1029C000E87083FF55C084E0911101C083E0EF2DD2
:1029D000E81B8F1508F0E0E0D6018E2F20E255238A
:1029E000C9F1992329F0D6019C93C60101966C0187
:1029F00096012D5F3F4FE2FE33C08EE4D6018C93EB
:102A000091E411969C93119712968C93D9018E2F75
:102A100090E281112AC0E20FF32FF11D10828EEF98
:102A20009FEF29960FB6F894DEBF0FBECDBFDF91A2
:102A3000CF911F910F91FF90EF90DF90CF90BF90BB
:102A4000AF909F908F9008959DE2B7CF90E2B5CF61
:102A50002D9381508111FCCFCE0ED11CE0E0C1CF6F
:102A60008EE6D6018C9391E6CCCF9D938150D1CF49
:102A7000482F447082FF3DC084E0911101C083E083
:102A80008F1510F4EF2DE81BD6018E2F20E2552371
:102A900009F1992329F0D6019C93C60101966C0196
:102AA00096012D5F3F4FE2FE1BC089E4D6018C9357
:102AB0008EE411968C93119786E412968C93D9012B
:102AC0008E2F90E2882309F4A6CF9D938150FACFF0
:102AD0002D9381508111FCCFCE0ED11CE0E0D9CFD7
:102AE00089E6D6018C938EE611968C93119786E633
:102AF000E4CF9B0177FF02C030E020E0A1E0B0E02E
:102B0000911102C0B0E0A0E0F9013196AE0FBF1FF5
:102B10008B2C912CBB2009F461C05401EFEFAE1A4D
:102B2000BE0AAA0DBB1DFA161B0619F014F04F2D94
:102B30004A1B511188C0E3FC59C07601A42FB0E2B2
:102B4000A1114FC0C40ED11C992309F45BC040E011
:102B5000D6011196F60190836D01552309F448C002
:102B6000012F060F9A81582F507184FF03C09133B3
:102B700009F4015010160CF047C0093008F008E0C5
:102B8000EEE2FE2E5B01A01AB108850191948194BA
:102B900091082F3F320729F4D601FC92F6013196B5
:102BA0006F016217730794F1021713077CF5DB01BD
:102BB000A21BB30BAA24A394B12CAC0EBD1EAA0D6C
:102BC000BB1D11968C9121503109D6011196281503
:102BD0003905F4F0F60180836D01DBCFB12CA12C17
:102BE000A0CFF701B1937F01A150AACF9111B0CF2F
:102BF000D601942F50E302C05D9391509111FCCF08
:102C0000C40ED11C40E0ACCF01E0BACF80E3DBCFF3
:102C10006217730731F4963388F4953311F4552312
:102C200069F0F6018083FD01842F90E2811108C0D4
:102C3000A40FB11D1C9290E080E0F3CE81E3F1CFB0
:102C400091938150F3CF911183CF8ACF283008F030
:102C500027E03327DA01990F311D87FD9160009637
:102C60006105710539F432602E5F3D9330E32A959A
:102C7000E1F708959F3F30F080387105610509F054
:102C80003C5F3C5F3D93913008F08068911DDF937D
:102C9000CF931F930F93FF92EF92192F987F9695E2
:102CA000E92F96959695E90FFF27E252FE4F992757
:102CB0003327EE24FF24A701E70105900894079429
:102CC00028F4360FE71EF81E491F511D660F771FA7
:102CD000881F991F0694A1F70590079428F4E70E22
:102CE000F81E491F561FC11D770F881F991F661FA9
:102CF0000694A1F70590079428F4F80E491F561F73
:102D0000C71FD11D880F991F661F771F0694A1F753
:102D10000590079420F4490F561FC71FD81F990F1D
:102D2000661F771F881F0694A9F784911095177066
:102D300041F0D695C79557954795F794E7941A951E
:102D4000C1F7E4E8F1E0689415901591359165912B
:102D5000959105907FE27395E118F10A430B560BAC
:102D6000C90BD009C0F7E10CF11E431F561FC91F44
:102D7000D01D7EF4703311F48A95E6CFE8940150AB
:102D800030F0080F0AF40027021708F4202F2395CB
:102D9000022F7A3328F079E37D932A95E9F710C062
:102DA0007D932A9589F6069497956795379517959B
:102DB0001794E118F10A430B560BC90BD00998F090
:102DC00023957E9173957A3308F070E37C932013FA
:102DD000B8F77E9170617D9330F0839571E37D93B8
:102DE00070E32A95E1F71124EF90FF900F911F9166
:102DF000CF91DF91992787FD90950895DC01FC0123
:102E0000672F71917723E1F7329704C07C916D931E
:102E100070836291AE17BF07C8F308950E945017E0
:102E200008F481E00895E89409C097FB3EF490957A
:102E30008095709561957F4F8F4F9F4F9923A9F093
:102E4000F92F96E9BB279395F69587957795679522
:102E5000B795F111F8CFFAF4BB0F11F460FF1BC066
:102E60006F5F7F4F8F4F9F4F16C0882311F096E9F9
:102E700011C0772321F09EE8872F762F05C06623A7
:102E800071F096E8862F70E060E02AF09A95660F60
:102E9000771F881FDAF7880F9695879597F9089519
:102EA000990F0008550FAA0BE0E8FEEF161617065B
:102EB000E807F907C0F012161306E407F50798F0C3
:102EC000621B730B840B950B39F40A2661F0232BDC
:102ED000242B252B21F408950A2609F4A140A69558
:102EE0008FEF811D811D08950E9487170C94F8179C
:102EF0000E94EA1738F00E94F11720F0952311F094
:102F00000C94E1170C94E71711240C942C180E94D0
:102F1000091870F3959FC1F3950F50E0551F629FFC
:102F2000F001729FBB27F00DB11D639FAA27F00D22
:102F3000B11DAA1F649F6627B00DA11D661F829F49
:102F40002227B00DA11D621F739FB00DA11D621F2E
:102F5000839FA00D611D221F749F3327A00D611D4B
:102F6000231F849F600D211D822F762F6A2F11242D
:102F70009F5750409AF0F1F088234AF0EE0FFF1F60
:102F8000BB1F661F771F881F91505040A9F79E3FB7
:102F9000510580F00C94E1170C942C185F3FE4F37A
:102FA000983ED4F3869577956795B795F795E7950D
:102FB0009F5FC1F7FE2B880F911D9695879597F916
:102FC000089597F99F6780E870E060E008959FEFAB
:102FD00080EC089500240A941616170618060906B0
:102FE000089500240A94121613061406050608957F
:102FF000092E0394000C11F4882352F0BB0F40F407
:10300000BF2B11F460FF04C06F5F7F4F8F4F9F4F46
:10301000089557FD9058440F551F59F05F3F71F0C8
:103020004795880F97FB991F61F09F3F79F087952F
:103030000895121613061406551FF2CF4695F1DFB8
:1030400008C0161617061806991FF1CF8695710548
:10305000610508940895E894BB2766277727CB017C
:1030600097F908955058BB27AA270E944A180C9434
:10307000F8170E94EA1738F00E94F11720F039F48F
:103080009F3F19F426F40C94E7170EF4E095E7FB44
:103090000C94E117E92F0E94091858F3BA17620738
:1030A00073078407950720F079F4A6F50C942B1884
:1030B0000EF4E0950B2EBA2FA02D0B01B901900153
:1030C0000C01CA01A0011124FF27591B99F0593F97
:1030D00050F4503E68F11A16F040A22F232F342FDF
:1030E0004427585FF3CF469537952795A795F0402D
:1030F0005395C9F77EF41F16BA0B620B730B840B42
:10310000BAF09150A1F0FF0FBB1F661F771F881FF9
:10311000C2F70EC0BA0F621F731F841F48F4879551
:1031200077956795B795F7959E3F08F0B0CF939543
:10313000880F08F09927EE0F9795879508950E94BC
:10314000B3180C94F8170E94F11758F00E94EA1770
:1031500040F029F45F3F29F00C94E11751110C94D1
:103160002C180C94E7170E94091868F39923B1F3FF
:10317000552391F3951B550BBB27AA27621773079D
:10318000840738F09F5F5F4F220F331F441FAA1F31
:10319000A9F335D00E2E3AF0E0E832D091505040ED
:1031A000E695001CCAF72BD0FE2F29D0660F771F9B
:1031B000881FBB1F261737074807AB07B0E809F081
:1031C000BB0B802DBF01FF2793585F4F3AF09E3F06
:1031D000510578F00C94E1170C942C185F3FE4F340
:1031E000983ED4F3869577956795B795F7959F5F49
:1031F000C9F7880F911D9695879597F90895E1E095
:10320000660F771F881FBB1F621773078407BA07F3
:1032100020F0621B730B840BBA0BEE1F88F7E0954E
:1032200008950E9418196894B1110C942C180895EF
:103230000E94111888F09F5798F0B92F9927B7511D
:10324000B0F0E1F0660F771F881F991F1AF0BA954A
:10325000C9F714C0B13091F00E942B18B1E0089565
:103260000C942B18672F782F8827B85F39F0B93F57
:10327000CCF3869577956795B395D9F73EF49095FD
:103280008095709561957F4F8F4F9F4F089597FB65
:10329000072E16F4009407D077FD09D00E94631919
:1032A00007FC05D03EF4909581959F4F0895709549
:1032B00061957F4F0895EE0FFF1F881F8BBF07900A
:1032C000F691E02D1994AA1BBB1B51E107C0AA1F60
:1032D000BB1FA617B70710F0A61BB70B881F991FB7
:1032E0005A95A9F780959095BC01CD0108950F934B
:1032F0001F93CF93DF938230910510F482E090E02A
:10330000E091E604F091E70430E020E0B0E0A0E0D6
:10331000309799F42115310509F44AC0281B390B5F
:1033200024303105D8F58A819B816115710589F1B9
:10333000FB0193838283FE0111C040815181028190
:10334000138148175907E0F04817590799F4109767
:1033500061F012960C93129713961C933296CF013C
:10336000DF91CF911F910F9108950093E604109380
:10337000E704F4CF2115310551F04217530738F017
:10338000A901DB019A01BD01DF01F801C1CFEF0105
:10339000F9CF9093E7048093E604CDCFFE01E20FCE
:1033A000F31F819391932250310939832883D7CF1A
:1033B0002091E4043091E504232B41F420912C0268
:1033C00030912D023093E5042093E40420912A02E9
:1033D00030912B022115310541F42DB73EB74091B4
:1033E0002E0250912F02241B350BE091E404F09142
:1033F000E504E217F307A0F42E1B3F0B281739074B
:1034000078F0AC014E5F5F4F2417350748F04E0F40
:103410005F1F5093E5044093E404819391939FCF01
:10342000F0E0E0E09CCFCF93DF930097E9F0FC0160
:10343000329713821282A091E604B091E704ED0165
:1034400030E020E01097A1F420813181820F931F9A
:103450002091E4043091E5042817390709F061C090
:10346000F093E504E093E404DF91CF910895EA013D
:10347000CE17DF07E8F54A815B819E0141155105B2
:10348000B1F7E901FB83EA8349915991C40FD51F34
:10349000EC17FD0761F4808191810296840F951FDE
:1034A000E90199838883828193819B838A83F0E0F9
:1034B000E0E012968D919C9113970097B9F52D91AC
:1034C0003C911197CD010296820F931F2091E40445
:1034D0003091E5042817390739F6309751F51092E5
:1034E000E7041092E604B093E504A093E404BCCF93
:1034F000D383C28340815181840F951FC817D90798
:1035000061F44E5F5F4F88819981480F591F518345
:1035100040838A819B81938382832115310509F041
:10352000B0CFF093E704E093E6049ECFFD01DC0109
:10353000C0CF13821282D7CF4F925F926F927F9249
:103540008F929F92AF92BF92CF92DF92EF92FF92B3
:103550000F931F93CF93DF938C01009799F4CB01C6
:10356000DF91CF911F910F91FF90EF90DF90CF905F
:10357000BF90AF909F908F907F906F905F904F9093
:103580000C947719FC01E60FF71F9C0122503109BA
:10359000E217F30708F4AEC0D901CD91DC91119781
:1035A000C617D70720F1C530D10578F0CE010497B2
:1035B0008617970750F0C61BD70B2297C193D1935C
:1035C0006D937C93CF010E94131AC801DF91CF91B4
:1035D0001F910F91FF90EF90DF90CF90BF90AF9031
:1035E0009F908F907F906F905F904F9008955B01B8
:1035F000AC1ABD0A4C018C0E9D1EA091E604B09140
:10360000E704512C412CF12CE12C109731F58091DD
:10361000E4049091E5048815990509F05CC046160C
:10362000570608F058C080912A0290912B0200970B
:1036300041F48DB79EB740912E0250912F02841B0A
:10364000950BE817F90708F055C0F093E504E093EF
:10365000E404F90171836083B8CF8D919C91119737
:1036600012966C90129713967C901397A815B90533
:1036700059F56C0142E0C40ED11CCA14DB0420F1E0
:10368000AC014A195B09DA011296159780F0628243
:10369000738251834083D9016D937C93E114F104CB
:1036A00071F0D7011396FC93EE9312978ECF22966A
:1036B0008C0F9D1FF90191838083F301EFCFF0936D
:1036C000E704E093E60481CF4816590608F42C017C
:1036D0007D01D3019ACFCB010E9477197C0100971D
:1036E00049F0AE01B8010E947D1BC8010E94131A67
:1036F00087016BCF10E000E068CFFB01DC0102C066
:1037000001900D9241505040D8F70895FB01DC0123
:1037100001900D920020E1F7089511E0C0EDD1E095
:1037200000E006C0802FFE010E945B192196011D5A
:0E373000C13DD10780E00807A9F7F894FFCF4C
:10373E00020404020000020302000000020404035B
:10374E0003021E20222416181A1C3738392F34353E
:10375E00362A3132332D4F303D2B0000E8048000E5
:10376E0028292A2B00000000C80229025F02150337
:10377E0090026E02820200000000D106A40601072C
:10378E007A069D068A067B06000000009308290231
:10379E00010700070000000067042704F6034944F0
:1037AE004C450041435449564500504155534544FC
:1037BE000046494E4953484544004348414E47450B
:1037CE00204D4F4445004348414E47452054494DF6
:1037DE004500202D206D6F646520002D00202D20CA
:1037EE00737465703A200074696D6572203A20001A
:1037FE006E6577206D6F6465203A00737465702076
:02380E000000B8
:00000001FF
