:100000000C9438010C9469010C9469010C946901F9
:100010000C9469010C9469010C9469010C946901B8
:100020000C9469010C9469010C9469010C946901A8
:100030000C9469010C9469010C9469010C94690198
:100040000C9469010C9469010C9469010C94690188
:100050000C9469010C9469010C9469010C949E053F
:100060000C9469010C9469010C9469010C94690168
:100070000C9469010C9469010C9469010C94690158
:100080000C9469010C9469010C9469010C94690148
:100090000C9469010C9469010C9469010C94690138
:1000A0000C9469010C9469010C9469010C94690128
:1000B0000C9469010C9469010C9469010C94690118
:1000C0000C9469010C9469010C9469010C94690108
:1000D0000C9469010C9469010C9469010C946901F8
:1000E0000C9469010C9484020C94BB020C946E0273
:1000F0000C9464020C94FE010C9476020C94490258
:100100000C9480020C945B020C9431030C94530207
:100110000C94CA040C945E020C947C020C94890228
:100120000C9468020C94EF080C948A020C944F0211
:100130000C942C030C9430030C948E020C946D09D7
:100140000C9457020C9472020C94EC0200002100F3
:10015000240027002A002D00300033000101000098
:10016000040107010A0100002200250028002B00DD
:100170002E003100340002010000050108010B01CE
:10018000000020002300260029002C002F00320050
:100190000001000003010601090105050505070529
:1001A00008080808020202020A0A080804040404F3
:1001B000010101010101010103030303030303031F
:1001C000040707070C0C0C0C0C0C0C0C02020202AE
:1001D00006060606060606060B0B0B0B0B0B0B0B97
:1001E0000102102020080810204010204080020149
:1001F000020108040201010204081020408080402E
:10020000201008040201800402018040201008042C
:1002100002010804020101020408102040800102CA
:1002200004081020408000000A0B02090C0D0E0883
:1002300007030401000000000000000000000000AF
:1002400000000000000000000000000000000000AE
:10025000000012111000000000000000000000006B
:10026000000000000000000000000000EF086D0921
:1002700011241FBECFEFD1E2DEBFCDBF00E00CBF27
:1002800022E0A0E4B2E001C01D92A23EB207E1F775
:1002900012E0A0E0B2E0E0E9FCE100E00BBF02C048
:1002A00007900D92A034B107D9F711E0C7E3D1E070
:1002B00000E006C021970109802FFE010E94180C62
:1002C000C633D10780E00807A9F70E94E8050C941F
:1002D000360E0C94000096E0899FD0011124A95A93
:1002E000BD4F90967C936E935F9791E091969C930F
:1002F0009197E091C402F091C5029091C3029923B5
:1003000039F0309751F0811108C08091730219942F
:10031000309719F05C968C91FACF0895CF92DF92C6
:10032000EF92FF920F931F9396E0899FF0011124A3
:10033000E95AFD4F11A2278D30A12130310551F12D
:1003400078F02230310509F451C02330310509F429
:1003500052C01F910F91FF90EF90DF90CF900895C2
:100360006623B9F361E070E00E946B012FB7F89447
:100370008091530290915402A0915502B09156027F
:100380002FBF8093AF029093B002A093B102B093BD
:10039000B202DFCF9FB7F894C0905302D0905402BE
:1003A000E0905502F09056029FBF0091AF0210916D
:1003B000B0022091B1023091B202C01AD10AE20A11
:1003C000F30A0091C1021091C20230E020E00C1546
:1003D0001D052E053F0550F462E070E01F910F915E
:1003E000FF90EF90DF90CF900C946B016111B1CF33
:1003F00063E070E0F3CF70E060E0F0CFAF92BF92C7
:10040000CF92DF92EF92FF920F931F93CF93DF93E0
:100410006C017B018B01040F151FEB015E01AE180F
:10042000BF08C017D10759F06991D601ED91FC9131
:100430000190F081E02DC6011995892B79F7C5014E
:10044000DF91CF911F910F91FF90EF90DF90CF90B0
:10045000BF90AF9008958150823108F05AC0E82FC4
:10046000F0E08827E95CFD4F8F4F0C94180C570281
:100470005B0249024F02530289025E026402680273
:100480006E02720276027C028002890284028A0273
:100490008E02809180008F778093800008958091F4
:1004A00080008F7DF9CF80918000877FF5CF84B564
:1004B0008F7784BD089584B58F7DFBCF8091B00088
:1004C0008F778093B00008958091B0008F7DF9CF31
:1004D000809190008F778093900008958091900094
:1004E0008F7DF9CF80919000877FF5CF8091A0001C
:1004F0008F778093A00008958091A0008F7DF9CF21
:100500008091A000877FF5CF809120018F77809325
:1005100020010895809120018F7DF9CF80912001E5
:10052000877FF5CFCF93DF93282F30E0F901EA5D85
:10053000FD4F8491F901E052FE4FD491F901E65646
:10054000FE4FC491CC23A1F081110E942B02EC2F0D
:10055000F0E0EE0FFF1FE058FE4FA591B491EC9133
:10056000ED2381E090E009F480E0DF91CF910895E0
:1005700080E090E0FACF862F0C9492021F93CF93E5
:10058000DF93282F30E0F901EA5DFD4F8491F901F6
:10059000E052FE4FD491F901E656FE4FC491CC23B0
:1005A000A9F0162F81110E942B02EC2FF0E0EE0F24
:1005B000FF1FEA59FE4FA591B4918FB7F894EC91C3
:1005C000111108C0D095DE23DC938FBFDF91CF914E
:1005D0001F910895DE2BF8CF862F642F0C94BE0256
:1005E000CF93DF9390E0FC01E052FE4F24918656BA
:1005F0009E4FFC0184918823C9F090E0880F991FD9
:10060000FC01E45BFE4FA591B491FC01EA59FE4F59
:10061000C591D49161110DC09FB7F8948C9120952C
:1006200082238C938881282328839FBFDF91CF91D9
:100630000895623051F49FB7F8943C91822F8095D1
:1006400083238C93E8812E2BEFCF8FB7F894EC9116
:100650002E2B2C938FBFEACF862F642F0C94F002A1
:10066000089590E080E00895FC0101900020E9F7F2
:100670003197AF01481B590BBC0186EC92E00C94FA
:10068000FE018F929F92AF92BF920F931F93CF93D1
:10069000DF93CDB7DEB7A1970FB6F894DEBF0FBEDC
:1006A000CDBF19A2423008F44AE08E010F5D1F4F02
:1006B000842E912CB12CA12CA50194010E94F60B43
:1006C000E62FB901CA01EA30F4F4E05DD801EE93F7
:1006D0008D01232B242B252B79F790E080E01097B8
:1006E00019F0CD010E943403A1960FB6F894DEBF35
:1006F0000FBECDBFDF91CF911F910F91BF90AF90F3
:100700009F908F900895E95CE1CFCF93DF93EC0148
:1007100060E08E810E94BE0261E08E810E94BE0276
:1007200060E08E810E94BE028BE891E00197F1F7B4
:10073000DF91CF910895CF92DF92EF92FF920F93C6
:100740001F93CF93DF936C017C0187E0E80EF11CCF
:10075000D0E0C0E0062F10E0B8010C2E02C0759565
:1007600067950A94E2F76170F70181917F010E9419
:10077000BE022196C430D10579F7C601DF91CF9131
:100780001F910F91FF90EF90DF90CF900C94850315
:10079000CF92DF92EF92FF920F931F93CF93DF934D
:1007A000EC01F62E642F8C810E94BE028D818F3F5A
:1007B00019F060E00E94BE020F2D10E08F8584FFCB
:1007C00025C06E0187E0C80ED11CF12CE12CB801C8
:1007D0000E2C02C0759567950A94E2F76170F601D8
:1007E00081916F010E94BE02FFEFEF1AFF0A88E0BD
:1007F000E816F10461F7CE01DF91CF911F910F91BF
:10080000FF90EF90DF90CF900C948503B80184E0C7
:10081000759567958A95E1F7CE010E949B036F2D30
:10082000CE01DF91CF911F910F91FF90EF90DF905C
:10083000CF900C949B0340E0682F86EC92E00C94E0
:10084000C80381E00E941B048BE39FE10197F1F74D
:100850000895CF93DF93823029F49091D502986068
:100860009093D5028093D9021092DA0280E48093AB
:10087000DB0280E18093DC0280E58093DD0261E0B1
:100880008091CA020E94F0028091CB028F3F19F042
:1008900061E00E94F00261E08091CC020E94F002CF
:1008A000C6ECD2E09E01265C32408091D50284FDE8
:1008B0000BC084E090E021962817390744F461E0EA
:1008C0008E810E94F002EECF88E090E0F4CF8BE3BF
:1008D0009DE00197F1F760E08091CA020E94BE029C
:1008E00060E08091CC020E94BE028091CB028F3FDB
:1008F00019F060E00E94BE028091D50284FD34C0F0
:1009000063E086EC92E00E949B03CBE4D6E4CE0148
:100910000197F1F763E086EC92E00E949B03219738
:10092000F1F763E086EC92E00E949B0383E592E09E
:100930000197F1F762E086EC92E00E949B038091C0
:10094000D50280620E941B0484E08093D6028CE072
:100950000E941B040E94210482E08093D70286E05B
:10096000DF91CF910C941B0480620E941B048BE4E6
:1009700096E40197F1F78091D50280620E941B04F2
:1009800083E592E00197F1F78091D50280620E94A1
:100990001B04D5CF41E00E94C80381E090E0089598
:1009A000CF92DF92EF92FF926C01990FEE08FF0851
:1009B000F7FE16C041E06DE286EC92E00E94C803AB
:1009C00066277727CB016C197D098E099F094AE0BC
:1009D0000E9441030196FF90EF90DF90CF90089521
:1009E0004AE0C701B601FF90EF90DF90CF900C94E2
:1009F00041030F931F93CF93DF93EC01888199817B
:100A0000009759F02A813B812617370730F081E0A3
:100A1000DF91CF911F910F9108958B016F5F7F4FF1
:100A20000E94450D009759F0998388831B830A83A0
:100A30002C813D81232B59F7FC011082E8CF80E007
:100A4000E7CFCF93DF93EC01198218821B821A82C1
:100A50001D821C8270E060E00E94F90428813981C7
:100A600081110FC02115310519F0C9010E94BC0C7C
:100A7000198218821D821C821B821A82DF91CF91FB
:100A800008951D821C826BE372E0C901DF91CF9152
:100A90000C942F0ECF93DF93EC0170E060E00E9486
:100AA000F9042881398181110FC02115310519F010
:100AB000C9010E94BC0C198218821D821C821B82F3
:100AC0001A82DF91CF9108951D821C826BE372E040
:100AD000C901DF91CF910C942F0EEF92FF920F93EB
:100AE0001F93CF93DF931F921F92CDB7DEB78C0178
:100AF00069831A82FC01E480F580FFEFEF1AFF0A98
:100B0000B7010E94F904882381F0F8012081318126
:100B100084819581BE016F5F7F4F820F931F0E947A
:100B20002F0EF801F582E48281E00F900F90DF91A3
:100B3000CF911F910F91FF90EF9008951F920F9208
:100B40000FB60F9211242F933F938F939F93AF93E0
:100B5000BF938091530290915402A0915502B0919D
:100B600056023091440223E0230F2D3758F50196A9
:100B7000A11DB11D2093440280935302909354020F
:100B8000A0935502B0935602809140029091410289
:100B9000A0914202B09143020196A11DB11D809324
:100BA000400290934102A0934202B0934302BF914E
:100BB000AF919F918F913F912F910F900FBE0F900A
:100BC0001F90189526E8230F0296A11DB11DD2CFC4
:100BD000789484B5826084BD84B5816084BD85B518
:100BE000826085BD85B5816085BD80916E00816024
:100BF00080936E00109281008091810082608093CA
:100C000081008091810081608093810080918000CB
:100C10008160809380008091B10084608093B100F6
:100C20008091B00081608093B000809191008260DB
:100C300080939100809191008160809391008091D8
:100C400090008160809390008091A10082608093E9
:100C5000A1008091A10081608093A1008091A000FB
:100C600081608093A00080912101826080932101A6
:100C70008091210181608093210180912001816018
:100C80008093200180917A00846080937A00809123
:100C90007A00826080937A0080917A0081608093EC
:100CA0007A0080917A00806880937A001092C10067
:100CB00082E00E9429040E942104E1E08091D9028F
:100CC0008111E0E0E195F0E0EA53FD4F848980680E
:100CD0000E941B0422242A94322C00E010E051E0F0
:100CE0005093C3028FB7F89440915302509154022D
:100CF00060915502709156028FBF8091B30290911E
:100D0000B402A091B502B091B602481B590B6A0B10
:100D10007B0B8091BF029091C002B0E0A0E08417ED
:100D20009507A607B70708F014C1C0E08091BD027F
:100D3000C81760F4E091B902F091BA02EC0FF11D0E
:100D400062E080810E94F002CF5FF0CF912C809111
:100D5000BE02981608F061C0E92CF12CE091BB02AC
:100D6000F091BC02EE0DFF1D61E080810E94F00257
:100D7000E091BB02F091BC02EE0DFF1D60E08081AE
:100D80000E94BE0281E090E0A0E0B0E0092C04C027
:100D9000880F991FAA1FBB1F0A94D2F75C016C0130
:100DA000C094D094812C8091BD028816F8F4C82D8F
:100DB000D0E0E091B902F091BA02EC0FFD1F808102
:100DC0000E9492022496CC0FDD1FC95ADD4F892B59
:100DD00041F4888199818A299B2999838883839406
:100DE000E2CF888199818C219D21F7CFE091BB02D0
:100DF000F091BC02EE0DFF1D61E080810E94BE02F9
:100E00008091BB029091BC02E80EF91E60E0F701F0
:100E100080810E94F00293949ACFC7E5D2E0FE0150
:100E2000878D90A1892B21F4148E368E258E11A2E8
:100E3000369652E0E339F50799F7F12C8091BD021F
:100E4000F81608F053C0E12CCF2CD12CCC0CDD1CB3
:100E5000C601815A9D4F6C012091BE02E21608F036
:100E600043C0F601608171810E2C02C076956795B2
:100E70000A94E2F7F29E900111242E0D311DE7E550
:100E8000F2E080E0458D568D2417350709F4A5C1A1
:100E90008F5F36968A30B1F760FF24C0E7E5F2E055
:100EA00090E080E0448D411118C0E091B702F091CC
:100EB000B802E20FF31F408156E0589FF001599F9E
:100EC000F00D1124E95AFD4F448F368F258F10A263
:100ED000178E61E00E948E0105C0019636968A3019
:100EE000910501F7E394B8CFF394A8CF80E099A1DE
:100EF0009111892F269692E0C339D907C1F79FB780
:100F0000F8944091530250915402609155027091AF
:100F100056029FBF4093B3025093B4026093B50250
:100F20007093B6028823A9F080917802882389F013
:100F30008091760290917702019759F4C0917302E3
:100F4000C1110AC00115110509F4C9CE0E940000A3
:100F5000C6CE1092C302F6CF41E06C2F86EC92E031
:100F60000E94C803CF36D1F48DE492E00E944A0576
:100F700087E492E00E944A05109246020E942104F2
:100F8000E1E08091D9028111E0E0E195F0E0EA53DF
:100F9000FD4F848980680E941B04D4CFCD3309F0B3
:100FA00000C180914D0290914E02009741F10E9444
:100FB0007E097B018091470290914802009719F1C8
:100FC0000E947E09EB01E091D902E23000F5E15088
:100FD000F0E0EA53FD4F848980680E941B048091F1
:100FE00045028B32F1F1ACF48A3209F0ABCFEC9EC2
:100FF000C001ED9E900DFC9E900D112435C060E067
:1010000070E0CB01D6CF60E070E0CB01DBCFE1E058
:10101000DFCF8D3261F18F3209F094CFB701FF0C31
:10102000880B990B0E94C1096B017C01BE01DD0F89
:10103000880B990B0E94C1099B01AC01C701B60145
:101040000E944B0B6B017C014B015C01AC019B01CD
:101050000E94F10B882379F084E392E00E9434032C
:1010600071CFC7018C0F9D1F0E94D0046BCFC701A9
:101070008C1B9D0BF9CF26013701E89477F82FEFF1
:101080003FEF4FE75FE7C301B2010E94F10B81110F
:101090000DC02FEF3FEF4FE75FE7C301B2010E94A2
:1010A000BA0918161CF488E392E0D8CF2FEF3FEF6F
:1010B0004FE75FE4C701B6010E94EC0B18161CF461
:1010C0008CE392E0CBCF2FEF3FEF4FE75FECC70110
:1010D000B6010E94BA0987FDF3CF20E030E0A901F4
:1010E000C701B6010E94BA0987FF0CC041E06DE25A
:1010F00086EC92E00E94C80346015701B7FAB0940B
:10110000B7F8B0942AE037ED43EA5BE3C501B401D8
:101110000E94DF0A4B015C010E94BD0B6B017C0148
:101120000E94BF099B01AC01C501B4010E94DE0A07
:101130004B015C014AE0C701B6010E94410341E056
:101140006EE286EC92E00E94C80320E030E040E2CC
:1011500051E4C501B4010E94200A4B015C010E94C8
:10116000BD0B6B01F12CE12C4AE0C701B6010E94D6
:101170004103C701B6010E94BF099B01AC01C50133
:10118000B4010E94DE0A20E030E040E251E40E9417
:10119000200A0E94BD0B90E080E04AE00E944103DB
:1011A000D1CE80914602811114C08C2F8D7F8D325B
:1011B00021F086ED8C0F823030F4C0934502E1E0DF
:1011C000E0934602BFCE6C2F8DE492E00E946D0545
:1011D000B9CE6C2F87E492E0F9CF61707BCE10928C
:1011E000590210925D0210925C0210925E028EE231
:1011F00092E09093580280935702E3E7F2E0108266
:10120000148213821582369682E0EF3AF807B9F716
:1012100084E092E09093BA028093B90280E092E079
:101220009093BC028093BB0284E08093BD028093C4
:10123000BE0288E092E09093B8028093B7028AE001
:1012400090E09093C0028093BF0284EF91E090936E
:10125000C2028093C1021092C5021092C402109281
:10126000B3021092B4021092B5021092B60210921C
:10127000C3021092C9021092C80282E292E09093D7
:10128000C7028093C6028DE08093CA028FEF8093DD
:10129000CB028CE08093CC0288E08093CD0289E081
:1012A0008093CE028AE08093CF028BE08093D002BD
:1012B0001092D1021092D2021092D3021092D40254
:1012C0001092D50281E00E9429048DE492E00E94F0
:1012D000210587E492E00C942105809147029091CA
:1012E0004802009711F00E94BC0C80914D02909131
:1012F0004E02009711F00C94BC0C08951F93FC0152
:1013000099278827BC01E89411911032E9F319302C
:1013100010F01E30C8F31B3251F01D3249F46894AE
:1013200006C00E94A509610F711D811D911D1191BB
:1013300010531A30B0F33EF49095809570956195F6
:101340007F4F8F4F9F4F1F910895592F482F372F51
:10135000262F660F771F881F991F660F771F881F1C
:10136000991F620F731F841F951F660F771F881FB9
:10137000991F08950E94FC0908F481E00895E894FB
:1013800009C097FB3EF490958095709561957F4FCD
:101390008F4F9F4F9923A9F0F92F96E9BB2793957B
:1013A000F695879577956795B795F111F8CFFAF48B
:1013B000BB0F11F460FF1BC06F5F7F4F8F4F9F4FBC
:1013C00016C0882311F096E911C0772321F09EE81A
:1013D000872F762F05C0662371F096E8862F70E080
:1013E00060E02AF09A95660F771F881FDAF7880F5A
:1013F0009695879597F90895990F0008550FAA0BB0
:10140000E0E8FEEF16161706E807F907C0F0121617
:101410001306E407F50798F0621B730B840B950B1A
:1014200039F40A2661F0232B242B252B21F408956F
:101430000A2609F4A140A6958FEF811D811D08950C
:101440000E94330A0C94A40A0E94960A38F00E9463
:101450009D0A20F0952311F00C948D0A0C94930AA8
:1014600011240C94D80A0E94B50A70F3959FC1F319
:10147000950F50E0551F629FF001729FBB27F00D42
:10148000B11D639FAA27F00DB11DAA1F649F662797
:10149000B00DA11D661F829F2227B00DA11D621FE6
:1014A000739FB00DA11D621F839FA00D611D221FA0
:1014B000749F3327A00D611D231F849F600D211D84
:1014C000822F762F6A2F11249F5750409AF0F1F007
:1014D00088234AF0EE0FFF1FBB1F661F771F881F70
:1014E00091505040A9F79E3F510580F00C948D0A11
:1014F0000C94D80A5F3FE4F3983ED4F38695779531
:101500006795B795F795E7959F5FC1F7FE2B880F15
:10151000911D9695879597F9089597F99F6780E8AB
:1015200070E060E008959FEF80EC089500240A9435
:101530001616170618060906089500240A941216AE
:101540001306140605060895092E0394000C11F4E1
:10155000882352F0BB0F40F4BF2B11F460FF04C08E
:101560006F5F7F4F8F4F9F4F089557FD9058440FE7
:10157000551F59F05F3F71F04795880F97FB991FF2
:1015800061F09F3F79F087950895121613061406AF
:10159000551FF2CF4695F1DF08C01616170618063C
:1015A000991FF1CF86957105610508940895E89417
:1015B000BB2766277727CB0197F908955058BB279B
:1015C000AA270E94F60A0C94A40A0E94960A38F0F0
:1015D0000E949D0A20F039F49F3F19F426F40C94E0
:1015E000930A0EF4E095E7FB0C948D0AE92F0E9414
:1015F000B50A58F3BA17620773078407950720F0F6
:1016000079F4A6F50C94D70A0EF4E0950B2EBA2FB8
:10161000A02D0B01B90190010C01CA01A0011124F8
:10162000FF27591B99F0593F50F4503E68F11A16A4
:10163000F040A22F232F342F4427585FF3CF469535
:1016400037952795A795F0405395C9F77EF41F1657
:10165000BA0B620B730B840BBAF09150A1F0FF0F21
:10166000BB1F661F771F881FC2F70EC0BA0F621F0D
:10167000731F841F48F4879577956795B795F795FD
:101680009E3F08F0B0CF9395880F08F09927EE0F92
:101690009795879508950E945F0B0C94A40A0E9469
:1016A0009D0A58F00E94960A40F029F45F3F29F005
:1016B0000C948D0A51110C94D80A0C94930A0E9430
:1016C000B50A68F39923B1F3552391F3951B550B94
:1016D000BB27AA2762177307840738F09F5F5F4F05
:1016E000220F331F441FAA1FA9F335D00E2E3AF044
:1016F000E0E832D091505040E695001CCAF72BD05C
:10170000FE2F29D0660F771F881FBB1F26173707AC
:101710004807AB07B0E809F0BB0B802DBF01FF27DE
:1017200093585F4F3AF09E3F510578F00C948D0A24
:101730000C94D80A5F3FE4F3983ED4F386957795EE
:101740006795B795F7959F5FC9F7880F911D969597
:10175000879597F90895E1E0660F771F881FBB1FF3
:10176000621773078407BA0720F0621B730B840BA0
:10177000BA0BEE1F88F7E09508950E94BD0A88F025
:101780009F5798F0B92F9927B751B0F0E1F0660F45
:10179000771F881F991F1AF0BA95C9F714C0B13086
:1017A00091F00E94D70AB1E008950C94D70A672FF0
:1017B000782F8827B85F39F0B93FCCF386957795B5
:1017C0006795B395D9F73EF490958095709561959E
:1017D0007F4F8F4F9F4F08950E94FC0908F48FEFB1
:1017E00008950E94FC09880B990B0895A1E21A2E16
:1017F000AA1BBB1BFD010DC0AA1FBB1FEE1FFF1FB5
:10180000A217B307E407F50720F0A21BB30BE40B04
:10181000F50B661F771F881F991F1A9469F760954B
:101820007095809590959B01AC01BD01CF01089505
:10183000EE0FFF1F881F8BBF0790F691E02D1994C4
:101840000F931F93CF93DF938230910510F482E0C2
:1018500090E0E091E002F091E10230E020E0B0E0C1
:10186000A0E0309799F42115310509F44AC0281BEE
:10187000390B24303105D8F58A819B8161157105BA
:1018800089F1FB0193838283FE0111C04081518164
:101890000281138148175907E0F04817590799F456
:1018A000109761F012960C93129713961C93329630
:1018B000CF01DF91CF911F910F9108950093E00226
:1018C0001093E102F4CF2115310551F0421753076F
:1018D00038F0A901DB019A01BD01DF01F801C1CF98
:1018E000EF01F9CF9093E1028093E002CDCFFE01AA
:1018F000E20FF31F8193919322503109398328839A
:10190000D7CF2091DE023091DF02232B41F42091CA
:101910001A0230911B023093DF022093DE022091E5
:101920001802309119022115310541F42DB73EB747
:1019300040911C0250911D02241B350BE091DE02E8
:10194000F091DF02E217F307A0F42E1B3F0B2817DC
:10195000390778F0AC014E5F5F4F2417350748F028
:101960004E0F5F1F5093DF024093DE0281939193ED
:101970009FCFF0E0E0E09CCFCF93DF930097E9F0BA
:10198000FC01329713821282A091E002B091E10231
:10199000ED0130E020E01097A1F420813181820F29
:1019A000931F2091DE023091DF022817390709F0DA
:1019B00061C0F093DF02E093DE02DF91CF910895E2
:1019C000EA01CE17DF07E8F54A815B819E014115E8
:1019D0005105B1F7E901FB83EA8349915991C40F9D
:1019E000D51FEC17FD0761F4808191810296840F69
:1019F000951FE90199838883828193819B838A83E0
:101A0000F0E0E0E012968D919C9113970097B9F564
:101A10002D913C911197CD010296820F931F209139
:101A2000DE023091DF022817390739F6309751F579
:101A30001092E1021092E002B093DF02A093DE0266
:101A4000BCCFD383C28340815181840F951FC817B7
:101A5000D90761F44E5F5F4F88819981480F591F04
:101A6000518340838A819B81938382832115310531
:101A700009F0B0CFF093E102E093E0029ECFFD01C8
:101A8000DC01C0CF13821282D7CF4F925F926F9248
:101A90007F928F929F92AF92BF92CF92DF92EF92FE
:101AA000FF920F931F93CF93DF938C01009799F4CC
:101AB000CB01DF91CF911F910F91FF90EF90DF90BD
:101AC000CF90BF90AF909F908F907F906F905F90DE
:101AD0004F900C94200CFC01E60FF71F9C01225044
:101AE0003109E217F30708F4AEC0D901CD91DC91BA
:101AF0001197C617D70720F1C530D10578F0CE0170
:101B000004978617970750F0C61BD70B2297C193EF
:101B1000D1936D937C93CF010E94BC0CC801DF91DF
:101B2000CF911F910F91FF90EF90DF90CF90BF90DA
:101B3000AF909F908F907F906F905F904F9008959F
:101B40005B01AC1ABD0A4C018C0E9D1EA091E002F7
:101B5000B091E102512C412CF12CE12C109731F580
:101B60008091DE029091DF028815990509F05CC032
:101B70004616570608F058C0809118029091190235
:101B8000009741F48DB79EB740911C0250911D0201
:101B9000841B950BE817F90708F055C0F093DF0296
:101BA000E093DE02F90171836083B8CF8D919C913F
:101BB000119712966C90129713967C901397A81514
:101BC000B90559F56C0142E0C40ED11CCA14DB04FE
:101BD00020F1AC014A195B09DA011296159780F0E1
:101BE0006282738251834083D9016D937C93E114A7
:101BF000F10471F0D7011396FC93EE9312978ECFF8
:101C000022968C0F9D1FF90191838083F301EFCF02
:101C1000F093E102E093E00281CF4816590608F400
:101C20002C017D01D3019ACFCB010E94200C7C01B5
:101C3000009749F0AE01B8010E94260EC8010E942B
:101C4000BC0C87016BCF10E000E068CFFB01DC012A
:101C500002C001900D9241505040D8F70895FB0109
:101C6000DC0101900D920020E1F7089511E0C7E337
:101C7000D1E000E006C0802FFE010E94180C2196E2
:101C8000011DC833D10780E00807A9F7F894FFCFFA
:101C900017191B1D1F2123253738392F3435362AB4
:101CA0003132332D6F303D2B0000E2028000000006
:101CB0000000CA04FE0131033003000000002C03C1
:101CC000EC02BB026E616E00696E66006F766600A4
:00000001FF
